{
  "contractName": "Lighthouse",
  "abi": [
    {
      "constant": true,
      "inputs": [],
      "name": "auth",
      "outputs": [
        {
          "name": "",
          "type": "address"
        }
      ],
      "payable": false,
      "stateMutability": "view",
      "type": "function"
    },
    {
      "constant": false,
      "inputs": [
        {
          "name": "newAuth",
          "type": "address"
        }
      ],
      "name": "changeAuth",
      "outputs": [],
      "payable": false,
      "stateMutability": "nonpayable",
      "type": "function"
    },
    {
      "constant": false,
      "inputs": [
        {
          "name": "newSeeker",
          "type": "address"
        }
      ],
      "name": "changeSearcher",
      "outputs": [],
      "payable": false,
      "stateMutability": "nonpayable",
      "type": "function"
    },
    {
      "constant": false,
      "inputs": [
        {
          "name": "newMaxAge",
          "type": "uint256"
        }
      ],
      "name": "setMaxAge",
      "outputs": [],
      "payable": false,
      "stateMutability": "nonpayable",
      "type": "function"
    },
    {
      "constant": false,
      "inputs": [
        {
          "name": "DataValue",
          "type": "uint256"
        },
        {
          "name": "nonce",
          "type": "uint256"
        }
      ],
      "name": "write",
      "outputs": [],
      "payable": false,
      "stateMutability": "nonpayable",
      "type": "function"
    },
    {
      "constant": true,
      "inputs": [],
      "name": "notTooLongSinceUpdated",
      "outputs": [
        {
          "name": "",
          "type": "bool"
        }
      ],
      "payable": false,
      "stateMutability": "view",
      "type": "function"
    },
    {
      "constant": true,
      "inputs": [],
      "name": "peekData",
      "outputs": [
        {
          "name": "v",
          "type": "uint128"
        },
        {
          "name": "b",
          "type": "bool"
        }
      ],
      "payable": false,
      "stateMutability": "view",
      "type": "function"
    },
    {
      "constant": true,
      "inputs": [],
      "name": "peekUpdated",
      "outputs": [
        {
          "name": "v",
          "type": "uint32"
        },
        {
          "name": "b",
          "type": "bool"
        }
      ],
      "payable": false,
      "stateMutability": "view",
      "type": "function"
    },
    {
      "constant": true,
      "inputs": [],
      "name": "peekLastNonce",
      "outputs": [
        {
          "name": "v",
          "type": "uint32"
        },
        {
          "name": "b",
          "type": "bool"
        }
      ],
      "payable": false,
      "stateMutability": "view",
      "type": "function"
    },
    {
      "constant": true,
      "inputs": [],
      "name": "peek",
      "outputs": [
        {
          "name": "v",
          "type": "bytes32"
        },
        {
          "name": "ok",
          "type": "bool"
        }
      ],
      "payable": false,
      "stateMutability": "view",
      "type": "function"
    },
    {
      "constant": true,
      "inputs": [],
      "name": "read",
      "outputs": [
        {
          "name": "x",
          "type": "bytes32"
        }
      ],
      "payable": false,
      "stateMutability": "view",
      "type": "function"
    }
  ],
  "bytecode": "0x6080604052600080546001600160a01b0319163317905561245b60025534801561002857600080fd5b506106c3806100386000396000f3fe608060405234801561001057600080fd5b50600436106100a95760003560e01c80639c0e3f7a116100715780639c0e3f7a14610159578063bdf384a81461017c578063becfbf69146101a4578063d6e848ac146101ac578063de9375f2146101d2578063e2f90632146101f6576100a9565b806322969eac146100ae578063420b81f6146100d657806357de26a41461010157806359e02dd71461011b5780635ae28fc91461013c575b600080fd5b6100d4600480360360208110156100c457600080fd5b50356001600160a01b0316610212565b005b6100de61028f565b604080516001600160801b03909316835290151560208301528051918290030190f35b6101096102af565b60408051918252519081900360200190f35b61012361032a565b6040805192835290151560208301528051918290030190f35b6100d46004803603602081101561015257600080fd5b5035610340565b6100d46004803603604081101561016f57600080fd5b50803590602001356103a0565b6101846104e1565b6040805163ffffffff909316835290151560208301528051918290030190f35b610184610506565b6100d4600480360360208110156101c257600080fd5b50356001600160a01b0316610517565b6101da61065a565b604080516001600160a01b039092168252519081900360200190f35b6101fe610669565b604080519115158252519081900360200190f35b6000546001600160a01b0316331461026d5760408051600160e51b62461bcd0281526020600482015260136024820152600160681b72556e617574686f72697365642061636365737302604482015290519081900360640190fd5b600080546001600160a01b0319166001600160a01b0392909216919091179055565b600254600061029c610669565b80156102a9575060025415155b90509091565b60006102b9610669565b80156102c6575060025415155b61031a5760408051600160e51b62461bcd02815260206004820152601360248201527f496e76616c696420646174612073746f72656400000000000000000000000000604482015290519081900360640190fd5b506002546001600160801b031690565b6002546001600160801b0316600061029c610669565b6000546001600160a01b0316331461039b5760408051600160e51b62461bcd0281526020600482015260136024820152600160681b72556e617574686f72697365642061636365737302604482015290519081900360640190fd5b600355565b608082901c156103fa5760408051600160e51b62461bcd02815260206004820152600f60248201527f56616c756520746f6f206c617267650000000000000000000000000000000000604482015290519081900360640190fd5b602081901c156104545760408051600160e51b62461bcd02815260206004820152600f60248201527f4e6f6e636520746f6f206c617267650000000000000000000000000000000000604482015290519081900360640190fd5b60c081901b82014260801b016002556001546001600160a01b0316156104dd57600160009054906101000a90046001600160a01b03166001600160a01b031663181783586040518163ffffffff1660e01b8152600401600060405180830381600087803b1580156104c457600080fd5b505af11580156104d8573d6000803e3d6000fd5b505050505b5050565b60025460801c6000816104f2610669565b80156104ff575060025415155b9150509091565b60025460c01c6000816104f2610669565b6000546001600160a01b031633146105725760408051600160e51b62461bcd0281526020600482015260136024820152600160681b72556e617574686f72697365642061636365737302604482015290519081900360640190fd5b600180546001600160a01b0319166001600160a01b03838116919091179182905560408051600160e11b63775b94330281529051929091169163eeb7286691600480820192602092909190829003018186803b1580156105d157600080fd5b505afa1580156105e5573d6000803e3d6000fd5b505050506040513d60208110156105fb57600080fd5b5051630da4b055146106575760408051600160e51b62461bcd02815260206004820152601060248201527f696e76616c696420736561726368657200000000000000000000000000000000604482015290519081900360640190fd5b50565b6000546001600160a01b031681565b6000806080600254901c67ffffffffffffffff16420390506003548110806106915750600354155b9150509056fea165627a7a72305820cd49924feaf5744375e9f102d5f6c6239e9fc716f46337b15d7f9561e88a1bc70029",
  "source": "pragma solidity ^0.5.0;\n\n// Searcher is an interface for contracts that want to be notified of incoming data\ncontract Searcher {\n\n    // poke is called when new data arrives     \n    function poke() public;\n\n    // this is called to ensure that only valid Searchers can be added to the Lighthouse - returns an arbitrarily chosen number\n    function identify() external pure returns(uint) {\n        return 0xda4b055;\n    }\n}\n\n// for operation of this contract see the readme file.\ncontract Lighthouse {\n\n    address public auth = msg.sender; // ownable model. No real value in making it transferrable.\n\n    Searcher seeker;                  // a single contract that can be notified of data changes\n\n    uint value = 9307;                       // holds all the data bit fiddled into a single 32 byte word.\n\n    uint maxAge;                      // if non zero, sets a limit to data validity\n\n/*--------------------------------- Admin Functions -----------------------------------------------*/\n\n    // Only allows an authorized address to call certain functions\n    modifier onlyAuth {\n        require(auth == msg.sender, \"Unauthorised access\");\n        _;\n    }\n\n    function changeAuth(address newAuth) public onlyAuth {\n        auth = newAuth;\n    }\n\n    function changeSearcher(Searcher newSeeker) public onlyAuth {\n        seeker = newSeeker;\n        require(seeker.identify() == 0xda4b055,\"invalid searcher\");\n    }\n\n    function setMaxAge(uint newMaxAge) public onlyAuth {\n        maxAge = newMaxAge;\n    }\n\n    // Writes a value into the lighthouse. Usually done by a rhombus oracle\n    function write(uint  DataValue, uint nonce) external {\n        require ((DataValue >> 128) == 0, \"Value too large\");\n        require ((nonce >> 32) == 0, \"Nonce too large\");\n        value = DataValue + (nonce << 192) + (now << 128) ;\n        if (address(seeker) != address(0)) {\n            seeker.poke();\n        }\n    }\n\n/*--------------------------------- Public Functions -----------------------------------------------*/\n\n    // Checks if data is within age limit\n    function notTooLongSinceUpdated() public view returns (bool) {\n        uint since = now - ((value >> 128) &\n        0x000000000000000000000000000000000000000000000000ffffffffffffffff);\n        return (since < maxAge) || (maxAge == 0);\n    }\n\n    // Obtains the data stored inside the lighthouse\n    function peekData() external view returns (uint128 v,bool b) {\n        v = uint128(value);\n        b = notTooLongSinceUpdated() && value != 0;\n        return (v, b);\n    }\n\n    function peekUpdated()  external view returns (uint32 v,bool b) {\n        uint v2 = value >> 128;\n        v = uint32(v2);\n        b = notTooLongSinceUpdated() && value != 0;\n        return (v, b);\n    }\n\n    function peekLastNonce() external view returns (uint32 v,bool b) {\n        uint v2 = value >> 192;\n        v = uint32(v2);\n        b = notTooLongSinceUpdated() && value != 0;\n        return (v, b);\n    }\n\n    function peek() external view returns (bytes32 v ,bool ok) {\n        v = bytes32(value & 0x00000000000000000000000000000000ffffffffffffffffffffffffffffffff);\n        ok = notTooLongSinceUpdated() && value != 0;\n        return (v, ok);\n    }\n\n    function read() external view returns (bytes32 x) {\n        require(notTooLongSinceUpdated() && value != 0, \"Invalid data stored\");\n        return bytes32(value & 0x00000000000000000000000000000000ffffffffffffffffffffffffffffffff);\n    }\n\n}",
  "sourcePath": "/Users/matiasbarrios/Desktop/luckyseven/contracts/Rhombus/Lighthouse.sol",
  "compiler": {
    "name": "solc",
    "version": "0.5.8+commit.23d335f2.Emscripten.clang"
  },
  "schemaVersion": "3.0.11",
  "updatedAt": "2019-08-01T03:34:33.253Z",
  "devdoc": {
    "methods": {}
  },
  "userdoc": {
    "methods": {}
  }
}