{
  "contractName": "Lucky7TicketFactory",
  "abi": [
    {
      "constant": true,
      "inputs": [
        {
          "name": "",
          "type": "uint256"
        }
      ],
      "name": "lucky7TicketID",
      "outputs": [
        {
          "name": "",
          "type": "uint256"
        }
      ],
      "payable": false,
      "stateMutability": "view",
      "type": "function"
    },
    {
      "constant": true,
      "inputs": [
        {
          "name": "",
          "type": "uint256"
        }
      ],
      "name": "lucky7TicketOwner",
      "outputs": [
        {
          "name": "",
          "type": "address"
        }
      ],
      "payable": false,
      "stateMutability": "view",
      "type": "function"
    },
    {
      "constant": true,
      "inputs": [],
      "name": "lastDelivery",
      "outputs": [
        {
          "name": "",
          "type": "uint256"
        }
      ],
      "payable": false,
      "stateMutability": "view",
      "type": "function"
    },
    {
      "constant": true,
      "inputs": [],
      "name": "settingLucky7Numbers",
      "outputs": [
        {
          "name": "",
          "type": "bool"
        }
      ],
      "payable": false,
      "stateMutability": "view",
      "type": "function"
    },
    {
      "constant": true,
      "inputs": [],
      "name": "n",
      "outputs": [
        {
          "name": "",
          "type": "string"
        }
      ],
      "payable": false,
      "stateMutability": "view",
      "type": "function"
    },
    {
      "constant": true,
      "inputs": [],
      "name": "lucky7Lighthouse",
      "outputs": [
        {
          "name": "",
          "type": "address"
        }
      ],
      "payable": false,
      "stateMutability": "view",
      "type": "function"
    },
    {
      "constant": true,
      "inputs": [],
      "name": "purchaseTicketPrice",
      "outputs": [
        {
          "name": "",
          "type": "uint256"
        }
      ],
      "payable": false,
      "stateMutability": "view",
      "type": "function"
    },
    {
      "constant": true,
      "inputs": [
        {
          "name": "",
          "type": "uint256"
        }
      ],
      "name": "lucky7TicketValue",
      "outputs": [
        {
          "name": "",
          "type": "uint256"
        }
      ],
      "payable": false,
      "stateMutability": "view",
      "type": "function"
    },
    {
      "constant": true,
      "inputs": [
        {
          "name": "",
          "type": "address"
        }
      ],
      "name": "userLastPurchasedTicket",
      "outputs": [
        {
          "name": "",
          "type": "uint256"
        }
      ],
      "payable": false,
      "stateMutability": "view",
      "type": "function"
    },
    {
      "constant": true,
      "inputs": [
        {
          "name": "",
          "type": "address"
        }
      ],
      "name": "userValues",
      "outputs": [
        {
          "name": "mu",
          "type": "string"
        },
        {
          "name": "i",
          "type": "string"
        },
        {
          "name": "ticketValue",
          "type": "uint256"
        },
        {
          "name": "muReady",
          "type": "bool"
        },
        {
          "name": "iReady",
          "type": "bool"
        },
        {
          "name": "userPaidTicket",
          "type": "bool"
        }
      ],
      "payable": false,
      "stateMutability": "view",
      "type": "function"
    },
    {
      "constant": true,
      "inputs": [],
      "name": "b",
      "outputs": [
        {
          "name": "",
          "type": "string"
        }
      ],
      "payable": false,
      "stateMutability": "view",
      "type": "function"
    },
    {
      "constant": true,
      "inputs": [],
      "name": "oraclizeGasLimit",
      "outputs": [
        {
          "name": "",
          "type": "uint256"
        }
      ],
      "payable": false,
      "stateMutability": "view",
      "type": "function"
    },
    {
      "constant": true,
      "inputs": [],
      "name": "ticketsGenerated",
      "outputs": [
        {
          "name": "",
          "type": "uint256"
        }
      ],
      "payable": false,
      "stateMutability": "view",
      "type": "function"
    },
    {
      "constant": true,
      "inputs": [],
      "name": "numberOfLucky7Numbers",
      "outputs": [
        {
          "name": "",
          "type": "uint256"
        }
      ],
      "payable": false,
      "stateMutability": "view",
      "type": "function"
    },
    {
      "constant": false,
      "inputs": [],
      "name": "renounceOwnership",
      "outputs": [],
      "payable": false,
      "stateMutability": "nonpayable",
      "type": "function"
    },
    {
      "constant": true,
      "inputs": [],
      "name": "owner",
      "outputs": [
        {
          "name": "",
          "type": "address"
        }
      ],
      "payable": false,
      "stateMutability": "view",
      "type": "function"
    },
    {
      "constant": true,
      "inputs": [],
      "name": "isOwner",
      "outputs": [
        {
          "name": "",
          "type": "bool"
        }
      ],
      "payable": false,
      "stateMutability": "view",
      "type": "function"
    },
    {
      "constant": true,
      "inputs": [],
      "name": "ticketsPurchased",
      "outputs": [
        {
          "name": "",
          "type": "uint256"
        }
      ],
      "payable": false,
      "stateMutability": "view",
      "type": "function"
    },
    {
      "constant": true,
      "inputs": [
        {
          "name": "",
          "type": "uint256"
        }
      ],
      "name": "lucky7NumbersArray",
      "outputs": [
        {
          "name": "mu",
          "type": "string"
        },
        {
          "name": "i",
          "type": "string"
        },
        {
          "name": "ticketValue",
          "type": "uint256"
        },
        {
          "name": "gameID",
          "type": "uint256"
        }
      ],
      "payable": false,
      "stateMutability": "view",
      "type": "function"
    },
    {
      "constant": true,
      "inputs": [],
      "name": "oraclizeCustomGasPrice",
      "outputs": [
        {
          "name": "",
          "type": "uint256"
        }
      ],
      "payable": false,
      "stateMutability": "view",
      "type": "function"
    },
    {
      "constant": true,
      "inputs": [],
      "name": "p",
      "outputs": [
        {
          "name": "",
          "type": "string"
        }
      ],
      "payable": false,
      "stateMutability": "view",
      "type": "function"
    },
    {
      "constant": true,
      "inputs": [],
      "name": "expectedPrize",
      "outputs": [
        {
          "name": "",
          "type": "uint256"
        }
      ],
      "payable": false,
      "stateMutability": "view",
      "type": "function"
    },
    {
      "constant": true,
      "inputs": [],
      "name": "localLighthouse",
      "outputs": [
        {
          "name": "",
          "type": "address"
        }
      ],
      "payable": false,
      "stateMutability": "view",
      "type": "function"
    },
    {
      "constant": true,
      "inputs": [
        {
          "name": "",
          "type": "uint256"
        }
      ],
      "name": "ticketsArray",
      "outputs": [
        {
          "name": "mu",
          "type": "string"
        },
        {
          "name": "i",
          "type": "string"
        },
        {
          "name": "ticketValue",
          "type": "uint256"
        },
        {
          "name": "owner",
          "type": "address"
        },
        {
          "name": "gameID",
          "type": "uint256"
        }
      ],
      "payable": false,
      "stateMutability": "view",
      "type": "function"
    },
    {
      "constant": true,
      "inputs": [],
      "name": "j",
      "outputs": [
        {
          "name": "",
          "type": "string"
        }
      ],
      "payable": false,
      "stateMutability": "view",
      "type": "function"
    },
    {
      "constant": true,
      "inputs": [],
      "name": "indexForLucky7Array",
      "outputs": [
        {
          "name": "",
          "type": "uint256"
        }
      ],
      "payable": false,
      "stateMutability": "view",
      "type": "function"
    },
    {
      "constant": true,
      "inputs": [
        {
          "name": "",
          "type": "uint256"
        }
      ],
      "name": "lucky7TicketsArray",
      "outputs": [
        {
          "name": "difference",
          "type": "uint256"
        },
        {
          "name": "owner",
          "type": "address"
        },
        {
          "name": "ticketID",
          "type": "uint256"
        },
        {
          "name": "ticketValue",
          "type": "uint256"
        },
        {
          "name": "lucky7Number",
          "type": "uint256"
        },
        {
          "name": "lucky7NumberID",
          "type": "uint256"
        },
        {
          "name": "gameID",
          "type": "uint256"
        },
        {
          "name": "prize",
          "type": "uint256"
        }
      ],
      "payable": false,
      "stateMutability": "view",
      "type": "function"
    },
    {
      "constant": true,
      "inputs": [],
      "name": "gameID",
      "outputs": [
        {
          "name": "",
          "type": "uint256"
        }
      ],
      "payable": false,
      "stateMutability": "view",
      "type": "function"
    },
    {
      "constant": true,
      "inputs": [],
      "name": "generateTicketPrice",
      "outputs": [
        {
          "name": "",
          "type": "uint256"
        }
      ],
      "payable": false,
      "stateMutability": "view",
      "type": "function"
    },
    {
      "constant": true,
      "inputs": [],
      "name": "validateDelivery",
      "outputs": [
        {
          "name": "",
          "type": "uint256"
        },
        {
          "name": "",
          "type": "bool"
        },
        {
          "name": "",
          "type": "bool"
        }
      ],
      "payable": false,
      "stateMutability": "view",
      "type": "function"
    },
    {
      "constant": true,
      "inputs": [],
      "name": "expectedGameTime",
      "outputs": [
        {
          "name": "",
          "type": "uint256"
        }
      ],
      "payable": false,
      "stateMutability": "view",
      "type": "function"
    },
    {
      "constant": true,
      "inputs": [
        {
          "name": "",
          "type": "uint256"
        }
      ],
      "name": "lucky7TicketDifference",
      "outputs": [
        {
          "name": "",
          "type": "uint256"
        }
      ],
      "payable": false,
      "stateMutability": "view",
      "type": "function"
    },
    {
      "constant": false,
      "inputs": [
        {
          "name": "newOwner",
          "type": "address"
        }
      ],
      "name": "transferOwnership",
      "outputs": [],
      "payable": false,
      "stateMutability": "nonpayable",
      "type": "function"
    },
    {
      "inputs": [
        {
          "name": "_lucky7Lighthouse",
          "type": "address"
        },
        {
          "name": "_isRhombusAvailable",
          "type": "bool"
        }
      ],
      "payable": true,
      "stateMutability": "payable",
      "type": "constructor"
    },
    {
      "payable": true,
      "stateMutability": "payable",
      "type": "fallback"
    },
    {
      "anonymous": false,
      "inputs": [
        {
          "indexed": false,
          "name": "mu",
          "type": "string"
        },
        {
          "indexed": false,
          "name": "i",
          "type": "string"
        },
        {
          "indexed": true,
          "name": "owner",
          "type": "address"
        },
        {
          "indexed": true,
          "name": "gameID",
          "type": "uint256"
        }
      ],
      "name": "GeneratedParametersReceived",
      "type": "event"
    },
    {
      "anonymous": false,
      "inputs": [
        {
          "indexed": false,
          "name": "ticketValue",
          "type": "uint256"
        },
        {
          "indexed": false,
          "name": "mu",
          "type": "string"
        },
        {
          "indexed": false,
          "name": "i",
          "type": "string"
        },
        {
          "indexed": false,
          "name": "ticketID",
          "type": "uint256"
        },
        {
          "indexed": true,
          "name": "owner",
          "type": "address"
        },
        {
          "indexed": true,
          "name": "gameID",
          "type": "uint256"
        }
      ],
      "name": "NewTicketReceived",
      "type": "event"
    },
    {
      "anonymous": false,
      "inputs": [
        {
          "indexed": false,
          "name": "ticketValue",
          "type": "uint256"
        },
        {
          "indexed": true,
          "name": "owner",
          "type": "address"
        },
        {
          "indexed": false,
          "name": "difference",
          "type": "uint256"
        },
        {
          "indexed": false,
          "name": "index",
          "type": "uint256"
        }
      ],
      "name": "NewLucky7Ticket",
      "type": "event"
    },
    {
      "anonymous": false,
      "inputs": [
        {
          "indexed": false,
          "name": "value",
          "type": "uint256"
        },
        {
          "indexed": false,
          "name": "index",
          "type": "uint256"
        }
      ],
      "name": "Lucky7NumberInserted",
      "type": "event"
    },
    {
      "anonymous": false,
      "inputs": [
        {
          "indexed": false,
          "name": "balance",
          "type": "uint256"
        }
      ],
      "name": "BalanceUpdated",
      "type": "event"
    },
    {
      "anonymous": false,
      "inputs": [
        {
          "indexed": false,
          "name": "settingLucky7Numbers",
          "type": "bool"
        }
      ],
      "name": "SettingNumbersChanged",
      "type": "event"
    },
    {
      "anonymous": false,
      "inputs": [
        {
          "indexed": false,
          "name": "wolframQuery",
          "type": "string"
        }
      ],
      "name": "NewWolframQuery",
      "type": "event"
    },
    {
      "anonymous": false,
      "inputs": [
        {
          "indexed": true,
          "name": "previousOwner",
          "type": "address"
        },
        {
          "indexed": true,
          "name": "newOwner",
          "type": "address"
        }
      ],
      "name": "OwnershipTransferred",
      "type": "event"
    },
    {
      "constant": false,
      "inputs": [],
      "name": "toggleLucky7Setting",
      "outputs": [],
      "payable": false,
      "stateMutability": "nonpayable",
      "type": "function"
    },
    {
      "constant": false,
      "inputs": [
        {
          "name": "_ticketOwner",
          "type": "address"
        }
      ],
      "name": "_askForMuParameter",
      "outputs": [],
      "payable": false,
      "stateMutability": "nonpayable",
      "type": "function"
    },
    {
      "constant": false,
      "inputs": [
        {
          "name": "_ticketOwner",
          "type": "address"
        }
      ],
      "name": "_askForIParameter",
      "outputs": [],
      "payable": false,
      "stateMutability": "nonpayable",
      "type": "function"
    },
    {
      "constant": false,
      "inputs": [
        {
          "name": "_ticketOwner",
          "type": "address"
        }
      ],
      "name": "_askForTicket",
      "outputs": [],
      "payable": false,
      "stateMutability": "nonpayable",
      "type": "function"
    },
    {
      "constant": false,
      "inputs": [
        {
          "name": "_ticketOwner",
          "type": "address"
        }
      ],
      "name": "_generateTicket",
      "outputs": [],
      "payable": false,
      "stateMutability": "nonpayable",
      "type": "function"
    },
    {
      "constant": false,
      "inputs": [
        {
          "name": "_ticketID",
          "type": "uint256"
        }
      ],
      "name": "_checkForLucky7Ticket",
      "outputs": [],
      "payable": false,
      "stateMutability": "nonpayable",
      "type": "function"
    },
    {
      "constant": false,
      "inputs": [
        {
          "name": "myid",
          "type": "bytes32"
        },
        {
          "name": "result",
          "type": "string"
        }
      ],
      "name": "__callback",
      "outputs": [],
      "payable": false,
      "stateMutability": "nonpayable",
      "type": "function"
    },
    {
      "constant": false,
      "inputs": [
        {
          "name": "_myid",
          "type": "bytes32"
        },
        {
          "name": "_result",
          "type": "string"
        },
        {
          "name": "_proof",
          "type": "bytes"
        }
      ],
      "name": "__callback",
      "outputs": [],
      "payable": false,
      "stateMutability": "nonpayable",
      "type": "function"
    }
  ],
  "bytecode": "0x60c0604052600160808190527f310000000000000000000000000000000000000000000000000000000000000060a0908152620000409160029190620002c8565b506040805180820190915260018082527f380000000000000000000000000000000000000000000000000000000000000060209092019182526200008791600391620002c8565b506040805180820190915260058082527f31303030300000000000000000000000000000000000000000000000000000006020909201918252620000ce91600491620002c8565b506040805180820190915260028082527f313000000000000000000000000000000000000000000000000000000000000060209092019182526200011591600591620002c8565b5060076006556611c37937e08000600755662386f26fc10000600855622dc6c06009556317d78400600a556000600b556000600c5568056bc75e2d63100000600d556224ea00600e556200016e620002b860201b60201c565b600f80546001600160a01b03929092166001600160a01b031990921691909117905560168054600160a81b60ff02191675010000000000000000000000000000000000000000001790556000603e819055603f819055604090815580519080620044b683398101806040526040811015620001e857600080fd5b508051602090910151600080546001600160a01b03191633178082556040516001600160a01b039190911691907f8be0079c531659141344cd1fd0a4f28419497f9722a3daafe3b4186f6b6457e0908290a34260015560118054736f485c8bf6fc43ea212e93bbf8ce046c7f1cb4756001600160a01b0319918216179091556015805482166001600160a01b0394909416938417905560168054909116909217600160a01b60ff02191674010000000000000000000000000000000000000000911515919091021790556200036a565b6000546001600160a01b03165b90565b828054600181600116156101000203166002900490600052602060002090601f016020900481019282601f106200030b57805160ff19168380011785556200033b565b828001600101855582156200033b579182015b828111156200033b5782518255916020019190600101906200031e565b50620003499291506200034d565b5090565b620002c591905b8082111562000349576000815560010162000354565b61413c806200037a6000396000f3fe6080604052600436106102465760003560e01c806377d8a83011610139578063b582ec5f116100b6578063ddc110fa1161007a578063ddc110fa14610be8578063e3d8e46d14610c1b578063e65ba4e314610c50578063e802ae1414610c65578063f2fde38b14610c8f578063fd9be1b214610cc257610246565b8063b582ec5f14610b21578063c56969ab14610b36578063c629dad914610b4b578063c7dd4b4f14610bbe578063d566bcf014610bd357610246565b80639ac2bf91116100fd5780639ac2bf91146109a85780639ae8886a146109bd578063a9438da9146109d2578063b4df152b146109e7578063b4f8eadd146109fc57610246565b806377d8a830146108205780638da5cb5b146108535780638f32d59b1461086857806390a7ba5b1461087d57806396853e131461089257610246565b806339df3f4f116101c75780634df7e3d01161018b5780634df7e3d0146107b757806350b9c428146107cc578063592ad739146107e157806359f9fe82146107f6578063715018a61461080b57610246565b806339df3f4f146105ff5780633a33fbfe1461061457806344d9a37414610629578063452db96d146106535780634acfd9b81461068657610246565b80632caf9eee1161020e5780632caf9eee146103cc5780632de729eb146103f55780632e52d6061461041f5780632f294bc9146104a957806338bbfa50146104be57610246565b806310cd4b8a146102485780631c3ed1d31461028457806323d370ba146102ca578063264adb05146102fd57806327dc297e14610312575b005b34801561025457600080fd5b506102726004803603602081101561026b57600080fd5b5035610cf5565b60408051918252519081900360200190f35b34801561029057600080fd5b506102ae600480360360208110156102a757600080fd5b5035610d07565b604080516001600160a01b039092168252519081900360200190f35b3480156102d657600080fd5b50610246600480360360208110156102ed57600080fd5b50356001600160a01b0316610d22565b34801561030957600080fd5b50610272610fab565b34801561031e57600080fd5b506102466004803603604081101561033557600080fd5b8135919081019060408101602082013564010000000081111561035757600080fd5b82018360208201111561036957600080fd5b8035906020019184600183028401116401000000008311171561038b57600080fd5b91908080601f016020809104026020016040519081016040528093929190818152602001838380828437600092019190915250929550610fb1945050505050565b3480156103d857600080fd5b506103e16113ff565b604080519115158252519081900360200190f35b34801561040157600080fd5b506102466004803603602081101561041857600080fd5b503561140f565b34801561042b57600080fd5b50610434611742565b6040805160208082528351818301528351919283929083019185019080838360005b8381101561046e578181015183820152602001610456565b50505050905090810190601f16801561049b5780820380516001836020036101000a031916815260200191505b509250505060405180910390f35b3480156104b557600080fd5b506102ae6117d0565b3480156104ca57600080fd5b50610246600480360360608110156104e157600080fd5b8135919081019060408101602082013564010000000081111561050357600080fd5b82018360208201111561051557600080fd5b8035906020019184600183028401116401000000008311171561053757600080fd5b91908080601f016020809104026020016040519081016040528093929190818152602001838380828437600092019190915250929594936020810193503591505064010000000081111561058a57600080fd5b82018360208201111561059c57600080fd5b803590602001918460018302840111640100000000831117156105be57600080fd5b91908080601f0160208091040260200160405190810160405280939291908181526020018383808284376000920191909152509295506117df945050505050565b34801561060b57600080fd5b50610246611810565b34801561062057600080fd5b506102726118ce565b34801561063557600080fd5b506102726004803603602081101561064c57600080fd5b50356118d4565b34801561065f57600080fd5b506102726004803603602081101561067657600080fd5b50356001600160a01b03166118e6565b34801561069257600080fd5b506106b9600480360360208110156106a957600080fd5b50356001600160a01b03166118f8565b604080519081018590528315156060820152821515608082015281151560a082015260c08082528751908201528651819060208083019160e08401918b019080838360005b838110156107165781810151838201526020016106fe565b50505050905090810190601f1680156107435780820380516001836020036101000a031916815260200191505b5083810382528851815288516020918201918a019080838360005b8381101561077657818101518382015260200161075e565b50505050905090810190601f1680156107a35780820380516001836020036101000a031916815260200191505b509850505050505050505060405180910390f35b3480156107c357600080fd5b50610434611a58565b3480156107d857600080fd5b50610272611ab0565b3480156107ed57600080fd5b50610272611ab6565b34801561080257600080fd5b50610272611abc565b34801561081757600080fd5b50610246611ac2565b34801561082c57600080fd5b506102466004803603602081101561084357600080fd5b50356001600160a01b0316611b68565b34801561085f57600080fd5b506102ae611b7d565b34801561087457600080fd5b506103e1611b8d565b34801561088957600080fd5b50610272611b9e565b34801561089e57600080fd5b506108bc600480360360208110156108b557600080fd5b5035611ba4565b604051808060200180602001858152602001848152602001838103835287818151815260200191508051906020019080838360005b838110156109095781810151838201526020016108f1565b50505050905090810190601f1680156109365780820380516001836020036101000a031916815260200191505b50838103825286518152865160209182019188019080838360005b83811015610969578181015183820152602001610951565b50505050905090810190601f1680156109965780820380516001836020036101000a031916815260200191505b50965050505050505060405180910390f35b3480156109b457600080fd5b50610272611cf0565b3480156109c957600080fd5b50610434611cf6565b3480156109de57600080fd5b50610272611d51565b3480156109f357600080fd5b506102ae611d57565b348015610a0857600080fd5b50610a2660048036036020811015610a1f57600080fd5b5035611d66565b604080519081018490526001600160a01b03831660608201526080810182905260a08082528651908201528551819060208083019160c08401918a019080838360005b83811015610a81578181015183820152602001610a69565b50505050905090810190601f168015610aae5780820380516001836020036101000a031916815260200191505b50838103825287518152875160209182019189019080838360005b83811015610ae1578181015183820152602001610ac9565b50505050905090810190601f168015610b0e5780820380516001836020036101000a031916815260200191505b5097505050505050505060405180910390f35b348015610b2d57600080fd5b50610434611ed2565b348015610b4257600080fd5b50610272611f2d565b348015610b5757600080fd5b50610b7560048036036020811015610b6e57600080fd5b5035611f33565b604080519889526001600160a01b039097166020890152878701959095526060870193909352608086019190915260a085015260c084015260e083015251908190036101000190f35b348015610bca57600080fd5b50610272611f90565b348015610bdf57600080fd5b50610272611f96565b348015610bf457600080fd5b5061024660048036036020811015610c0b57600080fd5b50356001600160a01b0316611f9c565b348015610c2757600080fd5b50610c30612015565b604080519384529115156020840152151582820152519081900360600190f35b348015610c5c57600080fd5b50610272612051565b348015610c7157600080fd5b5061027260048036036020811015610c8857600080fd5b5035612057565b348015610c9b57600080fd5b5061024660048036036020811015610cb257600080fd5b50356001600160a01b0316612069565b348015610cce57600080fd5b5061024660048036036020811015610ce557600080fd5b50356001600160a01b03166120ce565b603d6020526000908152604090205481565b603b602052600090815260409020546001600160a01b031681565b610d2d600a54612174565b60155460408051600160e11b632105c0fb028152815160009384936001600160a01b039091169263420b81f69260048083019392829003018186803b158015610d7557600080fd5b505afa158015610d89573d6000803e3d6000fd5b505050506040513d6040811015610d9f57600080fd5b50805160209182015160408051600160e01b6310645d810281526fffffffffffffffffffffffffffffffff909316600484018190529051909550909350610e489273__Lucky7Library_________________________926310645d819260248083019392829003018186803b158015610e1757600080fd5b505af4158015610e2b573d6000803e3d6000fd5b505050506040513d6020811015610e4157600080fd5b5051612347565b6001600160a01b03841660009081526036602090815260409091208251610e759391929190910190614016565b506001600160a01b0383166000908152603660205260409020600301805460ff19166001179055601654600160a01b900460ff16610fa657600073__Lucky7Library_________________________6310645d816040546040518263ffffffff1660e01b81526004018082815260200191505060206040518083038186803b158015610f0057600080fd5b505af4158015610f14573d6000803e3d6000fd5b505050506040513d6020811015610f2a57600080fd5b50516040805460010181556016548151600160e11b634e071fbd0281526004810184905260006024820181905292519394506001600160a01b0390911692639c0e3f7a9260448084019391929182900301818387803b158015610f8c57600080fd5b505af1158015610fa0573d6000803e3d6000fd5b50505050505b505050565b60015481565b610fb961240d565b6001600160a01b0316336001600160a01b031614610fd657600080fd5b604080513031815290517f04be25a4c0fe4c39136ca055daaac08ac6b3041b2e1f2a1b698bac12f1cbdc4a9181900360200190a16000828152603860205260409020546001600160a01b03161580159061105d57506000828152603860209081526040808320546001600160a01b031683526036909152902060030154610100900460ff16155b156112e1576000828152603860209081526040808320546001600160a01b0316835260368252909120825161109a92600190920191840190614016565b50600082815260386020908152604080832080546001600160a01b03908116855260369093528184206003908101805461ff00191661010017905590549092168352909120015460ff161515600114156112dc576000828152603860209081526040808320546001600160a01b03168352603690915290206003015460ff62010000909104161515600114156111505760008281526038602052604090205461114b906001600160a01b0316611f9c565b6112a4565b603e546000838152603860209081526040808320546001600160a01b031680845260368352928190208151828152815460026101006001808416159190910260001901909216049382018490527f6f6a595f1625060fd0f882e953621a1d74eda187446f39622246322aa887c9029492939084019282919082019060608301908690801561121f5780601f106111f45761010080835404028352916020019161121f565b820191906000526020600020905b81548152906001019060200180831161120257829003601f168201915b50508381038252845460026000196101006001841615020190911604808252602090910190859080156112935780601f1061126857610100808354040283529160200191611293565b820191906000526020600020905b81548152906001019060200180831161127657829003601f168201915b505094505050505060405180910390a35b601654600160a81b900460ff161515600114156112dc576000828152603860205260409020546112dc906001600160a01b0316611f9c565b6113fb565b6000828152603960205260409020546001600160a01b03161580159061135257506000828152603960209081526040808320546001600160a01b03168352603690915290206003015460ff62010000909104161515600114806113525750601654600160a81b900460ff1615156001145b156113fb57611360816125f7565b600083815260396020908152604080832080546001600160a01b039081168552603690935281842060020194909455925416815220600301805462ff000019169055601654600160a81b900460ff161515600114156113da576000828152603960205260409020546112dc906001600160a01b031661260a565b6000828152603960205260409020546113fb906001600160a01b031661287d565b5050565b601654600160a81b900460ff1681565b600080601a6001600654036007811061142457fe5b60040201600201546018848154811061143957fe5b90600052602060002090600502016002015411156114a557600160065403915061149e601a836007811061146957fe5b60040201600201546018858154811061147e57fe5b906000526020600020906005020160020154612c4290919063ffffffff16565b905061161a565b601c5460188054859081106114b657fe5b9060005260206000209060050201600201541015611517576000915061149e601884815481106114e257fe5b906000526020600020906005020160020154601a846007811061150157fe5b6004020160020154612c4290919063ffffffff16565b601a826007811061152457fe5b60040201600201546018848154811061153957fe5b906000526020600020906005020160020154111561155c57600190910190611517565b601a826007811061156957fe5b60040201600201546018848154811061157e57fe5b906000526020600020906005020160020154141561159e5750600061161a565b60006115c8601a60018503600781106115b357fe5b60040201600201546018868154811061147e57fe5b905060006115fb601886815481106115dc57fe5b906000526020600020906005020160020154601a866007811061150157fe5b90508181111561161357600184039350819250611617565b8092505b50505b6000828152603b60205260409020546001600160a01b0316158061164b57506000828152603a602052604090205481105b15610fa6576018838154811061165d57fe5b6000918252602080832060036005909302019190910154848352603b8252604080842080546001600160a01b0319166001600160a01b0390931692909217909155603a8252808320849055603d909152902083905560188054849081106116c057fe5b6000918252602080832060026005909302019190910154848352603c8083526040808520839055603b84529384902054908352835191825291810184905280830185905291516001600160a01b03909116917f3aba55b4f09d935ff9a3c49a2fc37832dde4fde12062957a9d261357f3c4a982919081900360600190a2505050565b6003805460408051602060026001851615610100026000190190941693909304601f810184900484028201840190925281815292918301828280156117c85780601f1061179d576101008083540402835291602001916117c8565b820191906000526020600020905b8154815290600101906020018083116117ab57829003601f168201915b505050505081565b6015546001600160a01b031681565b5050600080805260136020527f8fa6efc3be94b5b348b21fea823fe8d100408cee9b7f90524494500445d8ff6c5550565b611818611b8d565b61186c5760408051600160e51b62461bcd02815260206004820181905260248201527f4f776e61626c653a2063616c6c6572206973206e6f7420746865206f776e6572604482015290519081900360640190fd5b6016805460ff600160a81b8083048216158102600160a81b60ff021990931692909217928390556040805192909304161515815290517f7632252ebff214b4969a92f7ca8290a9aa92e8dbea9b95ae49a7ea372c0860269181900360200190a1565b60085481565b603c6020526000908152604090205481565b60196020526000908152604090205481565b60366020908152600091825260409182902080548351601f6002600019610100600186161502019093169290920491820184900484028101840190945280845290929183919083018282801561198f5780601f106119645761010080835404028352916020019161198f565b820191906000526020600020905b81548152906001019060200180831161197257829003601f168201915b505050505090806001018054600181600116156101000203166002900480601f016020809104026020016040519081016040528092919081815260200182805460018160011615610100020316600290048015611a2d5780601f10611a0257610100808354040283529160200191611a2d565b820191906000526020600020905b815481529060010190602001808311611a1057829003601f168201915b50505050600283015460039093015491929160ff808216925061010082048116916201000090041686565b6002805460408051602060018416156101000260001901909316849004601f810184900484028201840190925281815292918301828280156117c85780601f1061179d576101008083540402835291602001916117c8565b60095481565b600b5481565b60065481565b611aca611b8d565b611b1e5760408051600160e51b62461bcd02815260206004820181905260248201527f4f776e61626c653a2063616c6c6572206973206e6f7420746865206f776e6572604482015290519081900360640190fd5b600080546040516001600160a01b03909116907f8be0079c531659141344cd1fd0a4f28419497f9722a3daafe3b4186f6b6457e0908390a3600080546001600160a01b0319169055565b611b7181610d22565b611b7a816120ce565b50565b6000546001600160a01b03165b90565b6000546001600160a01b0316331490565b600c5481565b601a8160078110611bb157fe5b60040201805460408051602060026001851615610100026000190190941693909304601f81018490048402820184019092528181529293508391830182828015611c3c5780601f10611c1157610100808354040283529160200191611c3c565b820191906000526020600020905b815481529060010190602001808311611c1f57829003601f168201915b505050505090806001018054600181600116156101000203166002900480601f016020809104026020016040519081016040528092919081815260200182805460018160011615610100020316600290048015611cda5780601f10611caf57610100808354040283529160200191611cda565b820191906000526020600020905b815481529060010190602001808311611cbd57829003601f168201915b5050505050908060020154908060030154905084565b600a5481565b6004805460408051602060026001851615610100026000190190941693909304601f810184900484028201840190925281815292918301828280156117c85780601f1061179d576101008083540402835291602001916117c8565b600d5481565b6016546001600160a01b031681565b60188181548110611d7357fe5b60009182526020918290206005919091020180546040805160026001841615610100026000190190931692909204601f810185900485028301850190915280825291935091839190830182828015611e0c5780601f10611de157610100808354040283529160200191611e0c565b820191906000526020600020905b815481529060010190602001808311611def57829003601f168201915b505050505090806001018054600181600116156101000203166002900480601f016020809104026020016040519081016040528092919081815260200182805460018160011615610100020316600290048015611eaa5780601f10611e7f57610100808354040283529160200191611eaa565b820191906000526020600020905b815481529060010190602001808311611e8d57829003601f168201915b5050505060028301546003840154600490940154929390926001600160a01b03909116915085565b6005805460408051602060026001851615610100026000190190941693909304601f810184900484028201840190925281815292918301828280156117c85780601f1061179d576101008083540402835291602001916117c8565b603f5481565b60178181548110611f4057fe5b6000918252602090912060089091020180546001820154600283015460038401546004850154600586015460068701546007909701549597506001600160a01b0390941695929491939092909188565b603e5481565b60075481565b611fa7600a54612174565b6000611fe56040518060400160405280600c8152602001600160a01b6b576f6c6672616d416c70686102815250611fdd84612ca2565b60095461350b565b600090815260396020526040902080546001600160a01b0319166001600160a01b03939093169290921790915550565b600a54600954600754600854600b54600c54600d54600e5460015496909702938490039190910292909303020192908310159101421015909192565b600e5481565b603a6020526000908152604090205481565b612071611b8d565b6120c55760408051600160e51b62461bcd02815260206004820181905260248201527f4f776e61626c653a2063616c6c6572206973206e6f7420746865206f776e6572604482015290519081900360640190fd5b611b7a816138e0565b6120d9600a54612174565b60006121446040518060400160405280600c8152602001600160a01b6b576f6c6672616d416c706861028152506040518060400160405280600f81526020017f342072616e646f6d206e756d626572000000000000000000000000000000000081525060095461350b565b600090815260386020526040902080546001600160a01b0319166001600160a01b03939093169290921790915550565b6011546001600160a01b0316158061219e575060115461219c906001600160a01b0316613983565b155b156121af576121ad6000613987565b505b601160009054906101000a90046001600160a01b03166001600160a01b03166338cc48316040518163ffffffff1660e01b8152600401602060405180830381600087803b1580156121ff57600080fd5b505af1158015612213573d6000803e3d6000fd5b505050506040513d602081101561222957600080fd5b50516010546001600160a01b039081169116146122dc57601160009054906101000a90046001600160a01b03166001600160a01b03166338cc48316040518163ffffffff1660e01b8152600401602060405180830381600087803b15801561229057600080fd5b505af11580156122a4573d6000803e3d6000fd5b505050506040513d60208110156122ba57600080fd5b5051601080546001600160a01b0319166001600160a01b039092169190911790555b60105460408051600160e21b63329ab4790281526004810184905290516001600160a01b039092169163ca6ad1e49160248082019260009290919082900301818387803b15801561232c57600080fd5b505af1158015612340573d6000803e3d6000fd5b5050505050565b60608161236f57506040805180820190915260018152600160fc1b6003026020820152612408565b8160005b811561238757600101600a82049150612373565b6060816040519080825280601f01601f1916602001820160405280156123b4576020820181803883390190505b50905060001982015b851561240257600a860660300160f81b828280600190039350815181106123e057fe5b60200101906001600160f81b031916908160001a905350600a860495506123bd565b50925050505b919050565b6011546000906001600160a01b0316158061243a5750601154612438906001600160a01b0316613983565b155b1561244b576124496000613987565b505b601160009054906101000a90046001600160a01b03166001600160a01b03166338cc48316040518163ffffffff1660e01b8152600401602060405180830381600087803b15801561249b57600080fd5b505af11580156124af573d6000803e3d6000fd5b505050506040513d60208110156124c557600080fd5b50516010546001600160a01b0390811691161461257857601160009054906101000a90046001600160a01b03166001600160a01b03166338cc48316040518163ffffffff1660e01b8152600401602060405180830381600087803b15801561252c57600080fd5b505af1158015612540573d6000803e3d6000fd5b505050506040513d602081101561255657600080fd5b5051601080546001600160a01b0319166001600160a01b039092169190911790555b601060009054906101000a90046001600160a01b03166001600160a01b031663c281d19e6040518163ffffffff1660e01b815260040160206040518083038186803b1580156125c657600080fd5b505afa1580156125da573d6000803e3d6000fd5b505050506040513d60208110156125f057600080fd5b5051905090565b6000612604826000613991565b92915050565b604080516001600160a01b03831660009081526036602090815290839020805460026001821615610100026000190190911604601f8101839004909202830160a0908101909452608083018281529293849392908401828280156126af5780601f10612684576101008083540402835291602001916126af565b820191906000526020600020905b81548152906001019060200180831161269257829003601f168201915b5050505050815260200160366000846001600160a01b03166001600160a01b031681526020019081526020016000206001018054600181600116156101000203166002900480601f0160208091040260200160405190810160405280929190818152602001828054600181600116156101000203166002900480156127755780601f1061274a57610100808354040283529160200191612775565b820191906000526020600020905b81548152906001019060200180831161275857829003601f168201915b50505091835250506001600160a01b0383166000908152603660209081526040918290206002015490830152603e54910152603f54601a90600781106127b757fe5b6004020160008201518160000190805190602001906127d7929190614016565b5060208281015180516127f09260018501920190614016565b5060408201518160020155606082015181600301559050507f205b10e6817754ae69619fe35e2b49c3c9246b795133b40533171497a81e371360366000836001600160a01b03166001600160a01b0316815260200190815260200160002060020154603f54604051808381526020018281526020019250505060405180910390a150603f80546001019055565b612885614094565b6001600160a01b0382166000908152603660209081526040918290208251815460026001821615610100026000190190911604601f8101849004909302810160e090810190945260c0810183815290939192849284919084018282801561292d5780601f106129025761010080835404028352916020019161292d565b820191906000526020600020905b81548152906001019060200180831161291057829003601f168201915b50505050508152602001600182018054600181600116156101000203166002900480601f0160208091040260200160405190810160405280929190818152602001828054600181600116156101000203166002900480156129cf5780601f106129a4576101008083540402835291602001916129cf565b820191906000526020600020905b8154815290600101906020018083116129b257829003601f168201915b5050509183525050600282015460208083019190915260039092015460ff8082161515604080850191909152610100830482161515606080860191909152620100009093049091161515608093840152805160a08101825285518152858501518186015285820151918101919091526001600160a01b03871691810191909152603e54918101919091526018805460018181018084556000938452845180519798509396919590949360059093027fb13d2d76d1f4b7be834882e410b3e3a8afaf69f83600ae24db354391d2378d2e0192612ab09284929190910190614016565b506020828101518051612ac99260018501920190614016565b506040820151816002015560608201518160030160006101000a8154816001600160a01b0302191690836001600160a01b03160217905550608082015181600401555050039050603e54836001600160a01b03167f55e46bc67aa8ca9c625f4e25d40ab91d3e3878a23e0baff870cb4bc532cd9d6684604001518560000151866020015186604051808581526020018060200180602001848152602001838103835286818151815260200191508051906020019080838360005b83811015612b9b578181015183820152602001612b83565b50505050905090810190601f168015612bc85780820380516001836020036101000a031916815260200191505b50838103825285518152855160209182019187019080838360005b83811015612bfb578181015183820152602001612be3565b50505050905090810190601f168015612c285780820380516001836020036101000a031916815260200191505b50965050505050505060405180910390a3610fa68161140f565b600082821115612c9c5760408051600160e51b62461bcd02815260206004820152601e60248201527f536166654d6174683a207375627472616374696f6e206f766572666c6f770000604482015290519081900360640190fd5b50900390565b604080518082018252600c81527f286d6f642828312f2831305e000000000000000000000000000000000000000060208083019190915260038054845160026001831615610100026000190190921691909104601f81018490048402820184019095528481526060948594612e4f9490939190830182828015612d665780601f10612d3b57610100808354040283529160200191612d66565b820191906000526020600020905b815481529060010190602001808311612d4957829003601f168201915b50506040805180820182526001808252600160f81b602d026020808401919091526001600160a01b038d1660009081526036825284902080548551600294821615610100026000190190911693909304601f8101839004830284018301909552848352929650909450909250830182828015612e235780601f10612df857610100808354040283529160200191612e23565b820191906000526020600020905b815481529060010190602001808311612e0657829003601f168201915b5050505050604051806040016040528060068152602001600160d11b6514949518982f02815250613a82565b60048054604080516020601f60026000196101006001881615020190951694909404938401819004810282018101909252828152939450612fb393859390929091830182828015612ee15780601f10612eb657610100808354040283529160200191612ee1565b820191906000526020600020905b815481529060010190602001808311612ec457829003601f168201915b50506040805180820182526005808252600160db1b640586260bc5026020808401919091528154845160026001831615610100026000190190921691909104601f81018390048302820183019095528481529296509194509250830182828015612f8c5780601f10612f6157610100808354040283529160200191612f8c565b820191906000526020600020905b815481529060010190602001808311612f6f57829003601f168201915b5050505050604051806040016040528060018152602001600160f81b602b02815250613a82565b905061315e8160366000866001600160a01b03166001600160a01b031681526020019081526020016000206001018054600181600116156101000203166002900480601f0160208091040260200160405190810160405280929190818152602001828054600181600116156101000203166002900480156130755780601f1061304a57610100808354040283529160200191613075565b820191906000526020600020905b81548152906001019060200180831161305857829003601f168201915b5050604080518082018252600e81527f29292d6d6f642828312f2831305e00000000000000000000000000000000000060208083019190915260038054845160026001831615610100026000190190921691909104601f81018490048402820184019095528481529296509194509092508301828280156131375780601f1061310c57610100808354040283529160200191613137565b820191906000526020600020905b81548152906001019060200180831161311a57829003601f168201915b5050505050604051806040016040528060018152602001600160f81b602d02815250613a82565b6001600160a01b03841660009081526036602090815260409182902080548351601f600260001961010060018616150201909316929092049182018490048402810184019094528084529394506132db938593928301828280156132035780601f106131d857610100808354040283529160200191613203565b820191906000526020600020905b8154815290600101906020018083116131e657829003601f168201915b505060408051808201825260068152600160d11b6514949518982f0260208083019190915260048054845160026001831615610100026000190190921691909104601f81018490048402820184019095528481529296509194509092508301828280156132b15780601f10613286576101008083540402835291602001916132b1565b820191906000526020600020905b81548152906001019060200180831161329457829003601f168201915b5050505050604051806040016040528060048152602001600160e11b631618982f02815250613a82565b6040805180820182526001808252600160fb1b6005026020808401919091526001600160a01b038816600090815260368252849020820180548551600294821615610100026000190190911693909304601f810183900483028401830190955284835294955061346a948694909183018282801561339a5780601f1061336f5761010080835404028352916020019161339a565b820191906000526020600020905b81548152906001019060200180831161337d57829003601f168201915b505060408051808201825260078152600160c91b661494949798982f026020808301919091526001600160a01b038d16600090815260368252839020600190810180548551600293821615610100026000190190911692909204601f810184900484028301840190955284825292965094509092508301828280156134605780601f1061343557610100808354040283529160200191613460565b820191906000526020600020905b81548152906001019060200180831161344357829003601f168201915b5050505050613a82565b90507f261af219212047633bb60c8d0cc7e33d217c38edf6fa7e53acb97a3f94180de5816040518080602001828103825283818151815260200191508051906020019080838360005b838110156134cb5781810151838201526020016134b3565b50505050905090810190601f1680156134f85780820380516001836020036101000a031916815260200191505b509250505060405180910390a192915050565b6011546000906001600160a01b031615806135385750601154613536906001600160a01b0316613983565b155b15613549576135476000613987565b505b601160009054906101000a90046001600160a01b03166001600160a01b03166338cc48316040518163ffffffff1660e01b8152600401602060405180830381600087803b15801561359957600080fd5b505af11580156135ad573d6000803e3d6000fd5b505050506040513d60208110156135c357600080fd5b50516010546001600160a01b0390811691161461367657601160009054906101000a90046001600160a01b03166001600160a01b03166338cc48316040518163ffffffff1660e01b8152600401602060405180830381600087803b15801561362a57600080fd5b505af115801561363e573d6000803e3d6000fd5b505050506040513d602081101561365457600080fd5b5051601080546001600160a01b0319166001600160a01b039092169190911790555b60105460408051600160e21b630bbceb3302815260248101859052600481019182528651604482015286516000936001600160a01b031692632ef3accc928992889291829160649091019060208601908083838c5b838110156136e35781810151838201526020016136cb565b50505050905090810190601f1680156137105780820380516001836020036101000a031916815260200191505b509350505050602060405180830381600087803b15801561373057600080fd5b505af1158015613744573d6000803e3d6000fd5b505050506040513d602081101561375a57600080fd5b50519050670de0b6b3a76400003a84020181111561377c5750600090506138d9565b601054604051600160e01b63c51be90f028152600060048201818152606483018790526080602484019081528951608485015289516001600160a01b039095169463c51be90f948794938c938c938c93604481019160a49091019060208801908083838c5b838110156137f95781810151838201526020016137e1565b50505050905090810190601f1680156138265780820380516001836020036101000a031916815260200191505b50838103825285518152855160209182019187019080838360005b83811015613859578181015183820152602001613841565b50505050905090810190601f1680156138865780820380516001836020036101000a031916815260200191505b5096505050505050506020604051808303818588803b1580156138a857600080fd5b505af11580156138bc573d6000803e3d6000fd5b50505050506040513d60208110156138d357600080fd5b50519150505b9392505050565b6001600160a01b03811661392857604051600160e51b62461bcd0281526004018080602001828103825260268152602001806140eb6026913960400191505060405180910390fd5b600080546040516001600160a01b03808516939216917f8be0079c531659141344cd1fd0a4f28419497f9722a3daafe3b4186f6b6457e091a3600080546001600160a01b0319166001600160a01b0392909216919091179055565b3b90565b6000612604613c96565b6000828180805b8351811015613a695760308482815181106139af57fe5b602001015160f81c60f81b60f81c60ff16101580156139eb575060398482815181106139d757fe5b602001015160f81c60f81b60f81c60ff1611155b15613a37578115613a085785613a0057613a69565b600019909501945b600a830292506030848281518110613a1c57fe5b602001015160f81c60f81b60f81c60ff160383019250613a61565b838181518110613a4357fe5b602001015160f81c60f81b60f81c60ff16602e1415613a6157600191505b600101613998565b508415613a795784600a0a820291505b50949350505050565b6060808690506060869050606086905060608690506060869050606081518351855187518951010101016040519080825280601f01601f191660200182016040528015613ad6576020820181803883390190505b509050806000805b8851811015613b2f57888181518110613af357fe5b602001015160f81c60f81b838380600101945081518110613b1057fe5b60200101906001600160f81b031916908160001a905350600101613ade565b5060005b8751811015613b8457878181518110613b4857fe5b602001015160f81c60f81b838380600101945081518110613b6557fe5b60200101906001600160f81b031916908160001a905350600101613b33565b5060005b8651811015613bd957868181518110613b9d57fe5b602001015160f81c60f81b838380600101945081518110613bba57fe5b60200101906001600160f81b031916908160001a905350600101613b88565b5060005b8551811015613c2e57858181518110613bf257fe5b602001015160f81c60f81b838380600101945081518110613c0f57fe5b60200101906001600160f81b031916908160001a905350600101613bdd565b5060005b8451811015613c8357848181518110613c4757fe5b602001015160f81c60f81b838380600101945081518110613c6457fe5b60200101906001600160f81b031916908160001a905350600101613c32565b50909d9c50505050505050505050505050565b600080613cb6731d3b2638a7cc9f2cb3d298a3da7a90b67e5506ed613983565b1115613d1857601180546001600160a01b031916731d3b2638a7cc9f2cb3d298a3da7a90b67e5506ed17905560408051808201909152600b8152600160aa1b6a195d1a17db585a5b9b995d026020820152613d1090614007565b506001611b8a565b6000613d3773c03a2615d5efaf5f49f60b7bb6583eaec212fdf1613983565b1115613da057601180546001600160a01b03191673c03a2615d5efaf5f49f60b7bb6583eaec212fdf117905560408051808201909152600c81527f6574685f726f707374656e3300000000000000000000000000000000000000006020820152613d1090614007565b6000613dbf73b7a07bcf2ba2f2703b24c0691b5278999c59ac7e613983565b1115613e1757601180546001600160a01b03191673b7a07bcf2ba2f2703b24c0691b5278999c59ac7e1790556040805180820190915260098152600160b91b6832ba342fb5b7bb30b7026020820152613d1090614007565b6000613e3673146500cfd35b22e4a392fe0adc06de1a1368ed48613983565b1115613e9057601180546001600160a01b03191673146500cfd35b22e4a392fe0adc06de1a1368ed4817905560408051808201909152600b8152600160a81b6a6574685f72696e6b656279026020820152613d1090614007565b6000613eaf73a2998efd205fb9d4b4963afb70778d6354ad3a41613983565b1115613f0857601180546001600160a01b03191673a2998efd205fb9d4b4963afb70778d6354ad3a4117905560408051808201909152600a8152600160b01b696574685f676f65726c69026020820152613d1090614007565b6000613f27736f485c8bf6fc43ea212e93bbf8ce046c7f1cb475613983565b1115613f5b5750601180546001600160a01b031916736f485c8bf6fc43ea212e93bbf8ce046c7f1cb4751790556001611b8a565b6000613f7a7320e12a1f859b3feae5fb2a0a32c18f5a65555bbf613983565b1115613fae5750601180546001600160a01b0319167320e12a1f859b3feae5fb2a0a32c18f5a65555bbf1790556001611b8a565b6000613fcd7351efaf4c8b3c9afbd5ab9f4bbc82784ab6ef8faa613983565b11156140015750601180546001600160a01b0319167351efaf4c8b3c9afbd5ab9f4bbc82784ab6ef8faa1790556001611b8a565b50600090565b80516113fb9060129060208401905b828054600181600116156101000203166002900490600052602060002090601f016020900481019282601f1061405757805160ff1916838001178555614084565b82800160010185558215614084579182015b82811115614084578251825591602001919060010190614069565b506140909291506140d0565b5090565b6040518060c001604052806060815260200160608152602001600081526020016000151581526020016000151581526020016000151581525090565b611b8a91905b8082111561409057600081556001016140d656fe4f776e61626c653a206e6577206f776e657220697320746865207a65726f2061646472657373a165627a7a723058204021864ff7ec82d028198fe9698dbb150ccc712c883ae89e354b8cb53f74eed10029",
  "source": "/**\n * @author Matias Barrios\n * @version 1.0\n */\n\n/** @title Lucky7TicketFactor.\n * This contract contains all the functions to generate tickets and Lucky7Numbers.\n * Inherits from Lucky7Admin and usingOraclize to do the oraclize querys.\n */\n\npragma solidity ^ 0.5 .0;\nimport \"./Oraclize.sol\";\nimport \"./Lucky7Admin.sol\";\nimport \"./Lucky7Library.sol\";\nimport \"./Rhombus/ILighthouse.sol\";\nimport \"./Rhombus/Lighthouse.sol\";\n\ncontract Lucky7TicketFactory is Lucky7Admin, usingOraclize {\n  /** @dev SafeMath library is used for the _checkForLucky7Ticket of this contract.\n   */\n  using SafeMath\n  for uint256;\n\n  /** @dev Events\n   */\n  event GeneratedParametersReceived(string mu, string i, address indexed owner, uint indexed gameID);\n  event NewTicketReceived(uint ticketValue, string mu, string i, uint ticketID, address indexed owner, uint indexed gameID);\n  event NewLucky7Ticket(uint ticketValue, address indexed owner, uint difference, uint index);\n  event Lucky7NumberInserted(uint value, uint index);\n  event BalanceUpdated(uint balance);\n  /** @dev The constructor needs to set the OAR, Oraclize Address Resolver\n   * OAR is the Oraclize Address Resolver to use oraclize on localhost\n   */\n  ILighthouse public lucky7Lighthouse;\n  Lighthouse public localLighthouse;\n  bool isRhombusAvailable;\n\n  constructor(address _lucky7Lighthouse, bool _isRhombusAvailable) public payable {\n    OAR = OraclizeAddrResolverI(0x6f485C8BF6fc43eA212E93BBF8ce046C7f1cb475);\n    lucky7Lighthouse = ILighthouse(_lucky7Lighthouse);\n    localLighthouse = Lighthouse(_lucky7Lighthouse);\n    isRhombusAvailable = _isRhombusAvailable;\n  }\n\n  /** @dev This modifier is used to set the gas price on the functions which do oraclize querys.\n   *  It uses the oraclizeCustomGasPrice of the Lucky7Admin contract.\n   */\n  modifier oraclizeGasPriceCustomized {\n    oraclize_setCustomGasPrice(oraclizeCustomGasPrice);\n    _;\n  }\n\n  /** @param settingLucky7Numbers is a circuit breaker to stop users of buying tickets while the game is getting setted\n   *i.e. when a new game is started, previous winners are erased, the Lucky7Numbers are getting setted and prizes are delivered.\n   */\n  bool public settingLucky7Numbers = true;\n  event SettingNumbersChanged(bool settingLucky7Numbers);\n\n  /** @dev Function to toggle the settingLucky7Numbers to stop users to buy tickets.\n   */\n  function toggleLucky7Setting() public onlyOwner {\n    settingLucky7Numbers = !settingLucky7Numbers;\n    emit SettingNumbersChanged(settingLucky7Numbers);\n  }\n\n  /** @dev UserParametersValue is a struct where the values of the user ticket is stored temporarily.\n   * While the user is just generating (not buying) tickets, the values of this struct for each user are going to change.\n   * Once the user buys a ticket, all the parameters of this struct are used to generate a ticket and store it in the tickets array.\n   * where they will be stored permanently.\n   * @param mu is a parameter of the pseudo-random number generator (PRNG).\n   * @param i is a parameter of the pseudo-random number generator (PRNG).\n   * @param ticketValue is the value of the last buyed ticket of the user.\n   * @param muReady is a boolean value used for the oraclize's callback function to verify if the mu parameter for the current ticket was already setted.\n   * @param iReady is a boolean value used for the oraclize's callback function to verify if the i parameter for the current ticket was already setted.\n   * @param userPaidTicket is a boolean value to verify if the user which is calling for the oraclize query actually paid for the ticket or is just generating\n   * parameters to choose a ticket.\n   */\n  struct UserParametersValue {\n    string mu;\n    string i;\n    uint ticketValue;\n    bool muReady;\n    bool iReady;\n    bool userPaidTicket;\n  }\n\n  /** @pdev Ticket is a struct to store information of the tickets. It information is stored permanently through the tickets array.\n   * @param mu is a parameter of the pseudo-random number generator (PRNG).\n   * @param i is a parameter of the pseudo-random number generator (PRNG).\n   * @param ticketValue is the value of ticket.\n   * @param owner is the owner of the ticket.\n   * @param gameID is the number of the draw for this ticket, i.e. the game where this ticket was emitted.\n   */\n  struct Ticket {\n    string mu;\n    string i;\n    uint ticketValue;\n    address owner;\n    uint gameID;\n  }\n\n  /** @dev Lucky7Number is a struct to store the information of the Lucky7Numbers. Is used for the lucky7Numbers array\n   * and it information is erased when a new game is setted, i.e. it information is replaced with the Lucky7Numbers information\n   * of the new game.\n   * @param mu is a parameter of the pseudo-random number generator (PRNG).\n   * @param i is a parameter of the pseudo-random number generator (PRNG).\n   * @param ticketValue is the value of the Lucky7Number.\n   * @param gameID is the number of the draw for this Lucky7Number, i.e. the game where this Lucky7Number was emitted.\n   */\n  struct Lucky7Number {\n    string mu;\n    string i;\n    uint ticketValue;\n    uint gameID;\n  }\n\n  /** @dev Lucky7Ticket is a struct to store the information of the Lucky7Tickets. Is used once a new game is setted, and it store the information of the final\n   * Lucky7Tickets permanently.\n   * @param difference is the difference (in absolute value) of the ticket with the Lucky7Number.\n   * @param owner is the owner of the Lucky7Ticket.\n   * @param ticketID is the ticket ID of the ticket which was selected as Lucky7Ticket. Is helpful to look up in the ticketID mapping to verify\n   * past games and results.\n   * @param ticketValue is the value of the ticket associated to this Lucky7Ticket.\n   * @param lucky7Number is the value of the Lucky7Number associated to this Lucky7Ticket.\n   * @param lucky7NumberID is the ID of the Lucky7Number associated to this Lucky7Ticket, i.e. if 0 is the first Lucky7Number of the draw.\n   * @param gameID is the number of the draw for this Lucky7Ticket, i.e. the game where this Lucky7Ticket was emitted.\n   */\n  struct Lucky7Ticket {\n    uint difference;\n    address owner;\n    uint ticketID;\n    uint ticketValue;\n    uint lucky7Number;\n    uint lucky7NumberID;\n    uint gameID;\n    uint prize;\n  }\n\n  /** @dev The next two arrays are used to store information of the game permanently.\n   * @param lucky7TicketsArray stores the Lucky7Tickets once a new game is setted.\n   * @param ticketsArray stores the tickets everytime a user buys a ticket.\n   */\n  Lucky7Ticket[] public lucky7TicketsArray;\n  Ticket[] public ticketsArray;\n  mapping(address => uint) public userLastPurchasedTicket;\n\n  /** @param lucky7NumbersArray stores the Lucky7Numbers for the current draw. Once a new game is called, it is cleand to 0 to be reused.\n   */\n  Lucky7Number[7] public lucky7NumbersArray;\n\n  /** @dev Because addresses are not correlatives, is better to use a mapping.\n   * @param userValues maps from the user address to it UserParametersValue struct.\n   */\n  mapping(address => UserParametersValue) public userValues;\n\n  /** @dev The next three mapping are used for the functions which do oraclize querys to being identified in the oraclize's callback function\n   * as mu parameter, i parameter or a ticket.\n   * @param muParameterID maps from a bytes32 generated everytime the oraclize_query function is called and points to the address of the user which did the call.\n   * @param iParameterID maps from a bytes32 generated everytime the oraclize_query function is called and points to the address of the user which did the call.\n   * @param newTicketID maps from a bytes32 generated everytime the oraclize_query function is called and points to the address of the user which did the call.\n   */\n  mapping(bytes32 => address) muParameterID;\n  mapping(bytes32 => address) iParameterID;\n  mapping(bytes32 => address) newTicketID;\n\n  /** @dev The next three mapping are used to state the Lucky7Ticket values while a game is on course. This is because is expensive to look up on the Lucky7Ticket\n   * struct everytime a new ticket is inserted in the tickets array.\n   * They all maps from the lucky7NumberID, i.e. the id of the Lucky7Number of the current game.\n   * @param lucky7TicketDifference points to an uint which is the difference between the Lucky7Number of it _KeyType and the ticket selected as Lucky7Ticket,\n   * e.g. lucky7TicketDifference[0] is the difference between the first Lucky7Number with the ticket which was selected as his Lucky7Ticket.\n   * @param lucky7TicketOwner points to the address of the owner of the Lucky7Ticket associated to the Lucky7Number of it _KeyType,\n   * e.g. lucky7TicketOwner[0] is the owner of the Lucky7Ticket associated to the first Lucky7Number.\n   * @param lucky7TicketID points to the id of the ticket which was selected as Lucky7Ticket for the Lucky7Number of it _KeyType,\n   * e.g. lucky7TicketID[0] is the ticketID of the ticket owned by lucky7TicketOwner[0], with a difference of lucky7TicketDiffference[0] with the Lucky7Number[0].\n   */\n  mapping(uint => uint) public lucky7TicketDifference;\n  mapping(uint => address) public lucky7TicketOwner;\n  mapping(uint => uint) public lucky7TicketValue;\n  mapping(uint => uint) public lucky7TicketID;\n\n  /** @param gameID is the number of the current draw. Is used to help storage Lucky7Tickets, look up for current game winners and others functions.\n   * Is incremented by 1 everytime a new game is setted.\n   * @param indexForLucky7Array is a uint used to count the number of Lucky7Numbers generated everytime a new game is setted. Is used to know if all the Lucky7Numbers\n   * were setted, and if they did, order them by them values in ascendant order and let users start buying tickets. Is setted to 0 after all this process.\n   */\n  uint public gameID = 0;\n  uint public indexForLucky7Array = 0;\n\n\n  uint muNonce = 0;\n\n  /** @dev _askForMuParameter is a function to ask for a new mu parameter through an oraclize query.\n   * @param _ticketOwner is the address of the user which is calling this function through a generation of new parameters or by buying a new random ticket.\n   * First, it emit an event to register the query. Then it do the query and save the bytes32 value generated to the muID.\n   * Finally it associate this muID with the _ticketOwner through the muParameterID mapping, so the oraclize's callback function know it is a mu petition and it belongs to the _ticketOwner user.\n   */\n  function _askForMuParameter(address _ticketOwner) public oraclizeGasPriceCustomized {\n    // bytes32 muID = oraclize_query(\"WolframAlpha\", \"4 random number\", oraclizeGasLimit);\n    // muParameterID[muID] = _ticketOwner;\n    uint muParameter;\n    bool dataOk;\n    (muParameter, dataOk) = lucky7Lighthouse.peekData(); // Rhombus implementation\n    userValues[_ticketOwner].mu = uint2str(Lucky7Library.generateBadRandomNumber(muParameter)); // oraclize uint2str\n    userValues[_ticketOwner].muReady = true;\n    if (!isRhombusAvailable) {\n      // Simulate a random number. This is indeed a bad practice and should not be implemented on production.\n      uint newRandomNumber = Lucky7Library.generateBadRandomNumber(muNonce);\n      muNonce++;\n      localLighthouse.write(newRandomNumber, 0);\n    }\n  }\n\n  /** @dev _askForIParameter is a function to ask for a new I parameter through an oraclize query.\n   * @param _ticketOwner is the address of the user which is calling this function through a generation of new parameters or by buying a new random ticket.\n   * First, it emit an event to register the query. Then it do the query and save the bytes32 value generated to the iID.\n   * Finally it associate this iID with the _ticketOwner through the iParameterID mapping, so the oraclize's callback function know it is a i petition and it belongs to the _ticketOwner user.\n   */\n  function _askForIParameter(address _ticketOwner) public oraclizeGasPriceCustomized {\n    bytes32 iID = oraclize_query(\"WolframAlpha\", \"4 random number\", oraclizeGasLimit);\n    iParameterID[iID] = _ticketOwner;\n  }\n\n  /** @dev _askForTicket is a function to ask for a new ticket through an oraclize query.\n   * @param _ticketOwner is the address of the user which is calling this function through by buying a new random ticket or buying the ticket generated by it parameters.\n   * First, it emit an event to register the query. Then it do the query and save the bytes32 value generated to the userTicketID.\n   * Finally it associate this userTicketID with the _ticketOwner through the newTicketID mapping, so the oraclize's callback function know it\n   * is a ticket petition and it belongs to the _ticketOwner user. Inside the oraclize_query function it calls the _setTicketQuery function, so it generate the query\n   * depending on the UserParametersValue struct of the _ticketOwner user.\n   */\n  function _askForTicket(address _ticketOwner) public oraclizeGasPriceCustomized {\n    bytes32 userTicketID = oraclize_query(\"WolframAlpha\", _setTicketQuery(_ticketOwner), oraclizeGasLimit);\n    newTicketID[userTicketID] = _ticketOwner;\n  }\n\n  event NewWolframQuery(string wolframQuery);\n  /** @dev _setTicketQuery is a function which sets the query to ask for a ticket to WolframAlpha through oraclize.\n   * @param _parametersOwner is the address of the user which is going to receive the ticket, e.g. a user asking for a ticket or the admin of the contract when calling for a\n   * Lucky7Number. The final shape of the query is (mod((1/(10^n-mu))*10^p,10^(j+i))-mod((1/(10^n-mu))*10^p,10^(i)))/10^i, and this function uses the strConcat function of\n   * the usingOraclize contract to concat the parts with the parameters of the user.\n   * Every line explains how the query is getting it shape. The meaning of this query is going to be explained on the paper of the project.\n   */\n\n  function _setTicketQuery(address _parametersOwner) internal returns(string memory) {\n    string memory queryWolfram;\n    //This line => (mod((1/(10^n-mu))*10^\n    queryWolfram = strConcat(\"(mod((1/(10^\", n, \"-\", userValues[_parametersOwner].mu, \"))*10^\");\n    //This line => (mod((1/(10^n-mu))*10^p,10^(j+\n    queryWolfram = strConcat(queryWolfram, p, \",10^(\", j, \"+\");\n    //This line => (mod((1/(10^n-mu))*10^p,10^(j+i))-mod((1/(10^n-\n    queryWolfram = strConcat(queryWolfram, userValues[_parametersOwner].i, \"))-mod((1/(10^\", n, \"-\");\n    //This line => (mod((1/(10^n-mu))*10^p,10^(j+i))-mod((1/(10^n-mu))*10^p,10^\n    queryWolfram = strConcat(queryWolfram, userValues[_parametersOwner].mu, \"))*10^\", p, \",10^\");\n    //This line => (mod((1/(10^n-mu))*10^p,10^(j+i))-mod((1/(10^n-mu))*10^p,10^(i)))/10^i\n    queryWolfram = strConcat(queryWolfram, \"(\", userValues[_parametersOwner].i, \")))/10^\", userValues[_parametersOwner].i);\n    emit NewWolframQuery(queryWolfram);\n    return queryWolfram;\n  }\n\n  /** @dev _generateTicket is used by another contract. Invokes _askForMuParameter and _askForIparameter\n   */\n  function _generateTicket(address _ticketOwner) public {\n    _askForMuParameter(_ticketOwner);\n    _askForIParameter(_ticketOwner);\n  }\n\n  /** @dev _insertTicket inserts a ticket in the ticketsArray array.\n   * @param _ticketOwner is the owner of the ticket already generated. It uses the UserParametersValue struct values and the gameID value.\n   * Then it call the _checkForLucky7Ticket function to check if the inserted ticket is a Lucky7Ticket.\n   * Because a push return the size of the array, is necessary to decrement the id value in 1 to check the current ticket.\n   * Then we add the ticket to user collection of tickets (userTickets mapping) and increase the ticket counter (userTicketsCounter)\n   */\n  function _insertTicket(address _ticketOwner) internal {\n    UserParametersValue memory values = userValues[_ticketOwner];\n    uint id = ticketsArray.push(Ticket(values.mu, values.i, values.ticketValue, _ticketOwner, gameID)) - 1;\n    emit NewTicketReceived(values.ticketValue, values.mu, values.i, id, _ticketOwner, gameID);\n    _checkForLucky7Ticket(id);\n  }\n\n  /** @dev _insertLucky7Number inserts a Lucky7Number in the lucky7NumbersArray array.\n   * @param _ticketOwner is the owner, but in this case is the owner of the contract. This is setted this way to take advantage of the UserParametersValue struct\n   * and store it the same way the tickets are stored. Once stored, the indexForLucky7Array is incremented by 1, so next time this function is called, the next\n   * Lucky7Number don't replace the last inserted.\n   * Then an event is emited.\n   */\n  function _insertLucky7Number(address _ticketOwner) internal {\n    lucky7NumbersArray[indexForLucky7Array] = Lucky7Number(userValues[_ticketOwner].mu, userValues[_ticketOwner].i, userValues[_ticketOwner].ticketValue, gameID);\n    emit Lucky7NumberInserted(userValues[_ticketOwner].ticketValue, indexForLucky7Array);\n    indexForLucky7Array++;\n  }\n\n  /** @dev _checkForLucky7Ticket is a function that check if a ticket recently inserted in the ticketsArray is a Lucky7Ticket.\n   * @param _ticketID is the ticket which is going to be checked.\n   * At this point, the Lucky7Numbers are ordered by them values in ascedant order.\n   * This function uses the SafeMath library to avoid integer underflow or overflow, or to check that the difference is not 0, which is a special case.\n   */\n  function _checkForLucky7Ticket(uint _ticketID) public {\n    uint i;\n    uint difference;\n    /** @dev First it checks if the ticket is bigger than the last Lucky7Number.\n     * If so, sets the auxiliary parameter i to the id of the last Lucky7Number, numberOfLucky7Numbers-1 in this case. Don't confuse with the i parameter of the PRNG.\n     * Then the difference between them is obtained through the sub function of the SafeMath library, knowing that the ticket is bigger than the last Lucky7Number.\n     */\n    if (ticketsArray[_ticketID].ticketValue > lucky7NumbersArray[numberOfLucky7Numbers - 1].ticketValue) {\n      i = numberOfLucky7Numbers - 1;\n      difference = ticketsArray[_ticketID].ticketValue.sub(lucky7NumbersArray[i].ticketValue);\n\n    }\n    /** @dev If it is not bigger than the last Lucky7Number, then checks if it is smaller thant the first Lucky7Number.\n     * If so, sets the auxiliary parameter i to the id of the first Lucky7Number, 0 in this case. Don't confuse with the i parameter of the PRNG.\n     * Then the difference between them is obtained through the sub function of the SafeMath library, knowing that the ticket is smaller than the first Lucky7Number.\n     */\n    else if (ticketsArray[_ticketID].ticketValue < lucky7NumbersArray[0].ticketValue) {\n      i = 0;\n      difference = lucky7NumbersArray[i].ticketValue.sub(ticketsArray[_ticketID].ticketValue);\n    }\n\n    /** @dev If none of the above fits, then the ticket could be bigger or equal than the first Lucky7Number or smaller or equal than the last Lucky7Number.\n     * The function proceeds then to look which is it interval,i.e. it should be between two Lucky7Numbers or equal to one Lucky7Number.\n     */\n    else {\n      /** @dev The function then proceed to increment i until the ticket is bigger than the Lucky7Number[i].\n       */\n      while (ticketsArray[_ticketID].ticketValue > lucky7NumbersArray[i].ticketValue) {\n        i++;\n      }\n      /** @dev If the ticket and the correspondent Lucky7Numbers are equal, then the ticket is a ExactLucky7Ticket\n       */\n      if (ticketsArray[_ticketID].ticketValue == lucky7NumbersArray[i].ticketValue) {\n        difference = 0;\n      } else {\n        /** @dev If not, then it will have to check if the Lucky7Number above or below the ticket is closer\n         * if the below Lucky7Number is closer to the ticket than the above Lucky7Number (if(upperLucky7NumberDifference>lowerLucky7NumberDifference)) then the\n         * correspondent candidate to Lucky7Ticket is the Lucky7Number which is below the ticket.\n         * Else, the above Lucky7Number is the correspondent candidate.\n         * Then saves the value of difference.\n         */\n        uint lowerLucky7NumberDifference = ticketsArray[_ticketID].ticketValue.sub(lucky7NumbersArray[i - 1].ticketValue);\n        uint upperLucky7NumberDifference = lucky7NumbersArray[i].ticketValue.sub(ticketsArray[_ticketID].ticketValue);\n\n        if (upperLucky7NumberDifference > lowerLucky7NumberDifference) {\n          i = i - 1;\n          difference = lowerLucky7NumberDifference;\n        } else {\n          difference = upperLucky7NumberDifference;\n        }\n      }\n    }\n    /** @dev Now the function proceed to check if it is in fact a Lucky7Ticket.\n     * If the Lucky7Ticket[i] hasn't an owner, then the ticket is automatically assigned as Lucky7Ticket.\n     * If it has an owner, then check if the difference is smaller than the difference of the current owner.\n     * If it is smaller, then the ticket is a Lucky7Ticket and is stored in the Lucky7Ticket mappings.\n     * Then an event is emitted.\n     */\n    if (lucky7TicketOwner[i] == address(0x0) || difference < lucky7TicketDifference[i]) {\n      lucky7TicketOwner[i] = ticketsArray[_ticketID].owner;\n      lucky7TicketDifference[i] = difference;\n      lucky7TicketID[i] = _ticketID;\n      lucky7TicketValue[i] = ticketsArray[_ticketID].ticketValue;\n      emit NewLucky7Ticket(lucky7TicketValue[i], lucky7TicketOwner[i], difference, i);\n    }\n  }\n\n  /** @dev __callback is a function used for oraclize to send back the query emitted to oraclize.\n   * @param myid is the id of the query, same as the muID, iID or userTicketID of the _askForMuParameter, _askForIParameter and _askForTicket functions above.\n   * @param result is the result of the query.\n   * Once the query is resolved, oraclize sends back the answer, and the function check that the one calling the function is indeed a oraclize contract.\n   */\n  function __callback(bytes32 myid, string memory result) public {\n    require(msg.sender == oraclize_cbAddress());\n    emit BalanceUpdated(address(this).balance);\n\n    /** @dev Checks if the result is the i parameter of the user and proceeds the same way, checking if already have the mu parameter setted,\n     * and if the user paid for the ticket or the game is in the setting Lucky7Number phase.\n     */\n    if (iParameterID[myid] != address(0x0) && userValues[iParameterID[myid]].iReady == false) {\n      userValues[iParameterID[myid]].i = result;\n      userValues[iParameterID[myid]].iReady = true;\n      if (userValues[iParameterID[myid]].muReady == true) {\n        if ((userValues[iParameterID[myid]].userPaidTicket == true)) {\n          _askForTicket(iParameterID[myid]);\n        } else {\n          emit GeneratedParametersReceived(userValues[iParameterID[myid]].mu, userValues[iParameterID[myid]].i, iParameterID[myid], gameID);\n        }\n        if (settingLucky7Numbers == true) {\n          _askForTicket(iParameterID[myid]);\n        }\n      }\n    }\n\n    /** @dev If not, then proceed the same way as above, but once the ticket is inserted and the event is emitted, the userPaidTicket of the user's UserValuesStruct is\n     * setted to 0, marking that the ticket thet user paid is already stored and it have to pay again if it wants to buy another ticket.\n     * Finally, it checks if the game is currently in the setting Lucky7Numbers phase. If so, calls the _insertLucky7Number function, else it calls the\n     * _insertTicket function, both explained above.\n     */\n    else if (newTicketID[myid] != address(0x0) && (userValues[newTicketID[myid]].userPaidTicket == true || settingLucky7Numbers == true)) {\n      userValues[newTicketID[myid]].ticketValue = parseInt(result);\n      userValues[newTicketID[myid]].userPaidTicket = false;\n      if (settingLucky7Numbers == true) {\n        _insertLucky7Number(newTicketID[myid]);\n      } else {\n        _insertTicket(newTicketID[myid]);\n      }\n    }\n  }\n}\n",
  "sourcePath": "/Users/matiasbarrios/Desktop/luckyseven/contracts/Lucky7TicketFactory.sol",
  "compiler": {
    "name": "solc",
    "version": "0.5.8+commit.23d335f2.Emscripten.clang"
  },
  "schemaVersion": "3.0.11",
  "updatedAt": "2019-07-30T19:42:02.072Z",
  "devdoc": {
    "methods": {
      "__callback(bytes32,string)": {
        "details": "__callback is a function used for oraclize to send back the query emitted to oraclize.",
        "params": {
          "myid": "is the id of the query, same as the muID, iID or userTicketID of the _askForMuParameter, _askForIParameter and _askForTicket functions above.",
          "result": "is the result of the query. Once the query is resolved, oraclize sends back the answer, and the function check that the one calling the function is indeed a oraclize contract."
        }
      },
      "_askForIParameter(address)": {
        "details": "_askForIParameter is a function to ask for a new I parameter through an oraclize query.",
        "params": {
          "_ticketOwner": "is the address of the user which is calling this function through a generation of new parameters or by buying a new random ticket. First, it emit an event to register the query. Then it do the query and save the bytes32 value generated to the iID. Finally it associate this iID with the _ticketOwner through the iParameterID mapping, so the oraclize's callback function know it is a i petition and it belongs to the _ticketOwner user."
        }
      },
      "_askForMuParameter(address)": {
        "details": "_askForMuParameter is a function to ask for a new mu parameter through an oraclize query.",
        "params": {
          "_ticketOwner": "is the address of the user which is calling this function through a generation of new parameters or by buying a new random ticket. First, it emit an event to register the query. Then it do the query and save the bytes32 value generated to the muID. Finally it associate this muID with the _ticketOwner through the muParameterID mapping, so the oraclize's callback function know it is a mu petition and it belongs to the _ticketOwner user."
        }
      },
      "_askForTicket(address)": {
        "details": "_askForTicket is a function to ask for a new ticket through an oraclize query.",
        "params": {
          "_ticketOwner": "is the address of the user which is calling this function through by buying a new random ticket or buying the ticket generated by it parameters. First, it emit an event to register the query. Then it do the query and save the bytes32 value generated to the userTicketID. Finally it associate this userTicketID with the _ticketOwner through the newTicketID mapping, so the oraclize's callback function know it is a ticket petition and it belongs to the _ticketOwner user. Inside the oraclize_query function it calls the _setTicketQuery function, so it generate the query depending on the UserParametersValue struct of the _ticketOwner user."
        }
      },
      "_checkForLucky7Ticket(uint256)": {
        "details": "_checkForLucky7Ticket is a function that check if a ticket recently inserted in the ticketsArray is a Lucky7Ticket.",
        "params": {
          "_ticketID": "is the ticket which is going to be checked. At this point, the Lucky7Numbers are ordered by them values in ascedant order. This function uses the SafeMath library to avoid integer underflow or overflow, or to check that the difference is not 0, which is a special case."
        }
      },
      "_generateTicket(address)": {
        "details": "_generateTicket is used by another contract. Invokes _askForMuParameter and _askForIparameter"
      },
      "isOwner()": {
        "details": "Returns true if the caller is the current owner."
      },
      "owner()": {
        "details": "Returns the address of the current owner."
      },
      "renounceOwnership()": {
        "details": "Leaves the contract without owner. It will not be possible to call `onlyOwner` functions anymore. Can only be called by the current owner.     * > Note: Renouncing ownership will leave the contract without an owner, thereby removing any functionality that is only available to the owner."
      },
      "toggleLucky7Setting()": {
        "details": "Function to toggle the settingLucky7Numbers to stop users to buy tickets."
      },
      "transferOwnership(address)": {
        "details": "Transfers ownership of the contract to a new account (`newOwner`). Can only be called by the current owner."
      }
    }
  },
  "userdoc": {
    "methods": {}
  }
}