{
  "contractName": "Lucky7Store",
  "abi": [
    {
      "constant": true,
      "inputs": [
        {
          "name": "",
          "type": "uint256"
        }
      ],
      "name": "lucky7TicketID",
      "outputs": [
        {
          "name": "",
          "type": "uint256"
        }
      ],
      "payable": false,
      "stateMutability": "view",
      "type": "function"
    },
    {
      "constant": true,
      "inputs": [
        {
          "name": "",
          "type": "uint256"
        }
      ],
      "name": "lucky7TicketOwner",
      "outputs": [
        {
          "name": "",
          "type": "address"
        }
      ],
      "payable": false,
      "stateMutability": "view",
      "type": "function"
    },
    {
      "constant": false,
      "inputs": [],
      "name": "_orderLucky7Tickets",
      "outputs": [],
      "payable": false,
      "stateMutability": "nonpayable",
      "type": "function"
    },
    {
      "constant": false,
      "inputs": [
        {
          "name": "_ticketOwner",
          "type": "address"
        }
      ],
      "name": "_askForMuParameter",
      "outputs": [],
      "payable": false,
      "stateMutability": "nonpayable",
      "type": "function"
    },
    {
      "constant": true,
      "inputs": [],
      "name": "lastDelivery",
      "outputs": [
        {
          "name": "",
          "type": "uint256"
        }
      ],
      "payable": false,
      "stateMutability": "view",
      "type": "function"
    },
    {
      "constant": false,
      "inputs": [
        {
          "name": "myid",
          "type": "bytes32"
        },
        {
          "name": "result",
          "type": "string"
        }
      ],
      "name": "__callback",
      "outputs": [],
      "payable": false,
      "stateMutability": "nonpayable",
      "type": "function"
    },
    {
      "constant": true,
      "inputs": [],
      "name": "settingLucky7Numbers",
      "outputs": [
        {
          "name": "",
          "type": "bool"
        }
      ],
      "payable": false,
      "stateMutability": "view",
      "type": "function"
    },
    {
      "constant": false,
      "inputs": [
        {
          "name": "_ticketID",
          "type": "uint256"
        }
      ],
      "name": "_checkForLucky7Ticket",
      "outputs": [],
      "payable": false,
      "stateMutability": "nonpayable",
      "type": "function"
    },
    {
      "constant": true,
      "inputs": [],
      "name": "n",
      "outputs": [
        {
          "name": "",
          "type": "string"
        }
      ],
      "payable": false,
      "stateMutability": "view",
      "type": "function"
    },
    {
      "constant": true,
      "inputs": [],
      "name": "lucky7Lighthouse",
      "outputs": [
        {
          "name": "",
          "type": "address"
        }
      ],
      "payable": false,
      "stateMutability": "view",
      "type": "function"
    },
    {
      "constant": false,
      "inputs": [
        {
          "name": "_myid",
          "type": "bytes32"
        },
        {
          "name": "_result",
          "type": "string"
        },
        {
          "name": "_proof",
          "type": "bytes"
        }
      ],
      "name": "__callback",
      "outputs": [],
      "payable": false,
      "stateMutability": "nonpayable",
      "type": "function"
    },
    {
      "constant": false,
      "inputs": [],
      "name": "toggleLucky7Setting",
      "outputs": [],
      "payable": false,
      "stateMutability": "nonpayable",
      "type": "function"
    },
    {
      "constant": true,
      "inputs": [],
      "name": "purchaseTicketPrice",
      "outputs": [
        {
          "name": "",
          "type": "uint256"
        }
      ],
      "payable": false,
      "stateMutability": "view",
      "type": "function"
    },
    {
      "constant": false,
      "inputs": [],
      "name": "withdraw",
      "outputs": [],
      "payable": false,
      "stateMutability": "nonpayable",
      "type": "function"
    },
    {
      "constant": false,
      "inputs": [],
      "name": "setNewGame",
      "outputs": [],
      "payable": false,
      "stateMutability": "nonpayable",
      "type": "function"
    },
    {
      "constant": true,
      "inputs": [
        {
          "name": "",
          "type": "uint256"
        }
      ],
      "name": "lucky7TicketValue",
      "outputs": [
        {
          "name": "",
          "type": "uint256"
        }
      ],
      "payable": false,
      "stateMutability": "view",
      "type": "function"
    },
    {
      "constant": true,
      "inputs": [
        {
          "name": "",
          "type": "address"
        }
      ],
      "name": "userLastPurchasedTicket",
      "outputs": [
        {
          "name": "",
          "type": "uint256"
        }
      ],
      "payable": false,
      "stateMutability": "view",
      "type": "function"
    },
    {
      "constant": true,
      "inputs": [
        {
          "name": "",
          "type": "address"
        }
      ],
      "name": "userValues",
      "outputs": [
        {
          "name": "mu",
          "type": "string"
        },
        {
          "name": "i",
          "type": "string"
        },
        {
          "name": "ticketValue",
          "type": "uint256"
        },
        {
          "name": "muReady",
          "type": "bool"
        },
        {
          "name": "iReady",
          "type": "bool"
        },
        {
          "name": "userPaidTicket",
          "type": "bool"
        }
      ],
      "payable": false,
      "stateMutability": "view",
      "type": "function"
    },
    {
      "constant": true,
      "inputs": [],
      "name": "b",
      "outputs": [
        {
          "name": "",
          "type": "string"
        }
      ],
      "payable": false,
      "stateMutability": "view",
      "type": "function"
    },
    {
      "constant": true,
      "inputs": [],
      "name": "oraclizeGasLimit",
      "outputs": [
        {
          "name": "",
          "type": "uint256"
        }
      ],
      "payable": false,
      "stateMutability": "view",
      "type": "function"
    },
    {
      "constant": true,
      "inputs": [],
      "name": "ticketsGenerated",
      "outputs": [
        {
          "name": "",
          "type": "uint256"
        }
      ],
      "payable": false,
      "stateMutability": "view",
      "type": "function"
    },
    {
      "constant": true,
      "inputs": [],
      "name": "numberOfLucky7Numbers",
      "outputs": [
        {
          "name": "",
          "type": "uint256"
        }
      ],
      "payable": false,
      "stateMutability": "view",
      "type": "function"
    },
    {
      "constant": true,
      "inputs": [],
      "name": "newGameSettedPrize",
      "outputs": [
        {
          "name": "",
          "type": "uint256"
        }
      ],
      "payable": false,
      "stateMutability": "view",
      "type": "function"
    },
    {
      "constant": false,
      "inputs": [],
      "name": "renounceOwnership",
      "outputs": [],
      "payable": false,
      "stateMutability": "nonpayable",
      "type": "function"
    },
    {
      "constant": false,
      "inputs": [],
      "name": "_orderLucky7Numbers",
      "outputs": [],
      "payable": false,
      "stateMutability": "nonpayable",
      "type": "function"
    },
    {
      "constant": false,
      "inputs": [
        {
          "name": "_ticketOwner",
          "type": "address"
        }
      ],
      "name": "_generateTicket",
      "outputs": [],
      "payable": false,
      "stateMutability": "nonpayable",
      "type": "function"
    },
    {
      "constant": true,
      "inputs": [],
      "name": "owner",
      "outputs": [
        {
          "name": "",
          "type": "address"
        }
      ],
      "payable": false,
      "stateMutability": "view",
      "type": "function"
    },
    {
      "constant": true,
      "inputs": [],
      "name": "isOwner",
      "outputs": [
        {
          "name": "",
          "type": "bool"
        }
      ],
      "payable": false,
      "stateMutability": "view",
      "type": "function"
    },
    {
      "constant": true,
      "inputs": [],
      "name": "ticketsPurchased",
      "outputs": [
        {
          "name": "",
          "type": "uint256"
        }
      ],
      "payable": false,
      "stateMutability": "view",
      "type": "function"
    },
    {
      "constant": false,
      "inputs": [],
      "name": "_generateLucky7Number",
      "outputs": [],
      "payable": false,
      "stateMutability": "nonpayable",
      "type": "function"
    },
    {
      "constant": true,
      "inputs": [
        {
          "name": "",
          "type": "uint256"
        }
      ],
      "name": "lucky7NumbersArray",
      "outputs": [
        {
          "name": "mu",
          "type": "string"
        },
        {
          "name": "i",
          "type": "string"
        },
        {
          "name": "ticketValue",
          "type": "uint256"
        },
        {
          "name": "gameID",
          "type": "uint256"
        }
      ],
      "payable": false,
      "stateMutability": "view",
      "type": "function"
    },
    {
      "constant": true,
      "inputs": [],
      "name": "oraclizeCustomGasPrice",
      "outputs": [
        {
          "name": "",
          "type": "uint256"
        }
      ],
      "payable": false,
      "stateMutability": "view",
      "type": "function"
    },
    {
      "constant": true,
      "inputs": [],
      "name": "p",
      "outputs": [
        {
          "name": "",
          "type": "string"
        }
      ],
      "payable": false,
      "stateMutability": "view",
      "type": "function"
    },
    {
      "constant": true,
      "inputs": [],
      "name": "expectedPrize",
      "outputs": [
        {
          "name": "",
          "type": "uint256"
        }
      ],
      "payable": false,
      "stateMutability": "view",
      "type": "function"
    },
    {
      "constant": true,
      "inputs": [],
      "name": "newLucky7NumberPrize",
      "outputs": [
        {
          "name": "",
          "type": "uint256"
        }
      ],
      "payable": false,
      "stateMutability": "view",
      "type": "function"
    },
    {
      "constant": true,
      "inputs": [],
      "name": "localLighthouse",
      "outputs": [
        {
          "name": "",
          "type": "address"
        }
      ],
      "payable": false,
      "stateMutability": "view",
      "type": "function"
    },
    {
      "constant": true,
      "inputs": [
        {
          "name": "",
          "type": "uint256"
        }
      ],
      "name": "ticketsArray",
      "outputs": [
        {
          "name": "mu",
          "type": "string"
        },
        {
          "name": "i",
          "type": "string"
        },
        {
          "name": "ticketValue",
          "type": "uint256"
        },
        {
          "name": "owner",
          "type": "address"
        },
        {
          "name": "gameID",
          "type": "uint256"
        }
      ],
      "payable": false,
      "stateMutability": "view",
      "type": "function"
    },
    {
      "constant": true,
      "inputs": [],
      "name": "j",
      "outputs": [
        {
          "name": "",
          "type": "string"
        }
      ],
      "payable": false,
      "stateMutability": "view",
      "type": "function"
    },
    {
      "constant": true,
      "inputs": [],
      "name": "initialLucky7TicketPosition",
      "outputs": [
        {
          "name": "",
          "type": "uint256"
        }
      ],
      "payable": false,
      "stateMutability": "view",
      "type": "function"
    },
    {
      "constant": false,
      "inputs": [],
      "name": "_cleanMappings",
      "outputs": [],
      "payable": false,
      "stateMutability": "nonpayable",
      "type": "function"
    },
    {
      "constant": true,
      "inputs": [],
      "name": "indexForLucky7Array",
      "outputs": [
        {
          "name": "",
          "type": "uint256"
        }
      ],
      "payable": false,
      "stateMutability": "view",
      "type": "function"
    },
    {
      "constant": true,
      "inputs": [
        {
          "name": "",
          "type": "uint256"
        }
      ],
      "name": "lucky7TicketsArray",
      "outputs": [
        {
          "name": "difference",
          "type": "uint256"
        },
        {
          "name": "owner",
          "type": "address"
        },
        {
          "name": "ticketID",
          "type": "uint256"
        },
        {
          "name": "ticketValue",
          "type": "uint256"
        },
        {
          "name": "lucky7Number",
          "type": "uint256"
        },
        {
          "name": "lucky7NumberID",
          "type": "uint256"
        },
        {
          "name": "gameID",
          "type": "uint256"
        },
        {
          "name": "prize",
          "type": "uint256"
        }
      ],
      "payable": false,
      "stateMutability": "view",
      "type": "function"
    },
    {
      "constant": true,
      "inputs": [],
      "name": "gameID",
      "outputs": [
        {
          "name": "",
          "type": "uint256"
        }
      ],
      "payable": false,
      "stateMutability": "view",
      "type": "function"
    },
    {
      "constant": true,
      "inputs": [],
      "name": "generateTicketPrice",
      "outputs": [
        {
          "name": "",
          "type": "uint256"
        }
      ],
      "payable": false,
      "stateMutability": "view",
      "type": "function"
    },
    {
      "constant": false,
      "inputs": [
        {
          "name": "_ticketOwner",
          "type": "address"
        }
      ],
      "name": "_askForTicket",
      "outputs": [],
      "payable": false,
      "stateMutability": "nonpayable",
      "type": "function"
    },
    {
      "constant": true,
      "inputs": [],
      "name": "validateDelivery",
      "outputs": [
        {
          "name": "",
          "type": "uint256"
        },
        {
          "name": "",
          "type": "bool"
        },
        {
          "name": "",
          "type": "bool"
        }
      ],
      "payable": false,
      "stateMutability": "view",
      "type": "function"
    },
    {
      "constant": true,
      "inputs": [],
      "name": "expectedGameTime",
      "outputs": [
        {
          "name": "",
          "type": "uint256"
        }
      ],
      "payable": false,
      "stateMutability": "view",
      "type": "function"
    },
    {
      "constant": true,
      "inputs": [
        {
          "name": "",
          "type": "uint256"
        }
      ],
      "name": "lucky7TicketDifference",
      "outputs": [
        {
          "name": "",
          "type": "uint256"
        }
      ],
      "payable": false,
      "stateMutability": "view",
      "type": "function"
    },
    {
      "constant": false,
      "inputs": [
        {
          "name": "newOwner",
          "type": "address"
        }
      ],
      "name": "transferOwnership",
      "outputs": [],
      "payable": false,
      "stateMutability": "nonpayable",
      "type": "function"
    },
    {
      "constant": true,
      "inputs": [
        {
          "name": "",
          "type": "address"
        }
      ],
      "name": "pendingWithdrawals",
      "outputs": [
        {
          "name": "amount",
          "type": "uint256"
        },
        {
          "name": "gameID",
          "type": "uint256"
        }
      ],
      "payable": false,
      "stateMutability": "view",
      "type": "function"
    },
    {
      "constant": false,
      "inputs": [],
      "name": "_deliverPrizes",
      "outputs": [],
      "payable": false,
      "stateMutability": "nonpayable",
      "type": "function"
    },
    {
      "constant": true,
      "inputs": [],
      "name": "currentTicketID",
      "outputs": [
        {
          "name": "",
          "type": "uint256"
        }
      ],
      "payable": false,
      "stateMutability": "view",
      "type": "function"
    },
    {
      "constant": false,
      "inputs": [
        {
          "name": "_ticketOwner",
          "type": "address"
        }
      ],
      "name": "_askForIParameter",
      "outputs": [],
      "payable": false,
      "stateMutability": "nonpayable",
      "type": "function"
    },
    {
      "inputs": [
        {
          "name": "_lucky7Lighthouse",
          "type": "address"
        },
        {
          "name": "_isRhombusAvailable",
          "type": "bool"
        },
        {
          "name": "_isLocalBlockchain",
          "type": "bool"
        }
      ],
      "payable": true,
      "stateMutability": "payable",
      "type": "constructor"
    },
    {
      "payable": true,
      "stateMutability": "payable",
      "type": "fallback"
    },
    {
      "anonymous": false,
      "inputs": [
        {
          "indexed": false,
          "name": "b",
          "type": "string"
        },
        {
          "indexed": false,
          "name": "n",
          "type": "string"
        },
        {
          "indexed": false,
          "name": "p",
          "type": "string"
        },
        {
          "indexed": false,
          "name": "j",
          "type": "string"
        },
        {
          "indexed": false,
          "name": "numberOfLucky7Numbers",
          "type": "uint256"
        },
        {
          "indexed": false,
          "name": "generateTicketPrice",
          "type": "uint256"
        },
        {
          "indexed": false,
          "name": "purchaseTicketPrice",
          "type": "uint256"
        }
      ],
      "name": "GameParameters",
      "type": "event"
    },
    {
      "anonymous": false,
      "inputs": [
        {
          "indexed": true,
          "name": "gameID",
          "type": "uint256"
        }
      ],
      "name": "RandomTicketSelled",
      "type": "event"
    },
    {
      "anonymous": false,
      "inputs": [
        {
          "indexed": true,
          "name": "gameID",
          "type": "uint256"
        }
      ],
      "name": "GeneratedTicket",
      "type": "event"
    },
    {
      "anonymous": false,
      "inputs": [
        {
          "indexed": true,
          "name": "gameID",
          "type": "uint256"
        }
      ],
      "name": "GeneratedTicketSelled",
      "type": "event"
    },
    {
      "anonymous": false,
      "inputs": [
        {
          "indexed": false,
          "name": "value",
          "type": "uint256"
        },
        {
          "indexed": false,
          "name": "index",
          "type": "uint256"
        }
      ],
      "name": "Lucky7NumberInserted",
      "type": "event"
    },
    {
      "anonymous": false,
      "inputs": [
        {
          "indexed": false,
          "name": "gameID",
          "type": "uint256"
        }
      ],
      "name": "NewGameStarted",
      "type": "event"
    },
    {
      "anonymous": false,
      "inputs": [
        {
          "indexed": false,
          "name": "difference",
          "type": "uint256"
        },
        {
          "indexed": true,
          "name": "owner",
          "type": "address"
        },
        {
          "indexed": false,
          "name": "ticketID",
          "type": "uint256"
        },
        {
          "indexed": false,
          "name": "ticketValue",
          "type": "uint256"
        },
        {
          "indexed": false,
          "name": "lucky7Number",
          "type": "uint256"
        },
        {
          "indexed": false,
          "name": "lucky7NumberID",
          "type": "uint256"
        },
        {
          "indexed": false,
          "name": "gameID",
          "type": "uint256"
        },
        {
          "indexed": false,
          "name": "prize",
          "type": "uint256"
        },
        {
          "indexed": false,
          "name": "mu",
          "type": "string"
        },
        {
          "indexed": false,
          "name": "i",
          "type": "string"
        }
      ],
      "name": "Lucky7TicketStored",
      "type": "event"
    },
    {
      "anonymous": false,
      "inputs": [
        {
          "indexed": true,
          "name": "owner",
          "type": "address"
        },
        {
          "indexed": false,
          "name": "gameID",
          "type": "uint256"
        },
        {
          "indexed": false,
          "name": "amount",
          "type": "uint256"
        }
      ],
      "name": "PrizeClaimed",
      "type": "event"
    },
    {
      "anonymous": false,
      "inputs": [
        {
          "indexed": false,
          "name": "mu",
          "type": "string"
        },
        {
          "indexed": false,
          "name": "i",
          "type": "string"
        },
        {
          "indexed": true,
          "name": "owner",
          "type": "address"
        },
        {
          "indexed": true,
          "name": "gameID",
          "type": "uint256"
        }
      ],
      "name": "GeneratedParametersReceived",
      "type": "event"
    },
    {
      "anonymous": false,
      "inputs": [
        {
          "indexed": false,
          "name": "ticketValue",
          "type": "uint256"
        },
        {
          "indexed": false,
          "name": "mu",
          "type": "string"
        },
        {
          "indexed": false,
          "name": "i",
          "type": "string"
        },
        {
          "indexed": false,
          "name": "ticketID",
          "type": "uint256"
        },
        {
          "indexed": true,
          "name": "owner",
          "type": "address"
        },
        {
          "indexed": true,
          "name": "gameID",
          "type": "uint256"
        }
      ],
      "name": "NewTicketReceived",
      "type": "event"
    },
    {
      "anonymous": false,
      "inputs": [
        {
          "indexed": false,
          "name": "ticketValue",
          "type": "uint256"
        },
        {
          "indexed": true,
          "name": "owner",
          "type": "address"
        },
        {
          "indexed": false,
          "name": "difference",
          "type": "uint256"
        },
        {
          "indexed": false,
          "name": "index",
          "type": "uint256"
        }
      ],
      "name": "NewLucky7Ticket",
      "type": "event"
    },
    {
      "anonymous": false,
      "inputs": [
        {
          "indexed": false,
          "name": "balance",
          "type": "uint256"
        }
      ],
      "name": "BalanceUpdated",
      "type": "event"
    },
    {
      "anonymous": false,
      "inputs": [
        {
          "indexed": false,
          "name": "settingLucky7Numbers",
          "type": "bool"
        }
      ],
      "name": "SettingNumbersChanged",
      "type": "event"
    },
    {
      "anonymous": false,
      "inputs": [
        {
          "indexed": false,
          "name": "wolframQuery",
          "type": "string"
        }
      ],
      "name": "NewWolframQuery",
      "type": "event"
    },
    {
      "anonymous": false,
      "inputs": [
        {
          "indexed": true,
          "name": "previousOwner",
          "type": "address"
        },
        {
          "indexed": true,
          "name": "newOwner",
          "type": "address"
        }
      ],
      "name": "OwnershipTransferred",
      "type": "event"
    },
    {
      "constant": false,
      "inputs": [],
      "name": "sellRandomTicket",
      "outputs": [],
      "payable": true,
      "stateMutability": "payable",
      "type": "function"
    },
    {
      "constant": false,
      "inputs": [],
      "name": "generateRandomTicket",
      "outputs": [],
      "payable": true,
      "stateMutability": "payable",
      "type": "function"
    },
    {
      "constant": false,
      "inputs": [],
      "name": "sellGeneratedTicket",
      "outputs": [],
      "payable": true,
      "stateMutability": "payable",
      "type": "function"
    },
    {
      "constant": false,
      "inputs": [
        {
          "name": "values",
          "type": "uint256[]"
        }
      ],
      "name": "insertLucky7Numbers",
      "outputs": [],
      "payable": false,
      "stateMutability": "nonpayable",
      "type": "function"
    },
    {
      "constant": false,
      "inputs": [
        {
          "name": "_newValue",
          "type": "uint256"
        }
      ],
      "name": "setIndexForLucky7Array",
      "outputs": [],
      "payable": false,
      "stateMutability": "nonpayable",
      "type": "function"
    }
  ],
  "bytecode": "0x60c0604052600160808190527f310000000000000000000000000000000000000000000000000000000000000060a090815262000040916002919062000576565b506040805180820190915260018082527f38000000000000000000000000000000000000000000000000000000000000006020909201918252620000879160039162000576565b506040805180820190915260058082527f31303030300000000000000000000000000000000000000000000000000000006020909201918252620000ce9160049162000576565b506040805180820190915260028082527f31300000000000000000000000000000000000000000000000000000000000006020909201918252620001159160059162000576565b5060076006556611c37937e08000600755662386f26fc10000600855622dc6c06009556317d78400600a556000600b556000600c5568056bc75e2d63100000600d556224ea00600e5567016345785d8a0000600f5566b1a2bc2ec50000601055620001856200056660201b60201c565b601180546001600160a01b03929092166001600160a01b031990921691909117905560188054600160a81b61ffff0219167601000000000000000000000000000000000000000000001790556000604081815560418290556042829055604482905560459190915551606080620065c5833981018060405260608110156200020c57600080fd5b5080516020820151604092830151600080546001600160a01b03191633178082559451939492939192859285928592859285926001600160a01b039290921691907f8be0079c531659141344cd1fd0a4f28419497f9722a3daafe3b4186f6b6457e0908290a342600190815560138054736f485c8bf6fc43ea212e93bbf8ce046c7f1cb4756001600160a01b0319918216179091556017805482166001600160a01b0395909516948517905560188054909116909317600160a01b60ff0219167401000000000000000000000000000000000000000092151592909202919091179091556043805460ff191692151592909217909155600654600754600854604080516080810185905260a0810184905260c0810183905260e08082526002805461010098811615890260001901168190049183018290527fb36b735efbdaa740f132590befa1bf2634b517020a061e9fc5921de38a230bb499509750600396600496600596909590949093928392602084019284019160608501918501908d908015620003de5780601f10620003b257610100808354040283529160200191620003de565b820191906000526020600020905b815481529060010190602001808311620003c057829003601f168201915b505085810384528b54600260001961010060018416150201909116048082526020909101908c908015620004565780601f106200042a5761010080835404028352916020019162000456565b820191906000526020600020905b8154815290600101906020018083116200043857829003601f168201915b505085810383528a54600260001961010060018416150201909116048082526020909101908b908015620004ce5780601f10620004a257610100808354040283529160200191620004ce565b820191906000526020600020905b815481529060010190602001808311620004b057829003601f168201915b505085810382528954600260001961010060018416150201909116048082526020909101908a908015620005465780601f106200051a5761010080835404028352916020019162000546565b820191906000526020600020905b8154815290600101906020018083116200052857829003601f168201915b50509b50505050505050505050505060405180910390a150505062000618565b6000546001600160a01b03165b90565b828054600181600116156101000203166002900490600052602060002090601f016020900481019282601f10620005b957805160ff1916838001178555620005e9565b82800160010185558215620005e9579182015b82811115620005e9578251825591602001919060010190620005cc565b50620005f7929150620005fb565b5090565b6200057391905b80821115620005f7576000815560010162000602565b615f9d80620006286000396000f3fe6080604052600436106103815760003560e01c806377d8a830116101d1578063bb49516b11610102578063e3d8e46d116100a0578063f3f437031161006f578063f3f4370314610fa4578063f405228914610ff0578063f53c7d0814611005578063fd9be1b21461101a57610381565b8063e3d8e46d14610efd578063e65ba4e314610f32578063e802ae1414610f47578063f2fde38b14610f7157610381565b8063c629dad9116100dc578063c629dad914610e2d578063c7dd4b4f14610ea0578063d566bcf014610eb5578063ddc110fa14610eca57610381565b8063bb49516b14610dee578063c53d6e4714610e03578063c56969ab14610e1857610381565b80639ac2bf911161016f578063af24b0d611610149578063af24b0d614610c8a578063b4df152b14610c9f578063b4f8eadd14610cb4578063b582ec5f14610dd957610381565b80639ac2bf9114610c4b5780639ae8886a14610c60578063a9438da914610c7557610381565b80638f32d59b116101ab5780638f32d59b14610af657806390a7ba5b14610b0b57806390c31c4c14610b2057806396853e1314610b3557610381565b806377d8a83014610a005780637f3044ed14610a335780638da5cb5b14610ae157610381565b806339df3f4f116102b65780634df7e3d0116102545780636fa83c22116102235780636fa83c22146109b9578063715018a6146109ce57806372c3477d146109e357806375edd257146109eb57610381565b80634df7e3d01461096557806350b9c4281461097a578063592ad7391461098f57806359f9fe82146109a457610381565b8063400149111161029057806340014911146107c257806344d9a374146107d7578063452db96d146108015780634acfd9b81461083457610381565b806339df3f4f146107835780633a33fbfe146107985780633ccfd60b146107ad57610381565b8063264adb05116103235780632de729eb116102fd5780632de729eb1461057d5780632e52d606146105a75780632f294bc91461063157806338bbfa501461064657610381565b8063264adb051461048757806327dc297e1461049c5780632caf9eee1461055457610381565b80631c3ed1d31161035f5780631c3ed1d3146103f15780631cf4c3d1146104375780631ded3bec1461044c57806323d370ba1461045457610381565b80630b8ec7401461038357806310cd4b8a1461038b5780631827f45d146103c7575b005b61038161104d565b34801561039757600080fd5b506103b5600480360360208110156103ae57600080fd5b503561125f565b60408051918252519081900360200190f35b3480156103d357600080fd5b50610381600480360360208110156103ea57600080fd5b5035611271565b3480156103fd57600080fd5b5061041b6004803603602081101561041457600080fd5b50356112c0565b604080516001600160a01b039092168252519081900360200190f35b34801561044357600080fd5b506103816112db565b61038161174b565b34801561046057600080fd5b506103816004803603602081101561047757600080fd5b50356001600160a01b03166117f5565b34801561049357600080fd5b506103b5611a7f565b3480156104a857600080fd5b50610381600480360360408110156104bf57600080fd5b81359190810190604081016020820135600160201b8111156104e057600080fd5b8201836020820111156104f257600080fd5b803590602001918460018302840111600160201b8311171561051357600080fd5b91908080601f016020809104026020016040519081016040528093929190818152602001838380828437600092019190915250929550611a85945050505050565b34801561056057600080fd5b50610569611ee2565b604080519115158252519081900360200190f35b34801561058957600080fd5b50610381600480360360208110156105a057600080fd5b5035611ef2565b3480156105b357600080fd5b506105bc612225565b6040805160208082528351818301528351919283929083019185019080838360005b838110156105f65781810151838201526020016105de565b50505050905090810190601f1680156106235780820380516001836020036101000a031916815260200191505b509250505060405180910390f35b34801561063d57600080fd5b5061041b6122b3565b34801561065257600080fd5b506103816004803603606081101561066957600080fd5b81359190810190604081016020820135600160201b81111561068a57600080fd5b82018360208201111561069c57600080fd5b803590602001918460018302840111600160201b831117156106bd57600080fd5b91908080601f0160208091040260200160405190810160405280939291908181526020018383808284376000920191909152509295949360208101935035915050600160201b81111561070f57600080fd5b82018360208201111561072157600080fd5b803590602001918460018302840111600160201b8311171561074257600080fd5b91908080601f0160208091040260200160405190810160405280939291908181526020018383808284376000920191909152509295506122c2945050505050565b34801561078f57600080fd5b506103816122f3565b3480156107a457600080fd5b506103b561239f565b3480156107b957600080fd5b506103816123a5565b3480156107ce57600080fd5b5061038161246f565b3480156107e357600080fd5b506103b5600480360360208110156107fa57600080fd5b503561254e565b34801561080d57600080fd5b506103b56004803603602081101561082457600080fd5b50356001600160a01b0316612560565b34801561084057600080fd5b506108676004803603602081101561085757600080fd5b50356001600160a01b0316612572565b604080519081018590528315156060820152821515608082015281151560a082015260c08082528751908201528651819060208083019160e08401918b019080838360005b838110156108c45781810151838201526020016108ac565b50505050905090810190601f1680156108f15780820380516001836020036101000a031916815260200191505b5083810382528851815288516020918201918a019080838360005b8381101561092457818101518382015260200161090c565b50505050905090810190601f1680156109515780820380516001836020036101000a031916815260200191505b509850505050505050505060405180910390f35b34801561097157600080fd5b506105bc6126d2565b34801561098657600080fd5b506103b561272a565b34801561099b57600080fd5b506103b5612730565b3480156109b057600080fd5b506103b5612736565b3480156109c557600080fd5b506103b561273c565b3480156109da57600080fd5b50610381612742565b6103816127d6565b3480156109f757600080fd5b50610381612856565b348015610a0c57600080fd5b5061038160048036036020811015610a2357600080fd5b50356001600160a01b0316612cc1565b348015610a3f57600080fd5b5061038160048036036020811015610a5657600080fd5b810190602081018135600160201b811115610a7057600080fd5b820183602082011115610a8257600080fd5b803590602001918460208302840111600160201b83111715610aa357600080fd5b919080806020026020016040519081016040528093929190818152602001838360200280828437600092019190915250929550612cd6945050505050565b348015610aed57600080fd5b5061041b612e61565b348015610b0257600080fd5b50610569612e71565b348015610b1757600080fd5b506103b5612e82565b348015610b2c57600080fd5b50610381612e88565b348015610b4157600080fd5b50610b5f60048036036020811015610b5857600080fd5b5035612f88565b604051808060200180602001858152602001848152602001838103835287818151815260200191508051906020019080838360005b83811015610bac578181015183820152602001610b94565b50505050905090810190601f168015610bd95780820380516001836020036101000a031916815260200191505b50838103825286518152865160209182019188019080838360005b83811015610c0c578181015183820152602001610bf4565b50505050905090810190601f168015610c395780820380516001836020036101000a031916815260200191505b50965050505050505060405180910390f35b348015610c5757600080fd5b506103b56130d4565b348015610c6c57600080fd5b506105bc6130da565b348015610c8157600080fd5b506103b5613135565b348015610c9657600080fd5b506103b561313b565b348015610cab57600080fd5b5061041b613141565b348015610cc057600080fd5b50610cde60048036036020811015610cd757600080fd5b5035613150565b604080519081018490526001600160a01b03831660608201526080810182905260a08082528651908201528551819060208083019160c08401918a019080838360005b83811015610d39578181015183820152602001610d21565b50505050905090810190601f168015610d665780820380516001836020036101000a031916815260200191505b50838103825287518152875160209182019189019080838360005b83811015610d99578181015183820152602001610d81565b50505050905090810190601f168015610dc65780820380516001836020036101000a031916815260200191505b5097505050505050505060405180910390f35b348015610de557600080fd5b506105bc6132bc565b348015610dfa57600080fd5b506103b5613317565b348015610e0f57600080fd5b5061038161331d565b348015610e2457600080fd5b506103b5613427565b348015610e3957600080fd5b50610e5760048036036020811015610e5057600080fd5b503561342d565b604080519889526001600160a01b039097166020890152878701959095526060870193909352608086019190915260a085015260c084015260e083015251908190036101000190f35b348015610eac57600080fd5b506103b561348a565b348015610ec157600080fd5b506103b5613490565b348015610ed657600080fd5b5061038160048036036020811015610eed57600080fd5b50356001600160a01b0316613496565b348015610f0957600080fd5b50610f1261350f565b604080519384529115156020840152151582820152519081900360600190f35b348015610f3e57600080fd5b506103b561354b565b348015610f5357600080fd5b506103b560048036036020811015610f6a57600080fd5b5035613551565b348015610f7d57600080fd5b5061038160048036036020811015610f9457600080fd5b50356001600160a01b0316613563565b348015610fb057600080fd5b50610fd760048036036020811015610fc757600080fd5b50356001600160a01b03166135b6565b6040805192835260208301919091528051918290030190f35b348015610ffc57600080fd5b506103816135cf565b34801561101157600080fd5b506103b5613d13565b34801561102657600080fd5b506103816004803603602081101561103d57600080fd5b50356001600160a01b0316613d19565b3360085434101561105d57600080fd5b6001600160a01b0381166000908152603860205260409020600301805462ff0000191662010000179055601854600160b01b900460ff161561109e57600080fd5b3360008181526038602090815260409182902080548351601f60026000196101006001861615020190931692909204918201849004840281018401909452808452606093928301828280156111345780601f1061110957610100808354040283529160200191611134565b820191906000526020600020905b81548152906001019060200180831161111757829003601f168201915b50505050509050606060386000846001600160a01b03166001600160a01b031681526020019081526020016000206001018054600181600116156101000203166002900480601f0160208091040260200160405190810160405280929190818152602001828054600181600116156101000203166002900480156111f95780601f106111ce576101008083540402835291602001916111f9565b820191906000526020600020905b8154815290600101906020018083116111dc57829003601f168201915b5050505050905081516000141580156112125750805115155b61121b57600080fd5b600c805460010190556040805490517fdcd159d28cd065bc018b98e7871c95200854b11d0986dfc7d0dba5e3bd5fbe7290600090a261125933613496565b50505050565b603f6020526000908152604090205481565b611279612e71565b6112bb5760408051600160e51b62461bcd0281526020600482018190526024820152600080516020615f52833981519152604482015290519081900360640190fd5b604155565b603d602052600090815260409020546001600160a01b031681565b6112e3612e71565b6113255760408051600160e51b62461bcd0281526020600482018190526024820152600080516020615f52833981519152604482015290519081900360640190fd5b61132d615d31565b60008080805b6006548310156114a6576000838152603d60205260408120546001600160a01b0316611360576000611391565b6000848152603f6020526040902054601a8054909190811061137e57fe5b9060005260206000209060050201600201545b60408051610100810182526000878152603c6020908152838220548352888252603d8152838220546001600160a01b031681840152888252603f905282902054918101919091526060810182905290915060199060808101601c87600781106113f657fe5b600490810291909101600290810154835260208084018a9052604080548186015260006060958601819052875460018082018a559882529083902087516008909202019081559186015182880180546001600160a01b0319166001600160a01b039092169190911790558501519181019190915591830151600383015560808301519082015560a0820151600582015560c0820151600682015560e0909101516007909101559093019250611333565b60445491505b6044546006540182101561174457819350601982815481106114ca57fe5b600091825260209182902060408051610100810182526008909302909101805483526001808201546001600160a01b0316948401949094526002810154918301919091526003810154606083015260048101546080830152600581015460a0830152600681015460c08301526007015460e08201529550820190505b60445460065401811015611608576019818154811061156157fe5b600091825260209091206008909102015485511115611600576019818154811061158757fe5b6000918252602091829020604080516101008101825260089093029091018054835260018101546001600160a01b0316938301939093526002830154908201526003820154606082015260048201546080820152600582015460a0820152600682015460c082015260079091015460e082015294509250825b600101611546565b818414611739576019828154811061161c57fe5b90600052602060002090600802016019858154811061163757fe5b60009182526020909120825460089092020190815560018083015490820180546001600160a01b0319166001600160a01b03909216919091179055600280830154908201556003808301549082015560048083015490820155600580830154908201556006808301549082015560079182015491015560198054869190849081106116be57fe5b6000918252602091829020835160089290920201908155908201516001820180546001600160a01b0319166001600160a01b0390921691909117905560408201516002820155606082015160038201556080820151600482015560a0820151600582015560c0820151600682015560e0909101516007909101555b6001909101906114ac565b5050505050565b3360085434101561175b57600080fd5b6001600160a01b0381166000908152603860205260408082206003908101805462ff00001916620100001790553380845291909220909101805461ffff19169055601854600160b01b900460ff16156117b357600080fd5b600c805460010190556040805490517fa7a54b0ba7db69f1636213c1d21f424409b1b3190a8e3d1a078ca7a387312e3990600090a26117f133612cc1565b5050565b611800600a54613dbf565b60175460408051600160e11b632105c0fb028152815160009384936001600160a01b039091169263420b81f69260048083019392829003018186803b15801561184857600080fd5b505afa15801561185c573d6000803e3d6000fd5b505050506040513d604081101561187257600080fd5b50805160209182015160408051600160e01b6310645d810281526fffffffffffffffffffffffffffffffff90931660048401819052905190955090935061191b9273__Lucky7Library_________________________926310645d819260248083019392829003018186803b1580156118ea57600080fd5b505af41580156118fe573d6000803e3d6000fd5b505050506040513d602081101561191457600080fd5b5051613f8b565b6001600160a01b038416600090815260386020908152604090912082516119489391929190910190615d7f565b506001600160a01b0383166000908152603860205260409020600301805460ff19166001179055601854600160a01b900460ff16611a7a57600073__Lucky7Library_________________________6310645d816042546040518263ffffffff1660e01b81526004018082815260200191505060206040518083038186803b1580156119d357600080fd5b505af41580156119e7573d6000803e3d6000fd5b505050506040513d60208110156119fd57600080fd5b505160428054600101905560185460408051600160e11b634e071fbd0281526004810184905260006024820181905291519394506001600160a01b0390921692639c0e3f7a92604480820193929182900301818387803b158015611a6057600080fd5b505af1158015611a74573d6000803e3d6000fd5b50505050505b505050565b60015481565b611a8d614051565b6001600160a01b0316336001600160a01b031614611aaa57600080fd5b604080513031815290517f04be25a4c0fe4c39136ca055daaac08ac6b3041b2e1f2a1b698bac12f1cbdc4a9181900360200190a16000828152603a60205260409020546001600160a01b031615801590611b3157506000828152603a60209081526040808320546001600160a01b031683526038909152902060030154610100900460ff16155b15611dc8576000828152603a60209081526040808320546001600160a01b03168352603882529091208251611b6e92600190920191840190615d7f565b506000828152603a6020908152604080832080546001600160a01b03908116855260389093528184206003908101805461ff00191661010017905590549092168352909120015460ff16151560011415611dc3576000828152603a60209081526040808320546001600160a01b03168352603890915290206003015460ff6201000090910416151560011415611c24576000828152603a6020526040902054611c1f906001600160a01b0316613496565b611d8b565b601854600160b01b900460ff16611d8b57604080546000848152603a6020908152838220546001600160a01b03168083526038825291849020845185815281546002610100600180841615919091026000190190921604968201879052949593947f6f6a595f1625060fd0f882e953621a1d74eda187446f39622246322aa887c902949293908401928291820190606083019086908015611d065780601f10611cdb57610100808354040283529160200191611d06565b820191906000526020600020905b815481529060010190602001808311611ce957829003601f168201915b5050838103825284546002600019610100600184161502019091160480825260209091019085908015611d7a5780601f10611d4f57610100808354040283529160200191611d7a565b820191906000526020600020905b815481529060010190602001808311611d5d57829003601f168201915b505094505050505060405180910390a35b601854600160b01b900460ff16151560011415611dc3576000828152603a6020526040902054611dc3906001600160a01b0316613496565b6117f1565b6000828152603b60205260409020546001600160a01b031615801590611e3957506000828152603b60209081526040808320546001600160a01b03168352603890915290206003015460ff6201000090910416151560011480611e395750601854600160b01b900460ff1615156001145b156117f157611e478161423b565b6000838152603b6020908152604080832080546001600160a01b039081168552603890935281842060020194909455925416815220600301805462ff000019169055601854600160b01b900460ff16151560011415611ec1576000828152603b6020526040902054611dc3906001600160a01b031661424e565b6000828152603b60205260409020546117f1906001600160a01b03166144d0565b601854600160b01b900460ff1681565b600080601c60016006540360078110611f0757fe5b6004020160020154601a8481548110611f1c57fe5b9060005260206000209060050201600201541115611f88576001600654039150611f81601c8360078110611f4c57fe5b6004020160020154601a8581548110611f6157fe5b90600052602060002090600502016002015461489090919063ffffffff16565b90506120fd565b601e54601a805485908110611f9957fe5b9060005260206000209060050201600201541015611ffa5760009150611f81601a8481548110611fc557fe5b906000526020600020906005020160020154601c8460078110611fe457fe5b600402016002015461489090919063ffffffff16565b601c826007811061200757fe5b6004020160020154601a848154811061201c57fe5b906000526020600020906005020160020154111561203f57600190910190611ffa565b601c826007811061204c57fe5b6004020160020154601a848154811061206157fe5b9060005260206000209060050201600201541415612081575060006120fd565b60006120ab601c600185036007811061209657fe5b6004020160020154601a8681548110611f6157fe5b905060006120de601a86815481106120bf57fe5b906000526020600020906005020160020154601c8660078110611fe457fe5b9050818111156120f6576001840393508192506120fa565b8092505b50505b6000828152603d60205260409020546001600160a01b0316158061212e57506000828152603c602052604090205481105b15611a7a57601a838154811061214057fe5b6000918252602080832060036005909302019190910154848352603d8252604080842080546001600160a01b0319166001600160a01b0390931692909217909155603c8252808320849055603f9091529020839055601a8054849081106121a357fe5b6000918252602080832060026005909302019190910154848352603e8083526040808520839055603d84529384902054908352835191825291810184905280830185905291516001600160a01b03909116917f3aba55b4f09d935ff9a3c49a2fc37832dde4fde12062957a9d261357f3c4a982919081900360600190a2505050565b6003805460408051602060026001851615610100026000190190941693909304601f810184900484028201840190925281815292918301828280156122ab5780601f10612280576101008083540402835291602001916122ab565b820191906000526020600020905b81548152906001019060200180831161228e57829003601f168201915b505050505081565b6017546001600160a01b031681565b5050600080805260156020527fa31547ce6245cdb9ecea19cf8c7eb9f5974025bb4075011409251ae855b30aed5550565b6122fb612e71565b61233d5760408051600160e51b62461bcd0281526020600482018190526024820152600080516020615f52833981519152604482015290519081900360640190fd5b6018805460ff600160b01b8083048216158102600160b01b60ff021990931692909217928390556040805192909304161515815290517f7632252ebff214b4969a92f7ca8290a9aa92e8dbea9b95ae49a7ea372c0860269181900360200190a1565b60085481565b6123ad615dfd565b5033600090815260466020908152604091829020825180840184528154808252600190920154928101839052925490911480156123ea5750815115155b6123f357600080fd5b336000818152604660205260408082208290555183156108fc0291849190818181858888f1935050505015801561242e573d6000803e3d6000fd5b5060408054815190815260208101839052815133927f256642a903d86ec186d0ad895b74bdbe7f9e5a72db568f4c4d58c2fa38b39e1c928290030190a25050565b60008061247a61350f565b604354919450925060ff1615156001141590506124c15760018215151480156124a557506001811515145b806124b357506124b3612e71565b6124bc57600080fd5b6124de565b60018215151480156124d557506001811515145b6124de57600080fd5b601a546124ea57600080fd5b6124f26122f3565b6124fa6112db565b6125026135cf565b61250a61331d565b50506040805460019081018255600f543360009081526046602052838120805490920182559254908201819055600b839055600c9290925542905560065402604455565b603e6020526000908152604090205481565b601b6020526000908152604090205481565b60386020908152600091825260409182902080548351601f600260001961010060018616150201909316929092049182018490048402810184019094528084529092918391908301828280156126095780601f106125de57610100808354040283529160200191612609565b820191906000526020600020905b8154815290600101906020018083116125ec57829003601f168201915b505050505090806001018054600181600116156101000203166002900480601f0160208091040260200160405190810160405280929190818152602001828054600181600116156101000203166002900480156126a75780601f1061267c576101008083540402835291602001916126a7565b820191906000526020600020905b81548152906001019060200180831161268a57829003601f168201915b50505050600283015460039093015491929160ff808216925061010082048116916201000090041686565b6002805460408051602060018416156101000260001901909316849004601f810184900484028201840190925281815292918301828280156122ab5780601f10612280576101008083540402835291602001916122ab565b60095481565b600b5481565b60065481565b600f5481565b61274a612e71565b61278c5760408051600160e51b62461bcd0281526020600482018190526024820152600080516020615f52833981519152604482015290519081900360640190fd5b600080546040516001600160a01b03909116907f8be0079c531659141344cd1fd0a4f28419497f9722a3daafe3b4186f6b6457e0908390a3600080546001600160a01b0319169055565b336007543410156127e657600080fd5b336000818152603860205260409020600301805461ffff19169055601854600160b01b900460ff161561281857600080fd5b600b805460010190556040805490517fe8cd617b27d7c0e98105f603492d0988c6ca3e17f29c944ea350063c8e0792aa90600090a26117f133612cc1565b61285e612e71565b6128a05760408051600160e51b62461bcd0281526020600482018190526024820152600080516020615f52833981519152604482015290519081900360640190fd5b6128a8615e17565b600080805b60065481101561125957809250601c81600781106128c757fe5b6040805160049290920292909201805460a06020601f60026000196101006001871615020190941693909304928301819004028401810190945260808301818152929391928492909184918401828280156129635780601f1061293857610100808354040283529160200191612963565b820191906000526020600020905b81548152906001019060200180831161294657829003601f168201915b50505050508152602001600182018054600181600116156101000203166002900480601f016020809104026020016040519081016040528092919081815260200182805460018160011615610100020316600290048015612a055780601f106129da57610100808354040283529160200191612a05565b820191906000526020600020905b8154815290600101906020018083116129e857829003601f168201915b505050505081526020016002820154815260200160038201548152505093508060010191505b600654821015612bce57601c8260078110612a4257fe5b600402016002015484604001511115612bc357601c8260078110612a6257fe5b6040805160049290920292909201805460a06020601f6002600019610100600187161502019094169390930492830181900402840181019094526080830181815292939192849290918491840182828015612afe5780601f10612ad357610100808354040283529160200191612afe565b820191906000526020600020905b815481529060010190602001808311612ae157829003601f168201915b50505050508152602001600182018054600181600116156101000203166002900480601f016020809104026020016040519081016040528092919081815260200182805460018160011615610100020316600290048015612ba05780601f10612b7557610100808354040283529160200191612ba0565b820191906000526020600020905b815481529060010190602001808311612b8357829003601f168201915b505050505081526020016002820154815260200160038201548152505093508192505b600190910190612a2b565b808314612cb957601c8160078110612be257fe5b60040201601c8460078110612bf357fe5b6004020160008201816000019080546001816001161561010002031660029004612c1e929190615e3f565b5060018201816001019080546001816001161561010002031660029004612c46929190615e3f565b506002828101549082015560039182015491015583601c8260078110612c6857fe5b600402016000820151816000019080519060200190612c88929190615d7f565b506020828101518051612ca19260018501920190615d7f565b50604082015160028201556060909101516003909101555b6001016128ad565b612cca816117f5565b612cd381613d19565b50565b612cde612e71565b612d205760408051600160e51b62461bcd0281526020600482018190526024820152600080516020615f52833981519152604482015290519081900360640190fd5b60005b6007811015612e53576040518060800160405280604051806040016040528060028152602001600160f01b616d75028152508152602001604051806040016040528060018152602001600160f81b6069028152508152602001838381518110612d8857fe5b60200260200101518152602001604054815250601c8260078110612da857fe5b600402016000820151816000019080519060200190612dc8929190615d7f565b506020828101518051612de19260018501920190615d7f565b5060408201518160020155606082015181600301559050507f205b10e6817754ae69619fe35e2b49c3c9246b795133b40533171497a81e3713828281518110612e2657fe5b602002602001015182604051808381526020018281526020019250505060405180910390a1600101612d23565b506007604155612cd3612e88565b6000546001600160a01b03165b90565b6000546001600160a01b0316331490565b600c5481565b601854600160b01b900460ff161515600114612ea357600080fd5b601854600160a81b900460ff1615612eba57600080fd5b6006546041541415612f295760188054600160a81b60ff021916600160a81b179055612ee4612856565b6000604155612ef16122f3565b60188054600160a81b60ff02191690556010543360009081526046602052604090819020805490920182555460019190910155612f86565b60188054600160a81b60ff021916600160a81b179055306000818152603860205260409020600301805461ffff19169055612f6390612cc1565b601054336000908152604660205260409081902080549092018255546001909101555b565b601c8160078110612f9557fe5b60040201805460408051602060026001851615610100026000190190941693909304601f810184900484028201840190925281815292935083918301828280156130205780601f10612ff557610100808354040283529160200191613020565b820191906000526020600020905b81548152906001019060200180831161300357829003601f168201915b505050505090806001018054600181600116156101000203166002900480601f0160208091040260200160405190810160405280929190818152602001828054600181600116156101000203166002900480156130be5780601f10613093576101008083540402835291602001916130be565b820191906000526020600020905b8154815290600101906020018083116130a157829003601f168201915b5050505050908060020154908060030154905084565b600a5481565b6004805460408051602060026001851615610100026000190190941693909304601f810184900484028201840190925281815292918301828280156122ab5780601f10612280576101008083540402835291602001916122ab565b600d5481565b60105481565b6018546001600160a01b031681565b601a818154811061315d57fe5b60009182526020918290206005919091020180546040805160026001841615610100026000190190931692909204601f8101859004850283018501909152808252919350918391908301828280156131f65780601f106131cb576101008083540402835291602001916131f6565b820191906000526020600020905b8154815290600101906020018083116131d957829003601f168201915b505050505090806001018054600181600116156101000203166002900480601f0160208091040260200160405190810160405280929190818152602001828054600181600116156101000203166002900480156132945780601f1061326957610100808354040283529160200191613294565b820191906000526020600020905b81548152906001019060200180831161327757829003601f168201915b5050505060028301546003840154600490940154929390926001600160a01b03909116915085565b6005805460408051602060026001851615610100026000190190941693909304601f810184900484028201840190925281815292918301828280156122ab5780601f10612280576101008083540402835291602001916122ab565b60445481565b60005b600654811015612cd3576000818152603c60209081526040808320839055603d825280832080546001600160a01b0319169055603f8252808320839055603e825280832092909255815180830190925260018252600160fc1b60030290820152601c826007811061338d57fe5b6004020160000190805190602001906133a7929190615d7f565b50604051806040016040528060018152602001600160fc1b600302815250601c82600781106133d257fe5b6004020160010190805190602001906133ec929190615d7f565b506000601c82600781106133fc57fe5b6004020160020181905550604054601c826007811061341757fe5b6004020160030155600101613320565b60415481565b6019818154811061343a57fe5b6000918252602090912060089091020180546001820154600283015460038401546004850154600586015460068701546007909701549597506001600160a01b0390941695929491939092909188565b60405481565b60075481565b6134a1600a54613dbf565b60006134df6040518060400160405280600c8152602001600160a01b6b576f6c6672616d416c706861028152506134d7846148f0565b600954615159565b6000908152603b6020526040902080546001600160a01b0319166001600160a01b03939093169290921790915550565b600a54600954600754600854600b54600c54600d54600e5460015496909702938490039190910292909303020192908310159101421015909192565b600e5481565b603c6020526000908152604090205481565b61356b612e71565b6135ad5760408051600160e51b62461bcd0281526020600482018190526024820152600080516020615f52833981519152604482015290519081900360640190fd5b612cd38161552e565b6046602052600090815260409020805460019091015482565b6135d7612e71565b6136195760408051600160e51b62461bcd0281526020600482018190526024820152600080516020615f52833981519152604482015290519081900360640190fd5b600061362d3031600763ffffffff6155d116565b90506136418161011863ffffffff61562d16565b60445490915060075b60445460065401821015613cb15760006001600160a01b03166019838154811061367057fe5b60009182526020909120600160089092020101546001600160a01b0316146138035760405460010160466000601985815481106136a957fe5b6000918252602080832060016008909302018201546001600160a01b0316845283019390935260409091019020015414613731576136ed838263ffffffff6155d116565b60466000601985815481106136fe57fe5b60009182526020808320600160089093020191909101546001600160a01b03168352820192909252604001902055613787565b613741838263ffffffff6155d116565b604660006019858154811061375257fe5b60009182526020808320600160089093020191909101546001600160a01b031683528201929092526040019020805490910190555b604054600101604660006019858154811061379e57fe5b6000918252602080832060016008909302018201546001600160a01b031684528301939093526040909101902001556137dd838263ffffffff6155d116565b601983815481106137ea57fe5b6000918252602090912060076008909202010155600019015b606060006001600160a01b03166019848154811061381d57fe5b60009182526020909120600160089092020101546001600160a01b0316141561386257604051806040016040528060018152602001600160fc1b600302815250613926565b601a6019848154811061387157fe5b9060005260206000209060080201600201548154811061388d57fe5b6000918252602091829020600590910201805460408051601f60026000196101006001871615020190941693909304928301859004850281018501909152818152928301828280156139205780601f106138f557610100808354040283529160200191613920565b820191906000526020600020905b81548152906001019060200180831161390357829003601f168201915b50505050505b9050606060006001600160a01b03166019858154811061394257fe5b60009182526020909120600160089092020101546001600160a01b0316141561398757604051806040016040528060018152602001600160fc1b600302815250613a5d565b601a6019858154811061399657fe5b906000526020600020906008020160020154815481106139b257fe5b90600052602060002090600502016001018054600181600116156101000203166002900480601f016020809104026020016040519081016040528092919081815260200182805460018160011615610100020316600290048015613a575780601f10613a2c57610100808354040283529160200191613a57565b820191906000526020600020905b815481529060010190602001808311613a3a57829003601f168201915b50505050505b905060198481548110613a6c57fe5b906000526020600020906008020160010160009054906101000a90046001600160a01b03166001600160a01b03167f538343026e31e40972341fb0edf015061204ea9cd1158d295f5d962b7223e6bf60198681548110613ac857fe5b90600052602060002090600802016000015460198781548110613ae757fe5b90600052602060002090600802016002015460198881548110613b0657fe5b90600052602060002090600802016003015460198981548110613b2557fe5b90600052602060002090600802016004015460198a81548110613b4457fe5b90600052602060002090600802016005015460198b81548110613b6357fe5b90600052602060002090600802016006015460198c81548110613b8257fe5b9060005260206000209060080201600701548a8a604051808a81526020018981526020018881526020018781526020018681526020018581526020018481526020018060200180602001838103835285818151815260200191508051906020019080838360005b83811015613c01578181015183820152602001613be9565b50505050905090810190601f168015613c2e5780820380516001836020036101000a031916815260200191505b50838103825284518152845160209182019186019080838360005b83811015613c61578181015183820152602001613c49565b50505050905090810190601f168015613c8e5780820380516001836020036101000a031916815260200191505b509b50505050505050505050505060405180910390a2505060019091019061364a565b6000613cc53031600363ffffffff6155d116565b9050613cd881600a63ffffffff61562d16565b6011546040519192506001600160a01b03169082156108fc029083906000818181858888f19350505050158015611744573d6000803e3d6000fd5b60455481565b613d24600a54613dbf565b6000613d8f6040518060400160405280600c8152602001600160a01b6b576f6c6672616d416c706861028152506040518060400160405280600f81526020017f342072616e646f6d206e756d6265720000000000000000000000000000000000815250600954615159565b6000908152603a6020526040902080546001600160a01b0319166001600160a01b03939093169290921790915550565b6013546001600160a01b03161580613de95750601354613de7906001600160a01b031661569a565b155b15613dfa57613df8600061569e565b505b601360009054906101000a90046001600160a01b03166001600160a01b03166338cc48316040518163ffffffff1660e01b8152600401602060405180830381600087803b158015613e4a57600080fd5b505af1158015613e5e573d6000803e3d6000fd5b505050506040513d6020811015613e7457600080fd5b50516012546001600160a01b03908116911614613f2757601360009054906101000a90046001600160a01b03166001600160a01b03166338cc48316040518163ffffffff1660e01b8152600401602060405180830381600087803b158015613edb57600080fd5b505af1158015613eef573d6000803e3d6000fd5b505050506040513d6020811015613f0557600080fd5b5051601280546001600160a01b0319166001600160a01b039092169190911790555b60125460408051600160e21b63329ab4790281526004810184905290516001600160a01b039092169163ca6ad1e49160248082019260009290919082900301818387803b158015613f7757600080fd5b505af1158015611744573d6000803e3d6000fd5b606081613fb357506040805180820190915260018152600160fc1b600302602082015261404c565b8160005b8115613fcb57600101600a82049150613fb7565b6060816040519080825280601f01601f191660200182016040528015613ff8576020820181803883390190505b50905060001982015b851561404657600a860660300160f81b8282806001900393508151811061402457fe5b60200101906001600160f81b031916908160001a905350600a86049550614001565b50925050505b919050565b6013546000906001600160a01b0316158061407e575060135461407c906001600160a01b031661569a565b155b1561408f5761408d600061569e565b505b601360009054906101000a90046001600160a01b03166001600160a01b03166338cc48316040518163ffffffff1660e01b8152600401602060405180830381600087803b1580156140df57600080fd5b505af11580156140f3573d6000803e3d6000fd5b505050506040513d602081101561410957600080fd5b50516012546001600160a01b039081169116146141bc57601360009054906101000a90046001600160a01b03166001600160a01b03166338cc48316040518163ffffffff1660e01b8152600401602060405180830381600087803b15801561417057600080fd5b505af1158015614184573d6000803e3d6000fd5b505050506040513d602081101561419a57600080fd5b5051601280546001600160a01b0319166001600160a01b039092169190911790555b601260009054906101000a90046001600160a01b03166001600160a01b031663c281d19e6040518163ffffffff1660e01b815260040160206040518083038186803b15801561420a57600080fd5b505afa15801561421e573d6000803e3d6000fd5b505050506040513d602081101561423457600080fd5b5051905090565b60006142488260006156a8565b92915050565b604080516001600160a01b03831660009081526038602090815290839020805460026001821615610100026000190190911604601f8101839004909202830160a0908101909452608083018281529293849392908401828280156142f35780601f106142c8576101008083540402835291602001916142f3565b820191906000526020600020905b8154815290600101906020018083116142d657829003601f168201915b5050505050815260200160386000846001600160a01b03166001600160a01b031681526020019081526020016000206001018054600181600116156101000203166002900480601f0160208091040260200160405190810160405280929190818152602001828054600181600116156101000203166002900480156143b95780601f1061438e576101008083540402835291602001916143b9565b820191906000526020600020905b81548152906001019060200180831161439c57829003601f168201915b50505091835250506001600160a01b03831660009081526038602090815260409182902060020154908301528054910152604154601c90600781106143fa57fe5b60040201600082015181600001908051906020019061441a929190615d7f565b5060208281015180516144339260018501920190615d7f565b5060408201518160020155606082015181600301559050507f205b10e6817754ae69619fe35e2b49c3c9246b795133b40533171497a81e371360386000836001600160a01b03166001600160a01b0316815260200190815260200160002060020154604154604051808381526020018281526020019250505060405180910390a15060418054600101905560188054600160a81b60ff0219169055565b6144d8615eb4565b6001600160a01b0382166000908152603860209081526040918290208251815460026001821615610100026000190190911604601f8101849004909302810160e090810190945260c081018381529093919284928491908401828280156145805780601f1061455557610100808354040283529160200191614580565b820191906000526020600020905b81548152906001019060200180831161456357829003601f168201915b50505050508152602001600182018054600181600116156101000203166002900480601f0160208091040260200160405190810160405280929190818152602001828054600181600116156101000203166002900480156146225780601f106145f757610100808354040283529160200191614622565b820191906000526020600020905b81548152906001019060200180831161460557829003601f168201915b5050509183525050600282015460208083019190915260039092015460ff8082161515604080850191909152610100830482161515606080860191909152620100009093049091161515608093840152805160a08101825285518152858501518186015285820151818301526001600160a01b038816928101929092525491810191909152601a805460018181018084556000938452845180519798509396919590949360059093027f057c384a7d1c54f3a1b2e5e67b2617b8224fdfd1ea7234eea573a6ff665ff63e01926146fe9284929190910190615d7f565b5060208281015180516147179260018501920190615d7f565b506040820151816002015560608201518160030160006101000a8154816001600160a01b0302191690836001600160a01b03160217905550608082015181600401555050039050604054836001600160a01b03167f55e46bc67aa8ca9c625f4e25d40ab91d3e3878a23e0baff870cb4bc532cd9d6684604001518560000151866020015186604051808581526020018060200180602001848152602001838103835286818151815260200191508051906020019080838360005b838110156147e95781810151838201526020016147d1565b50505050905090810190601f1680156148165780820380516001836020036101000a031916815260200191505b50838103825285518152855160209182019187019080838360005b83811015614849578181015183820152602001614831565b50505050905090810190601f1680156148765780820380516001836020036101000a031916815260200191505b50965050505050505060405180910390a3611a7a81611ef2565b6000828211156148ea5760408051600160e51b62461bcd02815260206004820152601e60248201527f536166654d6174683a207375627472616374696f6e206f766572666c6f770000604482015290519081900360640190fd5b50900390565b604080518082018252600c81527f286d6f642828312f2831305e000000000000000000000000000000000000000060208083019190915260038054845160026001831615610100026000190190921691909104601f81018490048402820184019095528481526060948594614a9d94909391908301828280156149b45780601f10614989576101008083540402835291602001916149b4565b820191906000526020600020905b81548152906001019060200180831161499757829003601f168201915b50506040805180820182526001808252600160f81b602d026020808401919091526001600160a01b038d1660009081526038825284902080548551600294821615610100026000190190911693909304601f8101839004830284018301909552848352929650909450909250830182828015614a715780601f10614a4657610100808354040283529160200191614a71565b820191906000526020600020905b815481529060010190602001808311614a5457829003601f168201915b5050505050604051806040016040528060068152602001600160d11b6514949518982f02815250615799565b60048054604080516020601f60026000196101006001881615020190951694909404938401819004810282018101909252828152939450614c0193859390929091830182828015614b2f5780601f10614b0457610100808354040283529160200191614b2f565b820191906000526020600020905b815481529060010190602001808311614b1257829003601f168201915b50506040805180820182526005808252600160db1b640586260bc5026020808401919091528154845160026001831615610100026000190190921691909104601f81018390048302820183019095528481529296509194509250830182828015614bda5780601f10614baf57610100808354040283529160200191614bda565b820191906000526020600020905b815481529060010190602001808311614bbd57829003601f168201915b5050505050604051806040016040528060018152602001600160f81b602b02815250615799565b9050614dac8160386000866001600160a01b03166001600160a01b031681526020019081526020016000206001018054600181600116156101000203166002900480601f016020809104026020016040519081016040528092919081815260200182805460018160011615610100020316600290048015614cc35780601f10614c9857610100808354040283529160200191614cc3565b820191906000526020600020905b815481529060010190602001808311614ca657829003601f168201915b5050604080518082018252600e81527f29292d6d6f642828312f2831305e00000000000000000000000000000000000060208083019190915260038054845160026001831615610100026000190190921691909104601f8101849004840282018401909552848152929650919450909250830182828015614d855780601f10614d5a57610100808354040283529160200191614d85565b820191906000526020600020905b815481529060010190602001808311614d6857829003601f168201915b5050505050604051806040016040528060018152602001600160f81b602d02815250615799565b6001600160a01b03841660009081526038602090815260409182902080548351601f60026000196101006001861615020190931692909204918201849004840281018401909452808452939450614f2993859392830182828015614e515780601f10614e2657610100808354040283529160200191614e51565b820191906000526020600020905b815481529060010190602001808311614e3457829003601f168201915b505060408051808201825260068152600160d11b6514949518982f0260208083019190915260048054845160026001831615610100026000190190921691909104601f8101849004840282018401909552848152929650919450909250830182828015614eff5780601f10614ed457610100808354040283529160200191614eff565b820191906000526020600020905b815481529060010190602001808311614ee257829003601f168201915b5050505050604051806040016040528060048152602001600160e11b631618982f02815250615799565b6040805180820182526001808252600160fb1b6005026020808401919091526001600160a01b038816600090815260388252849020820180548551600294821615610100026000190190911693909304601f81018390048302840183019095528483529495506150b89486949091830182828015614fe85780601f10614fbd57610100808354040283529160200191614fe8565b820191906000526020600020905b815481529060010190602001808311614fcb57829003601f168201915b505060408051808201825260078152600160c91b661494949798982f026020808301919091526001600160a01b038d16600090815260388252839020600190810180548551600293821615610100026000190190911692909204601f810184900484028301840190955284825292965094509092508301828280156150ae5780601f10615083576101008083540402835291602001916150ae565b820191906000526020600020905b81548152906001019060200180831161509157829003601f168201915b5050505050615799565b90507f261af219212047633bb60c8d0cc7e33d217c38edf6fa7e53acb97a3f94180de5816040518080602001828103825283818151815260200191508051906020019080838360005b83811015615119578181015183820152602001615101565b50505050905090810190601f1680156151465780820380516001836020036101000a031916815260200191505b509250505060405180910390a192915050565b6013546000906001600160a01b031615806151865750601354615184906001600160a01b031661569a565b155b1561519757615195600061569e565b505b601360009054906101000a90046001600160a01b03166001600160a01b03166338cc48316040518163ffffffff1660e01b8152600401602060405180830381600087803b1580156151e757600080fd5b505af11580156151fb573d6000803e3d6000fd5b505050506040513d602081101561521157600080fd5b50516012546001600160a01b039081169116146152c457601360009054906101000a90046001600160a01b03166001600160a01b03166338cc48316040518163ffffffff1660e01b8152600401602060405180830381600087803b15801561527857600080fd5b505af115801561528c573d6000803e3d6000fd5b505050506040513d60208110156152a257600080fd5b5051601280546001600160a01b0319166001600160a01b039092169190911790555b60125460408051600160e21b630bbceb3302815260248101859052600481019182528651604482015286516000936001600160a01b031692632ef3accc928992889291829160649091019060208601908083838c5b83811015615331578181015183820152602001615319565b50505050905090810190601f16801561535e5780820380516001836020036101000a031916815260200191505b509350505050602060405180830381600087803b15801561537e57600080fd5b505af1158015615392573d6000803e3d6000fd5b505050506040513d60208110156153a857600080fd5b50519050670de0b6b3a76400003a8402018111156153ca575060009050615527565b601254604051600160e01b63c51be90f028152600060048201818152606483018790526080602484019081528951608485015289516001600160a01b039095169463c51be90f948794938c938c938c93604481019160a49091019060208801908083838c5b8381101561544757818101518382015260200161542f565b50505050905090810190601f1680156154745780820380516001836020036101000a031916815260200191505b50838103825285518152855160209182019187019080838360005b838110156154a757818101518382015260200161548f565b50505050905090810190601f1680156154d45780820380516001836020036101000a031916815260200191505b5096505050505050506020604051808303818588803b1580156154f657600080fd5b505af115801561550a573d6000803e3d6000fd5b50505050506040513d602081101561552157600080fd5b50519150505b9392505050565b6001600160a01b03811661557657604051600160e51b62461bcd028152600401808060200182810382526026815260200180615f0b6026913960400191505060405180910390fd5b600080546040516001600160a01b03808516939216917f8be0079c531659141344cd1fd0a4f28419497f9722a3daafe3b4186f6b6457e091a3600080546001600160a01b0319166001600160a01b0392909216919091179055565b6000826155e057506000614248565b828202828482816155ed57fe5b041461552757604051600160e51b62461bcd028152600401808060200182810382526021815260200180615f316021913960400191505060405180910390fd5b60008082116156865760408051600160e51b62461bcd02815260206004820152601a60248201527f536166654d6174683a206469766973696f6e206279207a65726f000000000000604482015290519081900360640190fd5b600082848161569157fe5b04949350505050565b3b90565b60006142486159ad565b6000828180805b83518110156157805760308482815181106156c657fe5b602001015160f81c60f81b60f81c60ff1610158015615702575060398482815181106156ee57fe5b602001015160f81c60f81b60f81c60ff1611155b1561574e57811561571f578561571757615780565b600019909501945b600a83029250603084828151811061573357fe5b602001015160f81c60f81b60f81c60ff160383019250615778565b83818151811061575a57fe5b602001015160f81c60f81b60f81c60ff16602e141561577857600191505b6001016156af565b5084156157905784600a0a820291505b50949350505050565b6060808690506060869050606086905060608690506060869050606081518351855187518951010101016040519080825280601f01601f1916602001820160405280156157ed576020820181803883390190505b509050806000805b88518110156158465788818151811061580a57fe5b602001015160f81c60f81b83838060010194508151811061582757fe5b60200101906001600160f81b031916908160001a9053506001016157f5565b5060005b875181101561589b5787818151811061585f57fe5b602001015160f81c60f81b83838060010194508151811061587c57fe5b60200101906001600160f81b031916908160001a90535060010161584a565b5060005b86518110156158f0578681815181106158b457fe5b602001015160f81c60f81b8383806001019450815181106158d157fe5b60200101906001600160f81b031916908160001a90535060010161589f565b5060005b85518110156159455785818151811061590957fe5b602001015160f81c60f81b83838060010194508151811061592657fe5b60200101906001600160f81b031916908160001a9053506001016158f4565b5060005b845181101561599a5784818151811061595e57fe5b602001015160f81c60f81b83838060010194508151811061597b57fe5b60200101906001600160f81b031916908160001a905350600101615949565b50909d9c50505050505050505050505050565b6000806159cd731d3b2638a7cc9f2cb3d298a3da7a90b67e5506ed61569a565b1115615a2f57601380546001600160a01b031916731d3b2638a7cc9f2cb3d298a3da7a90b67e5506ed17905560408051808201909152600b8152600160aa1b6a195d1a17db585a5b9b995d026020820152615a2790615d1e565b506001612e6e565b6000615a4e73c03a2615d5efaf5f49f60b7bb6583eaec212fdf161569a565b1115615ab757601380546001600160a01b03191673c03a2615d5efaf5f49f60b7bb6583eaec212fdf117905560408051808201909152600c81527f6574685f726f707374656e3300000000000000000000000000000000000000006020820152615a2790615d1e565b6000615ad673b7a07bcf2ba2f2703b24c0691b5278999c59ac7e61569a565b1115615b2e57601380546001600160a01b03191673b7a07bcf2ba2f2703b24c0691b5278999c59ac7e1790556040805180820190915260098152600160b91b6832ba342fb5b7bb30b7026020820152615a2790615d1e565b6000615b4d73146500cfd35b22e4a392fe0adc06de1a1368ed4861569a565b1115615ba757601380546001600160a01b03191673146500cfd35b22e4a392fe0adc06de1a1368ed4817905560408051808201909152600b8152600160a81b6a6574685f72696e6b656279026020820152615a2790615d1e565b6000615bc673a2998efd205fb9d4b4963afb70778d6354ad3a4161569a565b1115615c1f57601380546001600160a01b03191673a2998efd205fb9d4b4963afb70778d6354ad3a4117905560408051808201909152600a8152600160b01b696574685f676f65726c69026020820152615a2790615d1e565b6000615c3e736f485c8bf6fc43ea212e93bbf8ce046c7f1cb47561569a565b1115615c725750601380546001600160a01b031916736f485c8bf6fc43ea212e93bbf8ce046c7f1cb4751790556001612e6e565b6000615c917320e12a1f859b3feae5fb2a0a32c18f5a65555bbf61569a565b1115615cc55750601380546001600160a01b0319167320e12a1f859b3feae5fb2a0a32c18f5a65555bbf1790556001612e6e565b6000615ce47351efaf4c8b3c9afbd5ab9f4bbc82784ab6ef8faa61569a565b1115615d185750601380546001600160a01b0319167351efaf4c8b3c9afbd5ab9f4bbc82784ab6ef8faa1790556001612e6e565b50600090565b80516117f1906014906020840190615d7f565b6040518061010001604052806000815260200160006001600160a01b031681526020016000815260200160008152602001600081526020016000815260200160008152602001600081525090565b828054600181600116156101000203166002900490600052602060002090601f016020900481019282601f10615dc057805160ff1916838001178555615ded565b82800160010185558215615ded579182015b82811115615ded578251825591602001919060010190615dd2565b50615df9929150615ef0565b5090565b604051806040016040528060008152602001600081525090565b6040518060800160405280606081526020016060815260200160008152602001600081525090565b828054600181600116156101000203166002900490600052602060002090601f016020900481019282601f10615e785780548555615ded565b82800160010185558215615ded57600052602060002091601f016020900482015b82811115615ded578254825591600101919060010190615e99565b6040518060c001604052806060815260200160608152602001600081526020016000151581526020016000151581526020016000151581525090565b612e6e91905b80821115615df95760008155600101615ef656fe4f776e61626c653a206e6577206f776e657220697320746865207a65726f2061646472657373536166654d6174683a206d756c7469706c69636174696f6e206f766572666c6f774f776e61626c653a2063616c6c6572206973206e6f7420746865206f776e6572a165627a7a7230582078d4d3e79428dad70f0c62a5de0c2fb2155d5980d94afa6569cfc026cd38c3c20029",
  "source": "/**\n * @author Matias Barrios\n * @version 1.0\n */\n\n/** @title Lucky7Store. \n * This contract contains all the functions to generate and sell tickets to the users.\n * The front end interacts with this functions to make the necessary transactions to play the game.\n */\n\npragma solidity ^ 0.5 .0;\nimport \"./Lucky7Raffle.sol\";\n\ncontract Lucky7Store is Lucky7Raffle {\n  /** @dev Constructor to make the contract payable\n   */\n  event GameParameters(string b, string n, string p, string j, uint numberOfLucky7Numbers, uint generateTicketPrice, uint purchaseTicketPrice);\n  constructor(address _lucky7Lighthouse, bool _isRhombusAvailable, bool _isLocalBlockchain)\n  payable\n  public\n  Lucky7Raffle(_lucky7Lighthouse, _isRhombusAvailable, _isLocalBlockchain) { // To initialize Lucky7TicketFactory constructor with Rhombus lighthouse\n    emit GameParameters(b, n, p, j, numberOfLucky7Numbers, generateTicketPrice, purchaseTicketPrice);\n  }\n\n  /** @dev userBoughtTicket is a modifier to check if the user paid the necessary amount to buy a ticket.\n   */\n  modifier userBoughtTicket(address _ticketOwner) {\n    require(msg.value >= purchaseTicketPrice);\n    userValues[_ticketOwner].userPaidTicket = true;\n    _;\n  }\n\n  /** @dev userBoughtParameters is a modifier to check if the user paid the necessary amount to buy parameters, i.e. generate a ticket without buying it.\n   */\n  modifier userBoughtParameters(address _ticketOwner) {\n    require(msg.value >= generateTicketPrice);\n    _;\n  }\n\n  /** @dev setParametersToReady is a modifier to set the muReady and iReady booleans of the UserParametersValue of the Lucky7TicketFactory to false.\n   * This way, the user can call for new parameters or buy ticket without being rejected by teh oraclize's callback function of the Lucky7TicketFactory contract.\n   */\n  modifier setParametersToReady(address _ticketOwner) {\n    userValues[_ticketOwner].muReady = false;\n    userValues[_ticketOwner].iReady = false;\n    _;\n  }\n\n  /** @dev sellingIsActive is a modifier which acts as a circuit breaker. If the settingLucky7Number is true, i.e. the game is in setting Lucky7Numbers phase, then\n   * the users aren't allowed to buy tickets because the Lucky7Number are getting setted. Once the last Lucky7Number is setted and all them are ordered through the\n   * _orderLucky7Numbers function of the Lucky7Raffle contract, the settingLucky7Numbers is setted to false, which means that users are then allowed to buy tickets.\n   */\n  modifier sellingIsActive {\n    require(settingLucky7Numbers == false);\n    _;\n  }\n\n  /** @dev notEmptyParameters checks if the user have mu and i parameters\n   */\n  modifier notEmptyParameters(address ticketRequester) {\n    bytes memory userMu = bytes(userValues[ticketRequester].mu);\n    bytes memory userI = bytes(userValues[ticketRequester].i);\n    require(userMu.length != 0 && userI.length != 0);\n    _;\n  }\n  //------------------------\n  /** @dev events used on front-end to count the amount of tickets selled, i.e. the amount of events are equal to the amount\n   * of events emitted\n   */\n  event RandomTicketSelled(uint indexed gameID);\n  event GeneratedTicket(uint indexed gameID);\n  event GeneratedTicketSelled(uint indexed gameID);\n\n  /** @dev sellRandomTicket is a function used to sell a random ticket to the user. It checks if the user sent the correct amount and if the game is not\n    * in the setting Lucky7Numbers phase. If so, then sets the user muReady and iReady of the UserParameters value of the Lucky7TicketFactory contract to false and \n    calls the _generateTicket function of the Lucky7TicketFactory contract with the msg.sender as the owner.\n    */\n  function sellRandomTicket()\n  public\n  payable\n  userBoughtTicket(msg.sender)\n  setParametersToReady(msg.sender)\n  sellingIsActive {\n    ticketsPurchased++;\n    emit RandomTicketSelled(gameID);\n    _generateTicket(msg.sender);\n  }\n\n  /** @dev generateRandomTicket is a function used to sell a parameters to the user without selling the ticket. It checks if the user sent the correct amount and \n   * if the game is not in the setting Lucky7Numbers phase. If so, then sets the user muReady and iReady of the UserParameters struct of the Lucky7TicketFactory \n   * contract to false and calls the _askForMuParameter and _askForIParamater functions of the Lucky7TicketFactory contract with the msg.sender as the owner.\n   */\n  function generateRandomTicket()\n  public\n  payable\n  userBoughtParameters(msg.sender)\n  setParametersToReady(msg.sender)\n  sellingIsActive {\n    ticketsGenerated++;\n    emit GeneratedTicket(gameID);\n    _generateTicket(msg.sender);\n  }\n\n  /** @dev sellGeneratedTicket is a function used to sell the ticket generated through the parameters the user already bought. \n   * It checks if the user sent the correct amount and if the game is not in the setting Lucky7Numbers phase. \n   * If so, then sets the user muReady and iReady of the UserParameters struct of the Lucky7TicketFactory contract to false \n   * and calls the _generateTicket function of the Lucky7TicketFactory contract with the msg.sender as the owner.\n   */\n  function sellGeneratedTicket()\n  public\n  payable\n  userBoughtTicket(msg.sender)\n  sellingIsActive\n  notEmptyParameters(msg.sender) {\n    ticketsPurchased++;\n    emit GeneratedTicketSelled(gameID);\n    _askForTicket(msg.sender);\n  }\n\n  function () external payable {\n\n  }\n/** @dev This two functions are purely designed for testing purposes and are not going to be deployed with the contracts\n   * to test or main net. They're straight forward and don't need any explanaiton.\n   * They're setted to onlyOwner to be sure that, in case of forgetting to erase them, no user is capable to use them\n   * maliciously.\n   */\n   \n  event Lucky7NumberInserted(uint value, uint index);\n\n  function insertLucky7Numbers(uint[] memory values) public onlyOwner {\n    for (uint i = 0; i < 7; i++) {\n      lucky7NumbersArray[i] = Lucky7Number(\"mu\", \"i\", values[i], gameID);\n      emit Lucky7NumberInserted(values[i], i);\n    }\n    indexForLucky7Array = 7;\n    _generateLucky7Number();\n  }\n\n  function setIndexForLucky7Array(uint _newValue) public onlyOwner {\n    indexForLucky7Array = _newValue;\n  }\n\n}\n",
  "sourcePath": "/Users/matiasbarrios/Desktop/luckyseven/contracts/Lucky7Store.sol",
  "compiler": {
    "name": "solc",
    "version": "0.5.8+commit.23d335f2.Emscripten.clang"
  },
  "schemaVersion": "3.0.11",
  "updatedAt": "2019-07-31T20:11:17.913Z",
  "devdoc": {
    "methods": {
      "__callback(bytes32,string)": {
        "details": "__callback is a function used for oraclize to send back the query emitted to oraclize.",
        "params": {
          "myid": "is the id of the query, same as the muID, iID or userTicketID of the _askForMuParameter, _askForIParameter and _askForTicket functions above.",
          "result": "is the result of the query. Once the query is resolved, oraclize sends back the answer, and the function check that the one calling the function is indeed a oraclize contract."
        }
      },
      "_askForIParameter(address)": {
        "details": "_askForIParameter is a function to ask for a new I parameter through an oraclize query.",
        "params": {
          "_ticketOwner": "is the address of the user which is calling this function through a generation of new parameters or by buying a new random ticket. First, it emit an event to register the query. Then it do the query and save the bytes32 value generated to the iID. Finally it associate this iID with the _ticketOwner through the iParameterID mapping, so the oraclize's callback function know it is a i petition and it belongs to the _ticketOwner user."
        }
      },
      "_askForMuParameter(address)": {
        "details": "_askForMuParameter is a function to ask for a new mu parameter through an oraclize query.",
        "params": {
          "_ticketOwner": "is the address of the user which is calling this function through a generation of new parameters or by buying a new random ticket. First, it emit an event to register the query. Then it do the query and save the bytes32 value generated to the muID. Finally it associate this muID with the _ticketOwner through the muParameterID mapping, so the oraclize's callback function know it is a mu petition and it belongs to the _ticketOwner user."
        }
      },
      "_askForTicket(address)": {
        "details": "_askForTicket is a function to ask for a new ticket through an oraclize query.",
        "params": {
          "_ticketOwner": "is the address of the user which is calling this function through by buying a new random ticket or buying the ticket generated by it parameters. First, it emit an event to register the query. Then it do the query and save the bytes32 value generated to the userTicketID. Finally it associate this userTicketID with the _ticketOwner through the newTicketID mapping, so the oraclize's callback function know it is a ticket petition and it belongs to the _ticketOwner user. Inside the oraclize_query function it calls the _setTicketQuery function, so it generate the query depending on the UserParametersValue struct of the _ticketOwner user."
        }
      },
      "_checkForLucky7Ticket(uint256)": {
        "details": "_checkForLucky7Ticket is a function that check if a ticket recently inserted in the ticketsArray is a Lucky7Ticket.",
        "params": {
          "_ticketID": "is the ticket which is going to be checked. At this point, the Lucky7Numbers are ordered by them values in ascedant order. This function uses the SafeMath library to avoid integer underflow or overflow, or to check that the difference is not 0, which is a special case."
        }
      },
      "_cleanMappings()": {
        "details": "_cleanMappings is a function used by the setNewGame function of this contract to clean the necessary mappings,  i.e. lucky7TicketDifference, lucky7TicketOwner, lucky7TicketID, lucky7NumbersArray, ExactLucky7TicketValue, ExactLucky7TicketOwner and ExactLucky7TicketID. This, because for new games the old winners needs to been cleaned up."
      },
      "_deliverPrizes()": {
        "details": "_deliverPrizes is a function designed to complete the business logic of the deliver prizes phase. First, it takes the balance of prizes of the previous winners to 0 for security reasons (explained in the paper of the project). Then it proceeds to calculate the amount of the prizes. The winners lot is 70% of the accumulated earnings,i.e. 70% of the contract balance. Of that amount, 60% is for the first prize, 30% is for the second prize and 10% for the third prize. The function then proceeds to check if, starting in the initialLucky7TicketPosition (the first Lucky7Ticket of the current game ordered by difference in ascending order) belongs to a user, i.e. it address is not 0. If it's different than 0, then sets the prize for that address to the first prize amount on the pendingWithdrawals mapping,  saves it adddress in prizeWinner1 to set it prize to 0 in the next new game setting and breaks the loop to deliver the second place prize. It is not automatically delivered to the first prize winner to avoid DoS with (Unexpected) revert attack, i.e. one or more of the winners address isn't capable of receiving ether and cut the transaction, stucking the contract function to deliver prizes to real winners. After update the pendingWithdrawals mapping for payment for the first prize winner, it proceeds the same way with the second and third winner, to finally deliver the enterprise prize automatically, because is a known address and is first setted as the owner of the contract. "
      },
      "_generateLucky7Number()": {
        "details": "_generateLucky7Number is the function that is actually used to generate the Lucky7Numbers. It have the business logic for generating the Lucky7Numbers, i.e. if  the indexForLucky7Array is different than the numberOfLucky7Numbers, then sets the muReady and iReady booleans of the UserParametersValue struct of the  Lucky7TicketFactory contract to true and calls for the _askForMuParameter and _askForIParameter function of the Lucky7TicketFactory contract. This way it can ask for both mu and i parameters to oraclize and when the oraclize respond with both, ask for a ticket which is going to be a Lucky7Number. If the indexForLucky7Array is equal to the numberOfLucky7Numbers, then proceed to order the Lucky7Numbers through the _orderLucky7Numbers function of this contract. Then it sets the indexForLucky7Array to 0 so the next time a new game is setted, this function starts storing the Lucky7Numbers from the position 0, to finally shut off the settingLucky7Numbers circuit breaker to allow users to start buying tickets."
      },
      "_generateTicket(address)": {
        "details": "_generateTicket is used by another contract. Invokes _askForMuParameter and _askForIparameter"
      },
      "_orderLucky7Numbers()": {
        "details": "_orderLucky7Numbers is a function designed to order the Lucky7Numbers. It is called from the _generateLucky7Number function of this contract (above function). First, it generates 4 auxiliary parameters; a Lucky7Number struct called smallest, and aux, j and i which are uint initiated to 0. Then it loops over the Lucky7Numbers array, comparing the i Lucky7Number value with the i+1, i+2, i+3 until reachs the numberOfLucky7Numbers-1 value.  If none of them is smaller than it, then jumps to the next Lucky7Number. It then starts comparing it (the i+1 for this case) with the subsequents number. If one of  them is smaller, changes positions and starts comparing the new one with the subsequents. "
      },
      "_orderLucky7Tickets()": {
        "details": "_orderLucky7Tickets is a function designed to store and order the Lucky7Tickets according to its difference in asceding order. First, it stores all the current Lucky7Ticket values, i.e. lucky7TicketDifference, lucky7TicketOwner and lucky7TicketID mappings from the Lucky7TicketFactory contract, the ticketValue associated to it, the Lucky7Number and Lucky7NumberID (first, second, third) associated to it, and the gameID. This is thought to be capable of verify in the future possible problems delivering prizes. Then, it order the Lucky7Tickets depending on them difference value of the Lucky7Ticket struct of the Lucky7TicketFactory contract. The order logic is the same defined in the _orderLucky7Numbers function of this contract (the above function)."
      },
      "generateRandomTicket()": {
        "details": "generateRandomTicket is a function used to sell a parameters to the user without selling the ticket. It checks if the user sent the correct amount and  if the game is not in the setting Lucky7Numbers phase. If so, then sets the user muReady and iReady of the UserParameters struct of the Lucky7TicketFactory  contract to false and calls the _askForMuParameter and _askForIParamater functions of the Lucky7TicketFactory contract with the msg.sender as the owner."
      },
      "isOwner()": {
        "details": "Returns true if the caller is the current owner."
      },
      "owner()": {
        "details": "Returns the address of the current owner."
      },
      "renounceOwnership()": {
        "details": "Leaves the contract without owner. It will not be possible to call `onlyOwner` functions anymore. Can only be called by the current owner.     * > Note: Renouncing ownership will leave the contract without an owner, thereby removing any functionality that is only available to the owner."
      },
      "sellGeneratedTicket()": {
        "details": "sellGeneratedTicket is a function used to sell the ticket generated through the parameters the user already bought.  It checks if the user sent the correct amount and if the game is not in the setting Lucky7Numbers phase.  If so, then sets the user muReady and iReady of the UserParameters struct of the Lucky7TicketFactory contract to false  and calls the _generateTicket function of the Lucky7TicketFactory contract with the msg.sender as the owner."
      },
      "sellRandomTicket()": {
        "details": "sellRandomTicket is a function used to sell a random ticket to the user. It checks if the user sent the correct amount and if the game is not in the setting Lucky7Numbers phase. If so, then sets the user muReady and iReady of the UserParameters value of the Lucky7TicketFactory contract to false and  calls the _generateTicket function of the Lucky7TicketFactory contract with the msg.sender as the owner."
      },
      "setNewGame()": {
        "details": "setNewGame is a function designed to call all the functions necessary to start a new game. First, it activate the settingLucky7Numbers circuit breaker. Then it stores and order the Lucky7Tickets in ascendante order depending on them difference values through the _orderLucky7Tickets.  Then it set the prizes for the last winners to 0 (for security reasons), look up for Lucky7Tickets with owners different than 0 and update the  pendingWithdrawals for the first, second and third winnner, deliver the prize for the enterprise, clean the necessary mappings and arrays (lucky7NumbersArray),  increase the gameID parameter to differentiate the Lucky7Tickets and Tickets from each different game in the future, and update the value of the initialLucky7TicketPosition to store the Lucky7Tickets for every game correctly."
      },
      "toggleLucky7Setting()": {
        "details": "Function to toggle the settingLucky7Numbers to stop users to buy tickets."
      },
      "transferOwnership(address)": {
        "details": "Transfers ownership of the contract to a new account (`newOwner`). Can only be called by the current owner."
      },
      "withdraw()": {
        "details": "withdraw is a function used for winners to claim them prices. It is updated in the _deliverPrizesFunction of this contract to state the owners of the first, second and third prize. It is used to avoid DoS with (Unexpected) revert attack."
      }
    }
  },
  "userdoc": {
    "methods": {
      "validateDelivery()": {
        "notice": "function to determine if users are able to deliver prizes or not."
      }
    }
  }
}