{
  "contractName": "Lucky7Raffle",
  "abi": [
    {
      "constant": true,
      "inputs": [
        {
          "name": "",
          "type": "uint256"
        }
      ],
      "name": "lucky7TicketID",
      "outputs": [
        {
          "name": "",
          "type": "uint256"
        }
      ],
      "payable": false,
      "stateMutability": "view",
      "type": "function"
    },
    {
      "constant": true,
      "inputs": [
        {
          "name": "",
          "type": "uint256"
        }
      ],
      "name": "lucky7TicketOwner",
      "outputs": [
        {
          "name": "",
          "type": "address"
        }
      ],
      "payable": false,
      "stateMutability": "view",
      "type": "function"
    },
    {
      "constant": false,
      "inputs": [
        {
          "name": "_ticketOwner",
          "type": "address"
        }
      ],
      "name": "_askForMuParameter",
      "outputs": [],
      "payable": false,
      "stateMutability": "nonpayable",
      "type": "function"
    },
    {
      "constant": true,
      "inputs": [],
      "name": "lastDelivery",
      "outputs": [
        {
          "name": "",
          "type": "uint256"
        }
      ],
      "payable": false,
      "stateMutability": "view",
      "type": "function"
    },
    {
      "constant": false,
      "inputs": [
        {
          "name": "myid",
          "type": "bytes32"
        },
        {
          "name": "result",
          "type": "string"
        }
      ],
      "name": "__callback",
      "outputs": [],
      "payable": false,
      "stateMutability": "nonpayable",
      "type": "function"
    },
    {
      "constant": true,
      "inputs": [],
      "name": "settingLucky7Numbers",
      "outputs": [
        {
          "name": "",
          "type": "bool"
        }
      ],
      "payable": false,
      "stateMutability": "view",
      "type": "function"
    },
    {
      "constant": false,
      "inputs": [
        {
          "name": "_ticketID",
          "type": "uint256"
        }
      ],
      "name": "_checkForLucky7Ticket",
      "outputs": [],
      "payable": false,
      "stateMutability": "nonpayable",
      "type": "function"
    },
    {
      "constant": true,
      "inputs": [],
      "name": "n",
      "outputs": [
        {
          "name": "",
          "type": "string"
        }
      ],
      "payable": false,
      "stateMutability": "view",
      "type": "function"
    },
    {
      "constant": true,
      "inputs": [],
      "name": "lucky7Lighthouse",
      "outputs": [
        {
          "name": "",
          "type": "address"
        }
      ],
      "payable": false,
      "stateMutability": "view",
      "type": "function"
    },
    {
      "constant": false,
      "inputs": [
        {
          "name": "_myid",
          "type": "bytes32"
        },
        {
          "name": "_result",
          "type": "string"
        },
        {
          "name": "_proof",
          "type": "bytes"
        }
      ],
      "name": "__callback",
      "outputs": [],
      "payable": false,
      "stateMutability": "nonpayable",
      "type": "function"
    },
    {
      "constant": false,
      "inputs": [],
      "name": "toggleLucky7Setting",
      "outputs": [],
      "payable": false,
      "stateMutability": "nonpayable",
      "type": "function"
    },
    {
      "constant": true,
      "inputs": [],
      "name": "purchaseTicketPrice",
      "outputs": [
        {
          "name": "",
          "type": "uint256"
        }
      ],
      "payable": false,
      "stateMutability": "view",
      "type": "function"
    },
    {
      "constant": true,
      "inputs": [
        {
          "name": "",
          "type": "uint256"
        }
      ],
      "name": "lucky7TicketValue",
      "outputs": [
        {
          "name": "",
          "type": "uint256"
        }
      ],
      "payable": false,
      "stateMutability": "view",
      "type": "function"
    },
    {
      "constant": true,
      "inputs": [
        {
          "name": "",
          "type": "address"
        }
      ],
      "name": "userLastPurchasedTicket",
      "outputs": [
        {
          "name": "",
          "type": "uint256"
        }
      ],
      "payable": false,
      "stateMutability": "view",
      "type": "function"
    },
    {
      "constant": true,
      "inputs": [
        {
          "name": "",
          "type": "address"
        }
      ],
      "name": "userValues",
      "outputs": [
        {
          "name": "mu",
          "type": "string"
        },
        {
          "name": "i",
          "type": "string"
        },
        {
          "name": "ticketValue",
          "type": "uint256"
        },
        {
          "name": "muReady",
          "type": "bool"
        },
        {
          "name": "iReady",
          "type": "bool"
        },
        {
          "name": "userPaidTicket",
          "type": "bool"
        }
      ],
      "payable": false,
      "stateMutability": "view",
      "type": "function"
    },
    {
      "constant": true,
      "inputs": [],
      "name": "b",
      "outputs": [
        {
          "name": "",
          "type": "string"
        }
      ],
      "payable": false,
      "stateMutability": "view",
      "type": "function"
    },
    {
      "constant": true,
      "inputs": [],
      "name": "oraclizeGasLimit",
      "outputs": [
        {
          "name": "",
          "type": "uint256"
        }
      ],
      "payable": false,
      "stateMutability": "view",
      "type": "function"
    },
    {
      "constant": true,
      "inputs": [],
      "name": "ticketsGenerated",
      "outputs": [
        {
          "name": "",
          "type": "uint256"
        }
      ],
      "payable": false,
      "stateMutability": "view",
      "type": "function"
    },
    {
      "constant": true,
      "inputs": [],
      "name": "numberOfLucky7Numbers",
      "outputs": [
        {
          "name": "",
          "type": "uint256"
        }
      ],
      "payable": false,
      "stateMutability": "view",
      "type": "function"
    },
    {
      "constant": true,
      "inputs": [],
      "name": "newGameSettedPrize",
      "outputs": [
        {
          "name": "",
          "type": "uint256"
        }
      ],
      "payable": false,
      "stateMutability": "view",
      "type": "function"
    },
    {
      "constant": false,
      "inputs": [],
      "name": "renounceOwnership",
      "outputs": [],
      "payable": false,
      "stateMutability": "nonpayable",
      "type": "function"
    },
    {
      "constant": false,
      "inputs": [
        {
          "name": "_ticketOwner",
          "type": "address"
        }
      ],
      "name": "_generateTicket",
      "outputs": [],
      "payable": false,
      "stateMutability": "nonpayable",
      "type": "function"
    },
    {
      "constant": true,
      "inputs": [],
      "name": "owner",
      "outputs": [
        {
          "name": "",
          "type": "address"
        }
      ],
      "payable": false,
      "stateMutability": "view",
      "type": "function"
    },
    {
      "constant": true,
      "inputs": [],
      "name": "isOwner",
      "outputs": [
        {
          "name": "",
          "type": "bool"
        }
      ],
      "payable": false,
      "stateMutability": "view",
      "type": "function"
    },
    {
      "constant": true,
      "inputs": [],
      "name": "ticketsPurchased",
      "outputs": [
        {
          "name": "",
          "type": "uint256"
        }
      ],
      "payable": false,
      "stateMutability": "view",
      "type": "function"
    },
    {
      "constant": true,
      "inputs": [
        {
          "name": "",
          "type": "uint256"
        }
      ],
      "name": "lucky7NumbersArray",
      "outputs": [
        {
          "name": "mu",
          "type": "string"
        },
        {
          "name": "i",
          "type": "string"
        },
        {
          "name": "ticketValue",
          "type": "uint256"
        },
        {
          "name": "gameID",
          "type": "uint256"
        }
      ],
      "payable": false,
      "stateMutability": "view",
      "type": "function"
    },
    {
      "constant": true,
      "inputs": [],
      "name": "oraclizeCustomGasPrice",
      "outputs": [
        {
          "name": "",
          "type": "uint256"
        }
      ],
      "payable": false,
      "stateMutability": "view",
      "type": "function"
    },
    {
      "constant": true,
      "inputs": [],
      "name": "p",
      "outputs": [
        {
          "name": "",
          "type": "string"
        }
      ],
      "payable": false,
      "stateMutability": "view",
      "type": "function"
    },
    {
      "constant": true,
      "inputs": [],
      "name": "expectedPrize",
      "outputs": [
        {
          "name": "",
          "type": "uint256"
        }
      ],
      "payable": false,
      "stateMutability": "view",
      "type": "function"
    },
    {
      "constant": true,
      "inputs": [],
      "name": "newLucky7NumberPrize",
      "outputs": [
        {
          "name": "",
          "type": "uint256"
        }
      ],
      "payable": false,
      "stateMutability": "view",
      "type": "function"
    },
    {
      "constant": true,
      "inputs": [],
      "name": "localLighthouse",
      "outputs": [
        {
          "name": "",
          "type": "address"
        }
      ],
      "payable": false,
      "stateMutability": "view",
      "type": "function"
    },
    {
      "constant": true,
      "inputs": [
        {
          "name": "",
          "type": "uint256"
        }
      ],
      "name": "ticketsArray",
      "outputs": [
        {
          "name": "mu",
          "type": "string"
        },
        {
          "name": "i",
          "type": "string"
        },
        {
          "name": "ticketValue",
          "type": "uint256"
        },
        {
          "name": "owner",
          "type": "address"
        },
        {
          "name": "gameID",
          "type": "uint256"
        }
      ],
      "payable": false,
      "stateMutability": "view",
      "type": "function"
    },
    {
      "constant": true,
      "inputs": [],
      "name": "j",
      "outputs": [
        {
          "name": "",
          "type": "string"
        }
      ],
      "payable": false,
      "stateMutability": "view",
      "type": "function"
    },
    {
      "constant": true,
      "inputs": [],
      "name": "initialLucky7TicketPosition",
      "outputs": [
        {
          "name": "",
          "type": "uint256"
        }
      ],
      "payable": false,
      "stateMutability": "view",
      "type": "function"
    },
    {
      "constant": true,
      "inputs": [],
      "name": "indexForLucky7Array",
      "outputs": [
        {
          "name": "",
          "type": "uint256"
        }
      ],
      "payable": false,
      "stateMutability": "view",
      "type": "function"
    },
    {
      "constant": true,
      "inputs": [
        {
          "name": "",
          "type": "uint256"
        }
      ],
      "name": "lucky7TicketsArray",
      "outputs": [
        {
          "name": "difference",
          "type": "uint256"
        },
        {
          "name": "owner",
          "type": "address"
        },
        {
          "name": "ticketID",
          "type": "uint256"
        },
        {
          "name": "ticketValue",
          "type": "uint256"
        },
        {
          "name": "lucky7Number",
          "type": "uint256"
        },
        {
          "name": "lucky7NumberID",
          "type": "uint256"
        },
        {
          "name": "gameID",
          "type": "uint256"
        },
        {
          "name": "prize",
          "type": "uint256"
        }
      ],
      "payable": false,
      "stateMutability": "view",
      "type": "function"
    },
    {
      "constant": true,
      "inputs": [],
      "name": "gameID",
      "outputs": [
        {
          "name": "",
          "type": "uint256"
        }
      ],
      "payable": false,
      "stateMutability": "view",
      "type": "function"
    },
    {
      "constant": true,
      "inputs": [],
      "name": "generateTicketPrice",
      "outputs": [
        {
          "name": "",
          "type": "uint256"
        }
      ],
      "payable": false,
      "stateMutability": "view",
      "type": "function"
    },
    {
      "constant": false,
      "inputs": [
        {
          "name": "_ticketOwner",
          "type": "address"
        }
      ],
      "name": "_askForTicket",
      "outputs": [],
      "payable": false,
      "stateMutability": "nonpayable",
      "type": "function"
    },
    {
      "constant": true,
      "inputs": [],
      "name": "validateDelivery",
      "outputs": [
        {
          "name": "",
          "type": "uint256"
        },
        {
          "name": "",
          "type": "bool"
        },
        {
          "name": "",
          "type": "bool"
        }
      ],
      "payable": false,
      "stateMutability": "view",
      "type": "function"
    },
    {
      "constant": true,
      "inputs": [],
      "name": "expectedGameTime",
      "outputs": [
        {
          "name": "",
          "type": "uint256"
        }
      ],
      "payable": false,
      "stateMutability": "view",
      "type": "function"
    },
    {
      "constant": true,
      "inputs": [
        {
          "name": "",
          "type": "uint256"
        }
      ],
      "name": "lucky7TicketDifference",
      "outputs": [
        {
          "name": "",
          "type": "uint256"
        }
      ],
      "payable": false,
      "stateMutability": "view",
      "type": "function"
    },
    {
      "constant": false,
      "inputs": [
        {
          "name": "newOwner",
          "type": "address"
        }
      ],
      "name": "transferOwnership",
      "outputs": [],
      "payable": false,
      "stateMutability": "nonpayable",
      "type": "function"
    },
    {
      "constant": true,
      "inputs": [
        {
          "name": "",
          "type": "address"
        }
      ],
      "name": "pendingWithdrawals",
      "outputs": [
        {
          "name": "amount",
          "type": "uint256"
        },
        {
          "name": "gameID",
          "type": "uint256"
        }
      ],
      "payable": false,
      "stateMutability": "view",
      "type": "function"
    },
    {
      "constant": true,
      "inputs": [],
      "name": "currentTicketID",
      "outputs": [
        {
          "name": "",
          "type": "uint256"
        }
      ],
      "payable": false,
      "stateMutability": "view",
      "type": "function"
    },
    {
      "constant": false,
      "inputs": [
        {
          "name": "_ticketOwner",
          "type": "address"
        }
      ],
      "name": "_askForIParameter",
      "outputs": [],
      "payable": false,
      "stateMutability": "nonpayable",
      "type": "function"
    },
    {
      "inputs": [
        {
          "name": "_lucky7Lighthouse",
          "type": "address"
        },
        {
          "name": "_isRhombusAvailable",
          "type": "bool"
        },
        {
          "name": "_isLocalBlockchain",
          "type": "bool"
        }
      ],
      "payable": true,
      "stateMutability": "payable",
      "type": "constructor"
    },
    {
      "payable": true,
      "stateMutability": "payable",
      "type": "fallback"
    },
    {
      "anonymous": false,
      "inputs": [
        {
          "indexed": false,
          "name": "gameID",
          "type": "uint256"
        }
      ],
      "name": "NewGameStarted",
      "type": "event"
    },
    {
      "anonymous": false,
      "inputs": [
        {
          "indexed": false,
          "name": "difference",
          "type": "uint256"
        },
        {
          "indexed": true,
          "name": "owner",
          "type": "address"
        },
        {
          "indexed": false,
          "name": "ticketID",
          "type": "uint256"
        },
        {
          "indexed": false,
          "name": "ticketValue",
          "type": "uint256"
        },
        {
          "indexed": false,
          "name": "lucky7Number",
          "type": "uint256"
        },
        {
          "indexed": false,
          "name": "lucky7NumberID",
          "type": "uint256"
        },
        {
          "indexed": false,
          "name": "gameID",
          "type": "uint256"
        },
        {
          "indexed": false,
          "name": "prize",
          "type": "uint256"
        },
        {
          "indexed": false,
          "name": "mu",
          "type": "string"
        },
        {
          "indexed": false,
          "name": "i",
          "type": "string"
        }
      ],
      "name": "Lucky7TicketStored",
      "type": "event"
    },
    {
      "anonymous": false,
      "inputs": [
        {
          "indexed": true,
          "name": "owner",
          "type": "address"
        },
        {
          "indexed": false,
          "name": "gameID",
          "type": "uint256"
        },
        {
          "indexed": false,
          "name": "amount",
          "type": "uint256"
        }
      ],
      "name": "PrizeClaimed",
      "type": "event"
    },
    {
      "anonymous": false,
      "inputs": [
        {
          "indexed": false,
          "name": "mu",
          "type": "string"
        },
        {
          "indexed": false,
          "name": "i",
          "type": "string"
        },
        {
          "indexed": true,
          "name": "owner",
          "type": "address"
        },
        {
          "indexed": true,
          "name": "gameID",
          "type": "uint256"
        }
      ],
      "name": "GeneratedParametersReceived",
      "type": "event"
    },
    {
      "anonymous": false,
      "inputs": [
        {
          "indexed": false,
          "name": "ticketValue",
          "type": "uint256"
        },
        {
          "indexed": false,
          "name": "mu",
          "type": "string"
        },
        {
          "indexed": false,
          "name": "i",
          "type": "string"
        },
        {
          "indexed": false,
          "name": "ticketID",
          "type": "uint256"
        },
        {
          "indexed": true,
          "name": "owner",
          "type": "address"
        },
        {
          "indexed": true,
          "name": "gameID",
          "type": "uint256"
        }
      ],
      "name": "NewTicketReceived",
      "type": "event"
    },
    {
      "anonymous": false,
      "inputs": [
        {
          "indexed": false,
          "name": "ticketValue",
          "type": "uint256"
        },
        {
          "indexed": true,
          "name": "owner",
          "type": "address"
        },
        {
          "indexed": false,
          "name": "difference",
          "type": "uint256"
        },
        {
          "indexed": false,
          "name": "index",
          "type": "uint256"
        }
      ],
      "name": "NewLucky7Ticket",
      "type": "event"
    },
    {
      "anonymous": false,
      "inputs": [
        {
          "indexed": false,
          "name": "value",
          "type": "uint256"
        },
        {
          "indexed": false,
          "name": "index",
          "type": "uint256"
        }
      ],
      "name": "Lucky7NumberInserted",
      "type": "event"
    },
    {
      "anonymous": false,
      "inputs": [
        {
          "indexed": false,
          "name": "balance",
          "type": "uint256"
        }
      ],
      "name": "BalanceUpdated",
      "type": "event"
    },
    {
      "anonymous": false,
      "inputs": [
        {
          "indexed": false,
          "name": "settingLucky7Numbers",
          "type": "bool"
        }
      ],
      "name": "SettingNumbersChanged",
      "type": "event"
    },
    {
      "anonymous": false,
      "inputs": [
        {
          "indexed": false,
          "name": "wolframQuery",
          "type": "string"
        }
      ],
      "name": "NewWolframQuery",
      "type": "event"
    },
    {
      "anonymous": false,
      "inputs": [
        {
          "indexed": true,
          "name": "previousOwner",
          "type": "address"
        },
        {
          "indexed": true,
          "name": "newOwner",
          "type": "address"
        }
      ],
      "name": "OwnershipTransferred",
      "type": "event"
    },
    {
      "constant": false,
      "inputs": [],
      "name": "setNewGame",
      "outputs": [],
      "payable": false,
      "stateMutability": "nonpayable",
      "type": "function"
    },
    {
      "constant": false,
      "inputs": [],
      "name": "_generateLucky7Number",
      "outputs": [],
      "payable": false,
      "stateMutability": "nonpayable",
      "type": "function"
    },
    {
      "constant": false,
      "inputs": [],
      "name": "_orderLucky7Numbers",
      "outputs": [],
      "payable": false,
      "stateMutability": "nonpayable",
      "type": "function"
    },
    {
      "constant": false,
      "inputs": [],
      "name": "_orderLucky7Tickets",
      "outputs": [],
      "payable": false,
      "stateMutability": "nonpayable",
      "type": "function"
    },
    {
      "constant": false,
      "inputs": [],
      "name": "_deliverPrizes",
      "outputs": [],
      "payable": false,
      "stateMutability": "nonpayable",
      "type": "function"
    },
    {
      "constant": false,
      "inputs": [],
      "name": "_cleanMappings",
      "outputs": [],
      "payable": false,
      "stateMutability": "nonpayable",
      "type": "function"
    },
    {
      "constant": false,
      "inputs": [],
      "name": "withdraw",
      "outputs": [],
      "payable": false,
      "stateMutability": "nonpayable",
      "type": "function"
    }
  ],
  "bytecode": "0x60c0604052600160808190527f310000000000000000000000000000000000000000000000000000000000000060a09081526200004091600291906200030e565b506040805180820190915260018082527f3800000000000000000000000000000000000000000000000000000000000000602090920191825262000087916003916200030e565b506040805180820190915260058082527f31303030300000000000000000000000000000000000000000000000000000006020909201918252620000ce916004916200030e565b506040805180820190915260028082527f3130000000000000000000000000000000000000000000000000000000000000602090920191825262000115916005916200030e565b5060076006556611c37937e08000600755662386f26fc10000600855622dc6c06009556317d78400600a556000600b556000600c5568056bc75e2d63100000600d556224ea00600e5567016345785d8a0000600f5566b1a2bc2ec5000060105562000185620002fe60201b60201c565b601180546001600160a01b03929092166001600160a01b031990921691909117905560188054600160a81b61ffff021916760100000000000000000000000000000000000000000000179055600060408181556041829055604282905560448290556045919091555160608062005d00833981018060405260608110156200020c57600080fd5b5080516020820151604092830151600080546001600160a01b03191633178082559451939492939192859285926001600160a01b039290921691907f8be0079c531659141344cd1fd0a4f28419497f9722a3daafe3b4186f6b6457e0908290a34260015560138054736f485c8bf6fc43ea212e93bbf8ce046c7f1cb4756001600160a01b0319918216179091556017805482166001600160a01b0394909416938417905560188054909116909217600160a01b60ff02191674010000000000000000000000000000000000000000911515919091021790556043805460ff191691151591909117905550620003b09050565b6000546001600160a01b03165b90565b828054600181600116156101000203166002900490600052602060002090601f016020900481019282601f106200035157805160ff191683800117855562000381565b8280016001018555821562000381579182015b828111156200038157825182559160200191906001019062000364565b506200038f92915062000393565b5090565b6200030b91905b808211156200038f57600081556001016200039a565b61594080620003c06000396000f3fe60806040526004361061031a5760003560e01c80638da5cb5b116101ab578063c53d6e47116100f7578063e65ba4e311610095578063f3f437031161006f578063f3f4370314610e53578063f405228914610e9f578063f53c7d0814610eb4578063fd9be1b214610ec95761031a565b8063e65ba4e314610de1578063e802ae1414610df6578063f2fde38b14610e205761031a565b8063c7dd4b4f116100d1578063c7dd4b4f14610d4f578063d566bcf014610d64578063ddc110fa14610d79578063e3d8e46d14610dac5761031a565b8063c53d6e4714610cb2578063c56969ab14610cc7578063c629dad914610cdc5761031a565b80639ae8886a11610164578063b4df152b1161013e578063b4df152b14610b4e578063b4f8eadd14610b63578063b582ec5f14610c88578063bb49516b14610c9d5761031a565b80639ae8886a14610b0f578063a9438da914610b24578063af24b0d614610b395761031a565b80638da5cb5b146109905780638f32d59b146109a557806390a7ba5b146109ba57806390c31c4c146109cf57806396853e13146109e45780639ac2bf9114610afa5761031a565b80633ccfd60b1161026a57806350b9c428116102235780636fa83c22116101fd5780636fa83c221461091e578063715018a61461093357806375edd2571461094857806377d8a8301461095d5761031a565b806350b9c428146108df578063592ad739146108f457806359f9fe82146109095761031a565b80633ccfd60b14610712578063400149111461072757806344d9a3741461073c578063452db96d146107665780634acfd9b8146107995780634df7e3d0146108ca5761031a565b80632caf9eee116102d75780632f294bc9116102b15780632f294bc91461059257806338bbfa50146105a757806339df3f4f146106e85780633a33fbfe146106fd5761031a565b80632caf9eee146104b55780632de729eb146104de5780632e52d606146105085761031a565b806310cd4b8a1461031c5780631c3ed1d3146103585780631cf4c3d11461039e57806323d370ba146103b3578063264adb05146103e657806327dc297e146103fb575b005b34801561032857600080fd5b506103466004803603602081101561033f57600080fd5b5035610efc565b60408051918252519081900360200190f35b34801561036457600080fd5b506103826004803603602081101561037b57600080fd5b5035610f0e565b604080516001600160a01b039092168252519081900360200190f35b3480156103aa57600080fd5b5061031a610f29565b3480156103bf57600080fd5b5061031a600480360360208110156103d657600080fd5b50356001600160a01b0316611399565b3480156103f257600080fd5b50610346611623565b34801561040757600080fd5b5061031a6004803603604081101561041e57600080fd5b8135919081019060408101602082013564010000000081111561044057600080fd5b82018360208201111561045257600080fd5b8035906020019184600183028401116401000000008311171561047457600080fd5b91908080601f016020809104026020016040519081016040528093929190818152602001838380828437600092019190915250929550611629945050505050565b3480156104c157600080fd5b506104ca611a8a565b604080519115158252519081900360200190f35b3480156104ea57600080fd5b5061031a6004803603602081101561050157600080fd5b5035611a9a565b34801561051457600080fd5b5061051d611dcd565b6040805160208082528351818301528351919283929083019185019080838360005b8381101561055757818101518382015260200161053f565b50505050905090810190601f1680156105845780820380516001836020036101000a031916815260200191505b509250505060405180910390f35b34801561059e57600080fd5b50610382611e5b565b3480156105b357600080fd5b5061031a600480360360608110156105ca57600080fd5b813591908101906040810160208201356401000000008111156105ec57600080fd5b8201836020820111156105fe57600080fd5b8035906020019184600183028401116401000000008311171561062057600080fd5b91908080601f016020809104026020016040519081016040528093929190818152602001838380828437600092019190915250929594936020810193503591505064010000000081111561067357600080fd5b82018360208201111561068557600080fd5b803590602001918460018302840111640100000000831117156106a757600080fd5b91908080601f016020809104026020016040519081016040528093929190818152602001838380828437600092019190915250929550611e6a945050505050565b3480156106f457600080fd5b5061031a611e9b565b34801561070957600080fd5b50610346611f47565b34801561071e57600080fd5b5061031a611f4d565b34801561073357600080fd5b5061031a612017565b34801561074857600080fd5b506103466004803603602081101561075f57600080fd5b50356120f6565b34801561077257600080fd5b506103466004803603602081101561078957600080fd5b50356001600160a01b0316612108565b3480156107a557600080fd5b506107cc600480360360208110156107bc57600080fd5b50356001600160a01b031661211a565b604080519081018590528315156060820152821515608082015281151560a082015260c08082528751908201528651819060208083019160e08401918b019080838360005b83811015610829578181015183820152602001610811565b50505050905090810190601f1680156108565780820380516001836020036101000a031916815260200191505b5083810382528851815288516020918201918a019080838360005b83811015610889578181015183820152602001610871565b50505050905090810190601f1680156108b65780820380516001836020036101000a031916815260200191505b509850505050505050505060405180910390f35b3480156108d657600080fd5b5061051d61227a565b3480156108eb57600080fd5b506103466122d2565b34801561090057600080fd5b506103466122d8565b34801561091557600080fd5b506103466122de565b34801561092a57600080fd5b506103466122e4565b34801561093f57600080fd5b5061031a6122ea565b34801561095457600080fd5b5061031a61237e565b34801561096957600080fd5b5061031a6004803603602081101561098057600080fd5b50356001600160a01b03166127ef565b34801561099c57600080fd5b50610382612804565b3480156109b157600080fd5b506104ca612814565b3480156109c657600080fd5b50610346612825565b3480156109db57600080fd5b5061031a61282b565b3480156109f057600080fd5b50610a0e60048036036020811015610a0757600080fd5b503561292b565b604051808060200180602001858152602001848152602001838103835287818151815260200191508051906020019080838360005b83811015610a5b578181015183820152602001610a43565b50505050905090810190601f168015610a885780820380516001836020036101000a031916815260200191505b50838103825286518152865160209182019188019080838360005b83811015610abb578181015183820152602001610aa3565b50505050905090810190601f168015610ae85780820380516001836020036101000a031916815260200191505b50965050505050505060405180910390f35b348015610b0657600080fd5b50610346612a77565b348015610b1b57600080fd5b5061051d612a7d565b348015610b3057600080fd5b50610346612ad8565b348015610b4557600080fd5b50610346612ade565b348015610b5a57600080fd5b50610382612ae4565b348015610b6f57600080fd5b50610b8d60048036036020811015610b8657600080fd5b5035612af3565b604080519081018490526001600160a01b03831660608201526080810182905260a08082528651908201528551819060208083019160c08401918a019080838360005b83811015610be8578181015183820152602001610bd0565b50505050905090810190601f168015610c155780820380516001836020036101000a031916815260200191505b50838103825287518152875160209182019189019080838360005b83811015610c48578181015183820152602001610c30565b50505050905090810190601f168015610c755780820380516001836020036101000a031916815260200191505b5097505050505050505060405180910390f35b348015610c9457600080fd5b5061051d612c5f565b348015610ca957600080fd5b50610346612cba565b348015610cbe57600080fd5b5061031a612cc0565b348015610cd357600080fd5b50610346612dca565b348015610ce857600080fd5b50610d0660048036036020811015610cff57600080fd5b5035612dd0565b604080519889526001600160a01b039097166020890152878701959095526060870193909352608086019190915260a085015260c084015260e083015251908190036101000190f35b348015610d5b57600080fd5b50610346612e2d565b348015610d7057600080fd5b50610346612e33565b348015610d8557600080fd5b5061031a60048036036020811015610d9c57600080fd5b50356001600160a01b0316612e39565b348015610db857600080fd5b50610dc1612eb2565b604080519384529115156020840152151582820152519081900360600190f35b348015610ded57600080fd5b50610346612eee565b348015610e0257600080fd5b5061034660048036036020811015610e1957600080fd5b5035612ef4565b348015610e2c57600080fd5b5061031a60048036036020811015610e4357600080fd5b50356001600160a01b0316612f06565b348015610e5f57600080fd5b50610e8660048036036020811015610e7657600080fd5b50356001600160a01b0316612f59565b6040805192835260208301919091528051918290030190f35b348015610eab57600080fd5b5061031a612f72565b348015610ec057600080fd5b506103466136b6565b348015610ed557600080fd5b5061031a60048036036020811015610eec57600080fd5b50356001600160a01b03166136bc565b603f6020526000908152604090205481565b603d602052600090815260409020546001600160a01b031681565b610f31612814565b610f735760408051600160e51b62461bcd02815260206004820181905260248201526000805160206158f5833981519152604482015290519081900360640190fd5b610f7b6156d4565b60008080805b6006548310156110f4576000838152603d60205260408120546001600160a01b0316610fae576000610fdf565b6000848152603f6020526040902054601a80549091908110610fcc57fe5b9060005260206000209060050201600201545b60408051610100810182526000878152603c6020908152838220548352888252603d8152838220546001600160a01b031681840152888252603f905282902054918101919091526060810182905290915060199060808101601c876007811061104457fe5b600490810291909101600290810154835260208084018a9052604080548186015260006060958601819052875460018082018a559882529083902087516008909202019081559186015182880180546001600160a01b0319166001600160a01b039092169190911790558501519181019190915591830151600383015560808301519082015560a0820151600582015560c0820151600682015560e0909101516007909101559093019250610f81565b60445491505b60445460065401821015611392578193506019828154811061111857fe5b600091825260209182902060408051610100810182526008909302909101805483526001808201546001600160a01b0316948401949094526002810154918301919091526003810154606083015260048101546080830152600581015460a0830152600681015460c08301526007015460e08201529550820190505b6044546006540181101561125657601981815481106111af57fe5b60009182526020909120600890910201548551111561124e57601981815481106111d557fe5b6000918252602091829020604080516101008101825260089093029091018054835260018101546001600160a01b0316938301939093526002830154908201526003820154606082015260048201546080820152600582015460a0820152600682015460c082015260079091015460e082015294509250825b600101611194565b818414611387576019828154811061126a57fe5b90600052602060002090600802016019858154811061128557fe5b60009182526020909120825460089092020190815560018083015490820180546001600160a01b0319166001600160a01b039092169190911790556002808301549082015560038083015490820155600480830154908201556005808301549082015560068083015490820155600791820154910155601980548691908490811061130c57fe5b6000918252602091829020835160089290920201908155908201516001820180546001600160a01b0319166001600160a01b0390921691909117905560408201516002820155606082015160038201556080820151600482015560a0820151600582015560c0820151600682015560e0909101516007909101555b6001909101906110fa565b5050505050565b6113a4600a54613762565b60175460408051600160e11b632105c0fb028152815160009384936001600160a01b039091169263420b81f69260048083019392829003018186803b1580156113ec57600080fd5b505afa158015611400573d6000803e3d6000fd5b505050506040513d604081101561141657600080fd5b50805160209182015160408051600160e01b6310645d810281526fffffffffffffffffffffffffffffffff9093166004840181905290519095509093506114bf9273__Lucky7Library_________________________926310645d819260248083019392829003018186803b15801561148e57600080fd5b505af41580156114a2573d6000803e3d6000fd5b505050506040513d60208110156114b857600080fd5b505161392e565b6001600160a01b038416600090815260386020908152604090912082516114ec9391929190910190615722565b506001600160a01b0383166000908152603860205260409020600301805460ff19166001179055601854600160a01b900460ff1661161e57600073__Lucky7Library_________________________6310645d816042546040518263ffffffff1660e01b81526004018082815260200191505060206040518083038186803b15801561157757600080fd5b505af415801561158b573d6000803e3d6000fd5b505050506040513d60208110156115a157600080fd5b505160428054600101905560185460408051600160e11b634e071fbd0281526004810184905260006024820181905291519394506001600160a01b0390921692639c0e3f7a92604480820193929182900301818387803b15801561160457600080fd5b505af1158015611618573d6000803e3d6000fd5b50505050505b505050565b60015481565b6116316139f4565b6001600160a01b0316336001600160a01b03161461164e57600080fd5b604080513031815290517f04be25a4c0fe4c39136ca055daaac08ac6b3041b2e1f2a1b698bac12f1cbdc4a9181900360200190a16000828152603a60205260409020546001600160a01b0316158015906116d557506000828152603a60209081526040808320546001600160a01b031683526038909152902060030154610100900460ff16155b1561196c576000828152603a60209081526040808320546001600160a01b0316835260388252909120825161171292600190920191840190615722565b506000828152603a6020908152604080832080546001600160a01b03908116855260389093528184206003908101805461ff00191661010017905590549092168352909120015460ff16151560011415611967576000828152603a60209081526040808320546001600160a01b03168352603890915290206003015460ff62010000909104161515600114156117c8576000828152603a60205260409020546117c3906001600160a01b0316612e39565b61192f565b601854600160b01b900460ff1661192f57604080546000848152603a6020908152838220546001600160a01b03168083526038825291849020845185815281546002610100600180841615919091026000190190921604968201879052949593947f6f6a595f1625060fd0f882e953621a1d74eda187446f39622246322aa887c9029492939084019282918201906060830190869080156118aa5780601f1061187f576101008083540402835291602001916118aa565b820191906000526020600020905b81548152906001019060200180831161188d57829003601f168201915b505083810382528454600260001961010060018416150201909116048082526020909101908590801561191e5780601f106118f35761010080835404028352916020019161191e565b820191906000526020600020905b81548152906001019060200180831161190157829003601f168201915b505094505050505060405180910390a35b601854600160b01b900460ff16151560011415611967576000828152603a6020526040902054611967906001600160a01b0316612e39565b611a86565b6000828152603b60205260409020546001600160a01b0316158015906119dd57506000828152603b60209081526040808320546001600160a01b03168352603890915290206003015460ff62010000909104161515600114806119dd5750601854600160b01b900460ff1615156001145b15611a86576119eb81613bde565b6000838152603b6020908152604080832080546001600160a01b039081168552603890935281842060020194909455925416815220600301805462ff000019169055601854600160b01b900460ff16151560011415611a65576000828152603b6020526040902054611967906001600160a01b0316613bf1565b6000828152603b6020526040902054611a86906001600160a01b0316613e73565b5050565b601854600160b01b900460ff1681565b600080601c60016006540360078110611aaf57fe5b6004020160020154601a8481548110611ac457fe5b9060005260206000209060050201600201541115611b30576001600654039150611b29601c8360078110611af457fe5b6004020160020154601a8581548110611b0957fe5b90600052602060002090600502016002015461423390919063ffffffff16565b9050611ca5565b601e54601a805485908110611b4157fe5b9060005260206000209060050201600201541015611ba25760009150611b29601a8481548110611b6d57fe5b906000526020600020906005020160020154601c8460078110611b8c57fe5b600402016002015461423390919063ffffffff16565b601c8260078110611baf57fe5b6004020160020154601a8481548110611bc457fe5b9060005260206000209060050201600201541115611be757600190910190611ba2565b601c8260078110611bf457fe5b6004020160020154601a8481548110611c0957fe5b9060005260206000209060050201600201541415611c2957506000611ca5565b6000611c53601c6001850360078110611c3e57fe5b6004020160020154601a8681548110611b0957fe5b90506000611c86601a8681548110611c6757fe5b906000526020600020906005020160020154601c8660078110611b8c57fe5b905081811115611c9e57600184039350819250611ca2565b8092505b50505b6000828152603d60205260409020546001600160a01b03161580611cd657506000828152603c602052604090205481105b1561161e57601a8381548110611ce857fe5b6000918252602080832060036005909302019190910154848352603d8252604080842080546001600160a01b0319166001600160a01b0390931692909217909155603c8252808320849055603f9091529020839055601a805484908110611d4b57fe5b6000918252602080832060026005909302019190910154848352603e8083526040808520839055603d84529384902054908352835191825291810184905280830185905291516001600160a01b03909116917f3aba55b4f09d935ff9a3c49a2fc37832dde4fde12062957a9d261357f3c4a982919081900360600190a2505050565b6003805460408051602060026001851615610100026000190190941693909304601f81018490048402820184019092528181529291830182828015611e535780601f10611e2857610100808354040283529160200191611e53565b820191906000526020600020905b815481529060010190602001808311611e3657829003601f168201915b505050505081565b6017546001600160a01b031681565b5050600080805260156020527fa31547ce6245cdb9ecea19cf8c7eb9f5974025bb4075011409251ae855b30aed5550565b611ea3612814565b611ee55760408051600160e51b62461bcd02815260206004820181905260248201526000805160206158f5833981519152604482015290519081900360640190fd5b6018805460ff600160b01b8083048216158102600160b01b60ff021990931692909217928390556040805192909304161515815290517f7632252ebff214b4969a92f7ca8290a9aa92e8dbea9b95ae49a7ea372c0860269181900360200190a1565b60085481565b611f556157a0565b503360009081526046602090815260409182902082518084018452815480825260019092015492810183905292549091148015611f925750815115155b611f9b57600080fd5b336000818152604660205260408082208290555183156108fc0291849190818181858888f19350505050158015611fd6573d6000803e3d6000fd5b5060408054815190815260208101839052815133927f256642a903d86ec186d0ad895b74bdbe7f9e5a72db568f4c4d58c2fa38b39e1c928290030190a25050565b600080612022612eb2565b604354919450925060ff16151560011415905061206957600182151514801561204d57506001811515145b8061205b575061205b612814565b61206457600080fd5b612086565b600182151514801561207d57506001811515145b61208657600080fd5b601a5461209257600080fd5b61209a611e9b565b6120a2610f29565b6120aa612f72565b6120b2612cc0565b50506040805460019081018255600f543360009081526046602052838120805490920182559254908201819055600b839055600c9290925542905560065402604455565b603e6020526000908152604090205481565b601b6020526000908152604090205481565b60386020908152600091825260409182902080548351601f600260001961010060018616150201909316929092049182018490048402810184019094528084529092918391908301828280156121b15780601f10612186576101008083540402835291602001916121b1565b820191906000526020600020905b81548152906001019060200180831161219457829003601f168201915b505050505090806001018054600181600116156101000203166002900480601f01602080910402602001604051908101604052809291908181526020018280546001816001161561010002031660029004801561224f5780601f106122245761010080835404028352916020019161224f565b820191906000526020600020905b81548152906001019060200180831161223257829003601f168201915b50505050600283015460039093015491929160ff808216925061010082048116916201000090041686565b6002805460408051602060018416156101000260001901909316849004601f81018490048402820184019092528181529291830182828015611e535780601f10611e2857610100808354040283529160200191611e53565b60095481565b600b5481565b60065481565b600f5481565b6122f2612814565b6123345760408051600160e51b62461bcd02815260206004820181905260248201526000805160206158f5833981519152604482015290519081900360640190fd5b600080546040516001600160a01b03909116907f8be0079c531659141344cd1fd0a4f28419497f9722a3daafe3b4186f6b6457e0908390a3600080546001600160a01b0319169055565b612386612814565b6123c85760408051600160e51b62461bcd02815260206004820181905260248201526000805160206158f5833981519152604482015290519081900360640190fd5b6123d06157ba565b600080805b6006548110156127e957809250601c81600781106123ef57fe5b6040805160049290920292909201805460a06020601f600260001961010060018716150201909416939093049283018190040284018101909452608083018181529293919284929091849184018282801561248b5780601f106124605761010080835404028352916020019161248b565b820191906000526020600020905b81548152906001019060200180831161246e57829003601f168201915b50505050508152602001600182018054600181600116156101000203166002900480601f01602080910402602001604051908101604052809291908181526020018280546001816001161561010002031660029004801561252d5780601f106125025761010080835404028352916020019161252d565b820191906000526020600020905b81548152906001019060200180831161251057829003601f168201915b505050505081526020016002820154815260200160038201548152505093508060010191505b6006548210156126f657601c826007811061256a57fe5b6004020160020154846040015111156126eb57601c826007811061258a57fe5b6040805160049290920292909201805460a06020601f60026000196101006001871615020190941693909304928301819004028401810190945260808301818152929391928492909184918401828280156126265780601f106125fb57610100808354040283529160200191612626565b820191906000526020600020905b81548152906001019060200180831161260957829003601f168201915b50505050508152602001600182018054600181600116156101000203166002900480601f0160208091040260200160405190810160405280929190818152602001828054600181600116156101000203166002900480156126c85780601f1061269d576101008083540402835291602001916126c8565b820191906000526020600020905b8154815290600101906020018083116126ab57829003601f168201915b505050505081526020016002820154815260200160038201548152505093508192505b600190910190612553565b8083146127e157601c816007811061270a57fe5b60040201601c846007811061271b57fe5b60040201600082018160000190805460018160011615610100020316600290046127469291906157e2565b506001820181600101908054600181600116156101000203166002900461276e9291906157e2565b506002828101549082015560039182015491015583601c826007811061279057fe5b6004020160008201518160000190805190602001906127b0929190615722565b5060208281015180516127c99260018501920190615722565b50604082015160028201556060909101516003909101555b6001016123d5565b50505050565b6127f881611399565b612801816136bc565b50565b6000546001600160a01b03165b90565b6000546001600160a01b0316331490565b600c5481565b601854600160b01b900460ff16151560011461284657600080fd5b601854600160a81b900460ff161561285d57600080fd5b60065460415414156128cc5760188054600160a81b60ff021916600160a81b17905561288761237e565b6000604155612894611e9b565b60188054600160a81b60ff02191690556010543360009081526046602052604090819020805490920182555460019190910155612929565b60188054600160a81b60ff021916600160a81b179055306000818152603860205260409020600301805461ffff19169055612906906127ef565b601054336000908152604660205260409081902080549092018255546001909101555b565b601c816007811061293857fe5b60040201805460408051602060026001851615610100026000190190941693909304601f810184900484028201840190925281815292935083918301828280156129c35780601f10612998576101008083540402835291602001916129c3565b820191906000526020600020905b8154815290600101906020018083116129a657829003601f168201915b505050505090806001018054600181600116156101000203166002900480601f016020809104026020016040519081016040528092919081815260200182805460018160011615610100020316600290048015612a615780601f10612a3657610100808354040283529160200191612a61565b820191906000526020600020905b815481529060010190602001808311612a4457829003601f168201915b5050505050908060020154908060030154905084565b600a5481565b6004805460408051602060026001851615610100026000190190941693909304601f81018490048402820184019092528181529291830182828015611e535780601f10611e2857610100808354040283529160200191611e53565b600d5481565b60105481565b6018546001600160a01b031681565b601a8181548110612b0057fe5b60009182526020918290206005919091020180546040805160026001841615610100026000190190931692909204601f810185900485028301850190915280825291935091839190830182828015612b995780601f10612b6e57610100808354040283529160200191612b99565b820191906000526020600020905b815481529060010190602001808311612b7c57829003601f168201915b505050505090806001018054600181600116156101000203166002900480601f016020809104026020016040519081016040528092919081815260200182805460018160011615610100020316600290048015612c375780601f10612c0c57610100808354040283529160200191612c37565b820191906000526020600020905b815481529060010190602001808311612c1a57829003601f168201915b5050505060028301546003840154600490940154929390926001600160a01b03909116915085565b6005805460408051602060026001851615610100026000190190941693909304601f81018490048402820184019092528181529291830182828015611e535780601f10611e2857610100808354040283529160200191611e53565b60445481565b60005b600654811015612801576000818152603c60209081526040808320839055603d825280832080546001600160a01b0319169055603f8252808320839055603e825280832092909255815180830190925260018252600160fc1b60030290820152601c8260078110612d3057fe5b600402016000019080519060200190612d4a929190615722565b50604051806040016040528060018152602001600160fc1b600302815250601c8260078110612d7557fe5b600402016001019080519060200190612d8f929190615722565b506000601c8260078110612d9f57fe5b6004020160020181905550604054601c8260078110612dba57fe5b6004020160030155600101612cc3565b60415481565b60198181548110612ddd57fe5b6000918252602090912060089091020180546001820154600283015460038401546004850154600586015460068701546007909701549597506001600160a01b0390941695929491939092909188565b60405481565b60075481565b612e44600a54613762565b6000612e826040518060400160405280600c8152602001600160a01b6b576f6c6672616d416c70686102815250612e7a84614293565b600954614afc565b6000908152603b6020526040902080546001600160a01b0319166001600160a01b03939093169290921790915550565b600a54600954600754600854600b54600c54600d54600e5460015496909702938490039190910292909303020192908310159101421015909192565b600e5481565b603c6020526000908152604090205481565b612f0e612814565b612f505760408051600160e51b62461bcd02815260206004820181905260248201526000805160206158f5833981519152604482015290519081900360640190fd5b61280181614ed1565b6046602052600090815260409020805460019091015482565b612f7a612814565b612fbc5760408051600160e51b62461bcd02815260206004820181905260248201526000805160206158f5833981519152604482015290519081900360640190fd5b6000612fd03031600763ffffffff614f7416565b9050612fe48161011863ffffffff614fd016565b60445490915060075b604454600654018210156136545760006001600160a01b03166019838154811061301357fe5b60009182526020909120600160089092020101546001600160a01b0316146131a657604054600101604660006019858154811061304c57fe5b6000918252602080832060016008909302018201546001600160a01b03168452830193909352604090910190200154146130d457613090838263ffffffff614f7416565b60466000601985815481106130a157fe5b60009182526020808320600160089093020191909101546001600160a01b0316835282019290925260400190205561312a565b6130e4838263ffffffff614f7416565b60466000601985815481106130f557fe5b60009182526020808320600160089093020191909101546001600160a01b031683528201929092526040019020805490910190555b604054600101604660006019858154811061314157fe5b6000918252602080832060016008909302018201546001600160a01b03168452830193909352604090910190200155613180838263ffffffff614f7416565b6019838154811061318d57fe5b6000918252602090912060076008909202010155600019015b606060006001600160a01b0316601984815481106131c057fe5b60009182526020909120600160089092020101546001600160a01b0316141561320557604051806040016040528060018152602001600160fc1b6003028152506132c9565b601a6019848154811061321457fe5b9060005260206000209060080201600201548154811061323057fe5b6000918252602091829020600590910201805460408051601f60026000196101006001871615020190941693909304928301859004850281018501909152818152928301828280156132c35780601f10613298576101008083540402835291602001916132c3565b820191906000526020600020905b8154815290600101906020018083116132a657829003601f168201915b50505050505b9050606060006001600160a01b0316601985815481106132e557fe5b60009182526020909120600160089092020101546001600160a01b0316141561332a57604051806040016040528060018152602001600160fc1b600302815250613400565b601a6019858154811061333957fe5b9060005260206000209060080201600201548154811061335557fe5b90600052602060002090600502016001018054600181600116156101000203166002900480601f0160208091040260200160405190810160405280929190818152602001828054600181600116156101000203166002900480156133fa5780601f106133cf576101008083540402835291602001916133fa565b820191906000526020600020905b8154815290600101906020018083116133dd57829003601f168201915b50505050505b90506019848154811061340f57fe5b906000526020600020906008020160010160009054906101000a90046001600160a01b03166001600160a01b03167f538343026e31e40972341fb0edf015061204ea9cd1158d295f5d962b7223e6bf6019868154811061346b57fe5b9060005260206000209060080201600001546019878154811061348a57fe5b906000526020600020906008020160020154601988815481106134a957fe5b906000526020600020906008020160030154601989815481106134c857fe5b90600052602060002090600802016004015460198a815481106134e757fe5b90600052602060002090600802016005015460198b8154811061350657fe5b90600052602060002090600802016006015460198c8154811061352557fe5b9060005260206000209060080201600701548a8a604051808a81526020018981526020018881526020018781526020018681526020018581526020018481526020018060200180602001838103835285818151815260200191508051906020019080838360005b838110156135a457818101518382015260200161358c565b50505050905090810190601f1680156135d15780820380516001836020036101000a031916815260200191505b50838103825284518152845160209182019186019080838360005b838110156136045781810151838201526020016135ec565b50505050905090810190601f1680156136315780820380516001836020036101000a031916815260200191505b509b50505050505050505050505060405180910390a25050600190910190612fed565b60006136683031600363ffffffff614f7416565b905061367b81600a63ffffffff614fd016565b6011546040519192506001600160a01b03169082156108fc029083906000818181858888f19350505050158015611392573d6000803e3d6000fd5b60455481565b6136c7600a54613762565b60006137326040518060400160405280600c8152602001600160a01b6b576f6c6672616d416c706861028152506040518060400160405280600f81526020017f342072616e646f6d206e756d6265720000000000000000000000000000000000815250600954614afc565b6000908152603a6020526040902080546001600160a01b0319166001600160a01b03939093169290921790915550565b6013546001600160a01b0316158061378c575060135461378a906001600160a01b031661503d565b155b1561379d5761379b6000615041565b505b601360009054906101000a90046001600160a01b03166001600160a01b03166338cc48316040518163ffffffff1660e01b8152600401602060405180830381600087803b1580156137ed57600080fd5b505af1158015613801573d6000803e3d6000fd5b505050506040513d602081101561381757600080fd5b50516012546001600160a01b039081169116146138ca57601360009054906101000a90046001600160a01b03166001600160a01b03166338cc48316040518163ffffffff1660e01b8152600401602060405180830381600087803b15801561387e57600080fd5b505af1158015613892573d6000803e3d6000fd5b505050506040513d60208110156138a857600080fd5b5051601280546001600160a01b0319166001600160a01b039092169190911790555b60125460408051600160e21b63329ab4790281526004810184905290516001600160a01b039092169163ca6ad1e49160248082019260009290919082900301818387803b15801561391a57600080fd5b505af1158015611392573d6000803e3d6000fd5b60608161395657506040805180820190915260018152600160fc1b60030260208201526139ef565b8160005b811561396e57600101600a8204915061395a565b6060816040519080825280601f01601f19166020018201604052801561399b576020820181803883390190505b50905060001982015b85156139e957600a860660300160f81b828280600190039350815181106139c757fe5b60200101906001600160f81b031916908160001a905350600a860495506139a4565b50925050505b919050565b6013546000906001600160a01b03161580613a215750601354613a1f906001600160a01b031661503d565b155b15613a3257613a306000615041565b505b601360009054906101000a90046001600160a01b03166001600160a01b03166338cc48316040518163ffffffff1660e01b8152600401602060405180830381600087803b158015613a8257600080fd5b505af1158015613a96573d6000803e3d6000fd5b505050506040513d6020811015613aac57600080fd5b50516012546001600160a01b03908116911614613b5f57601360009054906101000a90046001600160a01b03166001600160a01b03166338cc48316040518163ffffffff1660e01b8152600401602060405180830381600087803b158015613b1357600080fd5b505af1158015613b27573d6000803e3d6000fd5b505050506040513d6020811015613b3d57600080fd5b5051601280546001600160a01b0319166001600160a01b039092169190911790555b601260009054906101000a90046001600160a01b03166001600160a01b031663c281d19e6040518163ffffffff1660e01b815260040160206040518083038186803b158015613bad57600080fd5b505afa158015613bc1573d6000803e3d6000fd5b505050506040513d6020811015613bd757600080fd5b5051905090565b6000613beb82600061504b565b92915050565b604080516001600160a01b03831660009081526038602090815290839020805460026001821615610100026000190190911604601f8101839004909202830160a090810190945260808301828152929384939290840182828015613c965780601f10613c6b57610100808354040283529160200191613c96565b820191906000526020600020905b815481529060010190602001808311613c7957829003601f168201915b5050505050815260200160386000846001600160a01b03166001600160a01b031681526020019081526020016000206001018054600181600116156101000203166002900480601f016020809104026020016040519081016040528092919081815260200182805460018160011615610100020316600290048015613d5c5780601f10613d3157610100808354040283529160200191613d5c565b820191906000526020600020905b815481529060010190602001808311613d3f57829003601f168201915b50505091835250506001600160a01b03831660009081526038602090815260409182902060020154908301528054910152604154601c9060078110613d9d57fe5b600402016000820151816000019080519060200190613dbd929190615722565b506020828101518051613dd69260018501920190615722565b5060408201518160020155606082015181600301559050507f205b10e6817754ae69619fe35e2b49c3c9246b795133b40533171497a81e371360386000836001600160a01b03166001600160a01b0316815260200190815260200160002060020154604154604051808381526020018281526020019250505060405180910390a15060418054600101905560188054600160a81b60ff0219169055565b613e7b615857565b6001600160a01b0382166000908152603860209081526040918290208251815460026001821615610100026000190190911604601f8101849004909302810160e090810190945260c08101838152909391928492849190840182828015613f235780601f10613ef857610100808354040283529160200191613f23565b820191906000526020600020905b815481529060010190602001808311613f0657829003601f168201915b50505050508152602001600182018054600181600116156101000203166002900480601f016020809104026020016040519081016040528092919081815260200182805460018160011615610100020316600290048015613fc55780601f10613f9a57610100808354040283529160200191613fc5565b820191906000526020600020905b815481529060010190602001808311613fa857829003601f168201915b5050509183525050600282015460208083019190915260039092015460ff8082161515604080850191909152610100830482161515606080860191909152620100009093049091161515608093840152805160a08101825285518152858501518186015285820151818301526001600160a01b038816928101929092525491810191909152601a805460018181018084556000938452845180519798509396919590949360059093027f057c384a7d1c54f3a1b2e5e67b2617b8224fdfd1ea7234eea573a6ff665ff63e01926140a19284929190910190615722565b5060208281015180516140ba9260018501920190615722565b506040820151816002015560608201518160030160006101000a8154816001600160a01b0302191690836001600160a01b03160217905550608082015181600401555050039050604054836001600160a01b03167f55e46bc67aa8ca9c625f4e25d40ab91d3e3878a23e0baff870cb4bc532cd9d6684604001518560000151866020015186604051808581526020018060200180602001848152602001838103835286818151815260200191508051906020019080838360005b8381101561418c578181015183820152602001614174565b50505050905090810190601f1680156141b95780820380516001836020036101000a031916815260200191505b50838103825285518152855160209182019187019080838360005b838110156141ec5781810151838201526020016141d4565b50505050905090810190601f1680156142195780820380516001836020036101000a031916815260200191505b50965050505050505060405180910390a361161e81611a9a565b60008282111561428d5760408051600160e51b62461bcd02815260206004820152601e60248201527f536166654d6174683a207375627472616374696f6e206f766572666c6f770000604482015290519081900360640190fd5b50900390565b604080518082018252600c81527f286d6f642828312f2831305e000000000000000000000000000000000000000060208083019190915260038054845160026001831615610100026000190190921691909104601f8101849004840282018401909552848152606094859461444094909391908301828280156143575780601f1061432c57610100808354040283529160200191614357565b820191906000526020600020905b81548152906001019060200180831161433a57829003601f168201915b50506040805180820182526001808252600160f81b602d026020808401919091526001600160a01b038d1660009081526038825284902080548551600294821615610100026000190190911693909304601f81018390048302840183019095528483529296509094509092508301828280156144145780601f106143e957610100808354040283529160200191614414565b820191906000526020600020905b8154815290600101906020018083116143f757829003601f168201915b5050505050604051806040016040528060068152602001600160d11b6514949518982f0281525061513c565b60048054604080516020601f600260001961010060018816150201909516949094049384018190048102820181019092528281529394506145a4938593909290918301828280156144d25780601f106144a7576101008083540402835291602001916144d2565b820191906000526020600020905b8154815290600101906020018083116144b557829003601f168201915b50506040805180820182526005808252600160db1b640586260bc5026020808401919091528154845160026001831615610100026000190190921691909104601f8101839004830282018301909552848152929650919450925083018282801561457d5780601f106145525761010080835404028352916020019161457d565b820191906000526020600020905b81548152906001019060200180831161456057829003601f168201915b5050505050604051806040016040528060018152602001600160f81b602b0281525061513c565b905061474f8160386000866001600160a01b03166001600160a01b031681526020019081526020016000206001018054600181600116156101000203166002900480601f0160208091040260200160405190810160405280929190818152602001828054600181600116156101000203166002900480156146665780601f1061463b57610100808354040283529160200191614666565b820191906000526020600020905b81548152906001019060200180831161464957829003601f168201915b5050604080518082018252600e81527f29292d6d6f642828312f2831305e00000000000000000000000000000000000060208083019190915260038054845160026001831615610100026000190190921691909104601f81018490048402820184019095528481529296509194509092508301828280156147285780601f106146fd57610100808354040283529160200191614728565b820191906000526020600020905b81548152906001019060200180831161470b57829003601f168201915b5050505050604051806040016040528060018152602001600160f81b602d0281525061513c565b6001600160a01b03841660009081526038602090815260409182902080548351601f600260001961010060018616150201909316929092049182018490048402810184019094528084529394506148cc938593928301828280156147f45780601f106147c9576101008083540402835291602001916147f4565b820191906000526020600020905b8154815290600101906020018083116147d757829003601f168201915b505060408051808201825260068152600160d11b6514949518982f0260208083019190915260048054845160026001831615610100026000190190921691909104601f81018490048402820184019095528481529296509194509092508301828280156148a25780601f10614877576101008083540402835291602001916148a2565b820191906000526020600020905b81548152906001019060200180831161488557829003601f168201915b5050505050604051806040016040528060048152602001600160e11b631618982f0281525061513c565b6040805180820182526001808252600160fb1b6005026020808401919091526001600160a01b038816600090815260388252849020820180548551600294821615610100026000190190911693909304601f8101839004830284018301909552848352949550614a5b948694909183018282801561498b5780601f106149605761010080835404028352916020019161498b565b820191906000526020600020905b81548152906001019060200180831161496e57829003601f168201915b505060408051808201825260078152600160c91b661494949798982f026020808301919091526001600160a01b038d16600090815260388252839020600190810180548551600293821615610100026000190190911692909204601f81018490048402830184019095528482529296509450909250830182828015614a515780601f10614a2657610100808354040283529160200191614a51565b820191906000526020600020905b815481529060010190602001808311614a3457829003601f168201915b505050505061513c565b90507f261af219212047633bb60c8d0cc7e33d217c38edf6fa7e53acb97a3f94180de5816040518080602001828103825283818151815260200191508051906020019080838360005b83811015614abc578181015183820152602001614aa4565b50505050905090810190601f168015614ae95780820380516001836020036101000a031916815260200191505b509250505060405180910390a192915050565b6013546000906001600160a01b03161580614b295750601354614b27906001600160a01b031661503d565b155b15614b3a57614b386000615041565b505b601360009054906101000a90046001600160a01b03166001600160a01b03166338cc48316040518163ffffffff1660e01b8152600401602060405180830381600087803b158015614b8a57600080fd5b505af1158015614b9e573d6000803e3d6000fd5b505050506040513d6020811015614bb457600080fd5b50516012546001600160a01b03908116911614614c6757601360009054906101000a90046001600160a01b03166001600160a01b03166338cc48316040518163ffffffff1660e01b8152600401602060405180830381600087803b158015614c1b57600080fd5b505af1158015614c2f573d6000803e3d6000fd5b505050506040513d6020811015614c4557600080fd5b5051601280546001600160a01b0319166001600160a01b039092169190911790555b60125460408051600160e21b630bbceb3302815260248101859052600481019182528651604482015286516000936001600160a01b031692632ef3accc928992889291829160649091019060208601908083838c5b83811015614cd4578181015183820152602001614cbc565b50505050905090810190601f168015614d015780820380516001836020036101000a031916815260200191505b509350505050602060405180830381600087803b158015614d2157600080fd5b505af1158015614d35573d6000803e3d6000fd5b505050506040513d6020811015614d4b57600080fd5b50519050670de0b6b3a76400003a840201811115614d6d575060009050614eca565b601254604051600160e01b63c51be90f028152600060048201818152606483018790526080602484019081528951608485015289516001600160a01b039095169463c51be90f948794938c938c938c93604481019160a49091019060208801908083838c5b83811015614dea578181015183820152602001614dd2565b50505050905090810190601f168015614e175780820380516001836020036101000a031916815260200191505b50838103825285518152855160209182019187019080838360005b83811015614e4a578181015183820152602001614e32565b50505050905090810190601f168015614e775780820380516001836020036101000a031916815260200191505b5096505050505050506020604051808303818588803b158015614e9957600080fd5b505af1158015614ead573d6000803e3d6000fd5b50505050506040513d6020811015614ec457600080fd5b50519150505b9392505050565b6001600160a01b038116614f1957604051600160e51b62461bcd0281526004018080602001828103825260268152602001806158ae6026913960400191505060405180910390fd5b600080546040516001600160a01b03808516939216917f8be0079c531659141344cd1fd0a4f28419497f9722a3daafe3b4186f6b6457e091a3600080546001600160a01b0319166001600160a01b0392909216919091179055565b600082614f8357506000613beb565b82820282848281614f9057fe5b0414614eca57604051600160e51b62461bcd0281526004018080602001828103825260218152602001806158d46021913960400191505060405180910390fd5b60008082116150295760408051600160e51b62461bcd02815260206004820152601a60248201527f536166654d6174683a206469766973696f6e206279207a65726f000000000000604482015290519081900360640190fd5b600082848161503457fe5b04949350505050565b3b90565b6000613beb615350565b6000828180805b835181101561512357603084828151811061506957fe5b602001015160f81c60f81b60f81c60ff16101580156150a55750603984828151811061509157fe5b602001015160f81c60f81b60f81c60ff1611155b156150f15781156150c257856150ba57615123565b600019909501945b600a8302925060308482815181106150d657fe5b602001015160f81c60f81b60f81c60ff16038301925061511b565b8381815181106150fd57fe5b602001015160f81c60f81b60f81c60ff16602e141561511b57600191505b600101615052565b5084156151335784600a0a820291505b50949350505050565b6060808690506060869050606086905060608690506060869050606081518351855187518951010101016040519080825280601f01601f191660200182016040528015615190576020820181803883390190505b509050806000805b88518110156151e9578881815181106151ad57fe5b602001015160f81c60f81b8383806001019450815181106151ca57fe5b60200101906001600160f81b031916908160001a905350600101615198565b5060005b875181101561523e5787818151811061520257fe5b602001015160f81c60f81b83838060010194508151811061521f57fe5b60200101906001600160f81b031916908160001a9053506001016151ed565b5060005b86518110156152935786818151811061525757fe5b602001015160f81c60f81b83838060010194508151811061527457fe5b60200101906001600160f81b031916908160001a905350600101615242565b5060005b85518110156152e8578581815181106152ac57fe5b602001015160f81c60f81b8383806001019450815181106152c957fe5b60200101906001600160f81b031916908160001a905350600101615297565b5060005b845181101561533d5784818151811061530157fe5b602001015160f81c60f81b83838060010194508151811061531e57fe5b60200101906001600160f81b031916908160001a9053506001016152ec565b50909d9c50505050505050505050505050565b600080615370731d3b2638a7cc9f2cb3d298a3da7a90b67e5506ed61503d565b11156153d257601380546001600160a01b031916731d3b2638a7cc9f2cb3d298a3da7a90b67e5506ed17905560408051808201909152600b8152600160aa1b6a195d1a17db585a5b9b995d0260208201526153ca906156c1565b506001612811565b60006153f173c03a2615d5efaf5f49f60b7bb6583eaec212fdf161503d565b111561545a57601380546001600160a01b03191673c03a2615d5efaf5f49f60b7bb6583eaec212fdf117905560408051808201909152600c81527f6574685f726f707374656e33000000000000000000000000000000000000000060208201526153ca906156c1565b600061547973b7a07bcf2ba2f2703b24c0691b5278999c59ac7e61503d565b11156154d157601380546001600160a01b03191673b7a07bcf2ba2f2703b24c0691b5278999c59ac7e1790556040805180820190915260098152600160b91b6832ba342fb5b7bb30b70260208201526153ca906156c1565b60006154f073146500cfd35b22e4a392fe0adc06de1a1368ed4861503d565b111561554a57601380546001600160a01b03191673146500cfd35b22e4a392fe0adc06de1a1368ed4817905560408051808201909152600b8152600160a81b6a6574685f72696e6b6562790260208201526153ca906156c1565b600061556973a2998efd205fb9d4b4963afb70778d6354ad3a4161503d565b11156155c257601380546001600160a01b03191673a2998efd205fb9d4b4963afb70778d6354ad3a4117905560408051808201909152600a8152600160b01b696574685f676f65726c690260208201526153ca906156c1565b60006155e1736f485c8bf6fc43ea212e93bbf8ce046c7f1cb47561503d565b11156156155750601380546001600160a01b031916736f485c8bf6fc43ea212e93bbf8ce046c7f1cb4751790556001612811565b60006156347320e12a1f859b3feae5fb2a0a32c18f5a65555bbf61503d565b11156156685750601380546001600160a01b0319167320e12a1f859b3feae5fb2a0a32c18f5a65555bbf1790556001612811565b60006156877351efaf4c8b3c9afbd5ab9f4bbc82784ab6ef8faa61503d565b11156156bb5750601380546001600160a01b0319167351efaf4c8b3c9afbd5ab9f4bbc82784ab6ef8faa1790556001612811565b50600090565b8051611a86906014906020840190615722565b6040518061010001604052806000815260200160006001600160a01b031681526020016000815260200160008152602001600081526020016000815260200160008152602001600081525090565b828054600181600116156101000203166002900490600052602060002090601f016020900481019282601f1061576357805160ff1916838001178555615790565b82800160010185558215615790579182015b82811115615790578251825591602001919060010190615775565b5061579c929150615893565b5090565b604051806040016040528060008152602001600081525090565b6040518060800160405280606081526020016060815260200160008152602001600081525090565b828054600181600116156101000203166002900490600052602060002090601f016020900481019282601f1061581b5780548555615790565b8280016001018555821561579057600052602060002091601f016020900482015b8281111561579057825482559160010191906001019061583c565b6040518060c001604052806060815260200160608152602001600081526020016000151581526020016000151581526020016000151581525090565b61281191905b8082111561579c576000815560010161589956fe4f776e61626c653a206e6577206f776e657220697320746865207a65726f2061646472657373536166654d6174683a206d756c7469706c69636174696f6e206f766572666c6f774f776e61626c653a2063616c6c6572206973206e6f7420746865206f776e6572a165627a7a72305820b61c41c95bfbc034c9e54c52bbff2276492ffa75f01ce4ba12bcac32af312ec10029",
  "source": "/**\n * @author Matias Barrios\n * @version 1.0\n */\n\n/** @title Lucky7Raffle. \n * This contract contains all the functions to start a new game and deliver prizes.\n * Particularly contains function that have the business logic for generating Lucky7Numbers and Lucky7Tickets, order them, deliver prizes and clean necessary arrays.\n */\n\npragma solidity ^ 0.5 .0;\n\nimport \"./Lucky7TicketFactory.sol\";\n\ncontract Lucky7Raffle is Lucky7TicketFactory {\n  bool isLocalBlockchain;\n  constructor(address _lucky7Lighthouse, bool _isRhombusAvailable, bool _isLocalBlockchain)\n  public\n  payable\n  Lucky7TicketFactory(_lucky7Lighthouse, _isRhombusAvailable) { // To initialize Lucky7TicketFactory constructor with Rhombus lighthouse\n    isLocalBlockchain = _isLocalBlockchain;\n  }\n\n  /**\n   * @dev To communicate front end that a new game was stablished\n   */\n  event NewGameStarted(uint gameID);\n  event Lucky7TicketStored(uint difference, address indexed owner, uint ticketID, uint ticketValue, uint lucky7Number, uint lucky7NumberID, uint gameID, uint prize, string mu, string i);\n  event PrizeClaimed(address indexed owner, uint gameID, uint amount);\n  /** @dev This modifier is meant to block the Lucky7Number generation when the game is on course\n   * Is used to block the action of the _generateLucky7Number function of this contract if the circuit breaker\n   * is not \n   */\n  modifier gameNotInCourse() {\n    require(settingLucky7Numbers == true);\n    _;\n  }\n\n  modifier prizesDeliveryEnabled() {\n    bool potReached;\n    bool timeReached;\n    (, potReached, timeReached) = validateDelivery();\n    if(isLocalBlockchain == true){\n      require((potReached == true && timeReached == true) || isOwner());\n    }\n    else{\n      require(potReached == true && timeReached == true);\n    }\n    _;\n  }\n  /** @param initialLucky7TicketPosition is a uint used for the _orderLucky7Tickets function of this contract. \n    * Because is necessary to store the information of previous games permanently is necessary then to know what it the starting point to store in the \n    * lucky7TicketsArray array of the Lucky77TicketFactory.sol contract. \n    * This way, the _orderLucky7Tickets function starts storing in the \"initialLucky7TicketPosition\" and finish storing in the \n    * \"numberOfLucky7Numbers+initialLucky7TicketPosition\" position of the lucky7TicketsArray array. \n    * Defaults to 0, and is getting incremented by \"numberOfLucky7Numbers\" value every time the setNewGame function of this contract is called.\n    * @param currentTicketID is a uint which points to the position in the ticketsArray array of the Lucky7TicketFactory contract where was pushed the last ticket\n    * inserted by the insertCustomizedTicket function of this contract. That function and this parameter are used for testing purposes only.\n    * @param prizeWinner1 is and address which stores the address of the last first prize winner. Is setted on the _deliverPrizes function of this contract \n    * and is used to set to 0 the amount of the prize for the last first prize winner before start delivering prizes for security reasons.\n    * @param prizeWinner2 is and address which stores the address of the last second prize winner. Is setted on the _deliverPrizes function of this contract \n    * and is used to set to 0 the amount of the prize for the last second prize winner before start delivering prizes for security reasons.\n    * @param prizeWinner3 is and address which stores the address of the last third prize winner. Is setted on the _deliverPrizes function of this contract \n    * and is used to set to 0 the amount of the prize for the last third prize winner before start delivering prizes for security reasons.\n    * @param prizeAmount1 is and uint which stores the amount of the last first prize. Is setted on the _deliverPrizes function of this contract.\n    * @param prizeAmount2 is and uint which stores the uint of the last second prize winner. Is setted on the _deliverPrizes function of this contract.\n    * @param prizeAmount3 is and uint which stores the uint of the last third prize winner. Is setted on the _deliverPrizes function of this contract.\n    * @param pendingWithdrawals is a mapping that points from an address to an uint. Is used for the _deliverPrizes function of this contract to store the \n    * the correspondent prize with the correspondent winner. The prizes are setted to 0 every time the _deliverPrizes function is called for security reasons.\n    * To claim a prize, user have to call the withdraw function of this contract, so the prize is delivered and the amount for him prize is setted to 0 again.\n    \n    */\n  uint public initialLucky7TicketPosition = 0;\n  uint public currentTicketID = 0;\n  struct PrizeInfo {\n    uint amount;\n    uint gameID;\n  }\n  mapping(address => PrizeInfo) public pendingWithdrawals;\n\n  /** @dev setNewGame is a function designed to call all the functions necessary to start a new game. First, it activate the settingLucky7Numbers circuit breaker.\n   * Then it stores and order the Lucky7Tickets in ascendante order depending on them difference values through the _orderLucky7Tickets. \n   * Then it set the prizes for the last winners to 0 (for security reasons), look up for Lucky7Tickets with owners different than 0 and update the \n   * pendingWithdrawals for the first, second and third winnner, deliver the prize for the enterprise, clean the necessary mappings and arrays (lucky7NumbersArray), \n   * increase the gameID parameter to differentiate the Lucky7Tickets and Tickets from each different game in the future, and update the value\n   * of the initialLucky7TicketPosition to store the Lucky7Tickets for every game correctly.\n   */\n  function setNewGame()\n  public\n  prizesDeliveryEnabled {\n    require(ticketsArray.length != 0);\n    toggleLucky7Setting();\n    _orderLucky7Tickets();\n    _deliverPrizes();\n    _cleanMappings();\n    gameID++;\n    pendingWithdrawals[msg.sender].amount += newGameSettedPrize;\n    pendingWithdrawals[msg.sender].gameID = gameID;\n    ticketsGenerated = 0;\n    ticketsPurchased = 0;\n    lastDelivery = now;\n    initialLucky7TicketPosition = gameID * numberOfLucky7Numbers;\n  }\n\n  /** @dev _generateLucky7Number is the function that is actually used to generate the Lucky7Numbers. It have the business logic for generating the Lucky7Numbers, i.e. if \n   * the indexForLucky7Array is different than the numberOfLucky7Numbers, then sets the muReady and iReady booleans of the UserParametersValue struct of the \n   * Lucky7TicketFactory contract to true and calls for the _askForMuParameter and _askForIParameter function of the Lucky7TicketFactory contract. This way it can ask for both mu and i parameters\n   * to oraclize and when the oraclize respond with both, ask for a ticket which is going to be a Lucky7Number.\n   * If the indexForLucky7Array is equal to the numberOfLucky7Numbers, then proceed to order the Lucky7Numbers through the _orderLucky7Numbers function of this contract.\n   * Then it sets the indexForLucky7Array to 0 so the next time a new game is setted, this function starts storing the Lucky7Numbers from the position 0, to finally shut off\n   * the settingLucky7Numbers circuit breaker to allow users to start buying tickets.\n   */\n  function _generateLucky7Number() public gameNotInCourse {\n    require(waitingForLucky7Number == false);\n    if (indexForLucky7Array == numberOfLucky7Numbers) {\n      waitingForLucky7Number = true;\n      _orderLucky7Numbers();\n      indexForLucky7Array = 0;\n      toggleLucky7Setting();\n      waitingForLucky7Number = false;\n      pendingWithdrawals[msg.sender].amount += newLucky7NumberPrize;\n      pendingWithdrawals[msg.sender].gameID = gameID;\n    } else {\n      waitingForLucky7Number = true;\n      userValues[address(this)].muReady = false;\n      userValues[address(this)].iReady = false;\n      _generateTicket(address(this));\n      pendingWithdrawals[msg.sender].amount += newLucky7NumberPrize;\n      pendingWithdrawals[msg.sender].gameID = gameID;\n    }\n  }\n\n  /** @dev _orderLucky7Numbers is a function designed to order the Lucky7Numbers. It is called from the _generateLucky7Number function of this contract (above function).\n   * First, it generates 4 auxiliary parameters; a Lucky7Number struct called smallest, and aux, j and i which are uint initiated to 0.\n   * Then it loops over the Lucky7Numbers array, comparing the i Lucky7Number value with the i+1, i+2, i+3 until reachs the numberOfLucky7Numbers-1 value. \n   * If none of them is smaller than it, then jumps to the next Lucky7Number. It then starts comparing it (the i+1 for this case) with the subsequents number. If one of \n   * them is smaller, changes positions and starts comparing the new one with the subsequents. \n   */\n  function _orderLucky7Numbers() public onlyOwner {\n    Lucky7Number memory smallest;\n    uint aux;\n    uint j;\n    uint i;\n    for (i = 0; i < numberOfLucky7Numbers; i++) {\n      /** @dev At this point, aux is going to be ever equal to i and smallest is the Lucky7Number which is going to be compared with the next.\n       */\n      aux = i;\n      smallest = lucky7NumbersArray[i];\n      for (j = i + 1; j < numberOfLucky7Numbers; j++) {\n        /** @dev At this point, the function starts comparing \"smallest\" with the next to it, j+1 in this case.\n         * If \"smallest\" is not smaller than the next ticketValue (or Lucky7Number[j] value), then it saves the value of the new \"smallest\" value, \n         * and saves aux as the j value.\n         */\n        if (smallest.ticketValue > lucky7NumbersArray[j].ticketValue) {\n          smallest = lucky7NumbersArray[j];\n          aux = j;\n        }\n      }\n\n      /** @dev Once the previous loop is finished, i.e. the comparison of \"smallest\" with all the other above it, it checks if aux changed.\n       * If it changed, it means that there was one Lucky7Number which value was lower than \"smallest\", and change the position of \"smallest\" with the Lucky7Number[j]\n       * which is actually smalller than \"smallest\". This way, in next hopes former \"smallest\" Lucky7Number is going to be compared again until it fits the state of\n       * \"smallest than every Lucky7Number above itself\"\n       */\n      if (aux != i) {\n        lucky7NumbersArray[aux] = lucky7NumbersArray[i];\n        lucky7NumbersArray[i] = smallest;\n      }\n    }\n  }\n  /** @dev _orderLucky7Tickets is a function designed to store and order the Lucky7Tickets according to its difference in asceding order.\n   * First, it stores all the current Lucky7Ticket values, i.e. lucky7TicketDifference, lucky7TicketOwner and lucky7TicketID mappings from the Lucky7TicketFactory contract,\n   * the ticketValue associated to it, the Lucky7Number and Lucky7NumberID (first, second, third) associated to it, and the gameID. This is thought to be capable of verify\n   * in the future possible problems delivering prizes.\n   * Then, it order the Lucky7Tickets depending on them difference value of the Lucky7Ticket struct of the Lucky7TicketFactory contract. The order logic is the same defined\n   * in the _orderLucky7Numbers function of this contract (the above function).\n   */\n  function _orderLucky7Tickets() public onlyOwner {\n    Lucky7Ticket memory smallest;\n    uint aux;\n    uint i;\n    uint j;\n    uint k;\n    for (i = 0; i < numberOfLucky7Numbers; i++) {\n      uint lucky7TicketValue = lucky7TicketOwner[i] != address(0x0) ? ticketsArray[lucky7TicketID[i]].ticketValue : 0;\n      lucky7TicketsArray.push(Lucky7Ticket(lucky7TicketDifference[i], lucky7TicketOwner[i], lucky7TicketID[i], lucky7TicketValue, lucky7NumbersArray[i].ticketValue, i, gameID, 0));\n    }\n    for (j = initialLucky7TicketPosition; j < numberOfLucky7Numbers + initialLucky7TicketPosition; j++) {\n      aux = j;\n      smallest = lucky7TicketsArray[j];\n      for (k = j + 1; k < numberOfLucky7Numbers + initialLucky7TicketPosition; k++) {\n        if (smallest.difference > lucky7TicketsArray[k].difference) {\n          smallest = lucky7TicketsArray[k];\n          aux = k;\n        }\n      }\n      if (aux != j) {\n        lucky7TicketsArray[aux] = lucky7TicketsArray[j];\n        lucky7TicketsArray[j] = smallest;\n\n      }\n    }\n  }\n  /** @dev _deliverPrizes is a function designed to complete the business logic of the deliver prizes phase.\n   * First, it takes the balance of prizes of the previous winners to 0 for security reasons (explained in the paper of the project).\n   * Then it proceeds to calculate the amount of the prizes. The winners lot is 70% of the accumulated earnings,i.e. 70% of the contract balance.\n   * Of that amount, 60% is for the first prize, 30% is for the second prize and 10% for the third prize.\n   * The function then proceeds to check if, starting in the initialLucky7TicketPosition (the first Lucky7Ticket of the current game ordered by difference in ascending order)\n   * belongs to a user, i.e. it address is not 0. If it's different than 0, then sets the prize for that address to the first prize amount on the pendingWithdrawals mapping, \n   * saves it adddress in prizeWinner1 to set it prize to 0 in the next new game setting and breaks the loop to deliver the second place prize.\n   * It is not automatically delivered to the first prize winner to avoid DoS with (Unexpected) revert attack, i.e. one or more of the winners address isn't\n   * capable of receiving ether and cut the transaction, stucking the contract function to deliver prizes to real winners.\n   * After update the pendingWithdrawals mapping for payment for the first prize winner, it proceeds the same way with the second and third winner, to finally deliver the\n   * enterprise prize automatically, because is a known address and is first setted as the owner of the contract. \n   */\n  function _deliverPrizes() public onlyOwner {\n    uint winnersPrize = address(this).balance.mul(7);\n    winnersPrize = winnersPrize.div(280);\n    uint i;\n    uint prizeCounter = 7;\n    for (i = initialLucky7TicketPosition; i < numberOfLucky7Numbers + initialLucky7TicketPosition; i++) {\n      if (lucky7TicketsArray[i].owner != address(0x0)) {\n        if (pendingWithdrawals[lucky7TicketsArray[i].owner].gameID != gameID + 1) {\n          pendingWithdrawals[lucky7TicketsArray[i].owner].amount = winnersPrize.mul(prizeCounter);\n        } else {\n          pendingWithdrawals[lucky7TicketsArray[i].owner].amount += winnersPrize.mul(prizeCounter);\n        }\n        pendingWithdrawals[lucky7TicketsArray[i].owner].gameID = gameID + 1;\n        lucky7TicketsArray[i].prize = winnersPrize.mul(prizeCounter);\n        prizeCounter -= 1;\n      }\n      string memory userMu = lucky7TicketsArray[i].owner != address(0x0) ? ticketsArray[lucky7TicketsArray[i].ticketID].mu : \"0\";\n      string memory userI = lucky7TicketsArray[i].owner != address(0x0) ? ticketsArray[lucky7TicketsArray[i].ticketID].i : \"0\";\n      emit Lucky7TicketStored(\n        lucky7TicketsArray[i].difference,\n        lucky7TicketsArray[i].owner,\n        lucky7TicketsArray[i].ticketID,\n        lucky7TicketsArray[i].ticketValue,\n        lucky7TicketsArray[i].lucky7Number,\n        lucky7TicketsArray[i].lucky7NumberID,\n        lucky7TicketsArray[i].gameID,\n        lucky7TicketsArray[i].prize,\n        userMu,\n        userI);\n    }\n    uint enterprisePrize = address(this).balance.mul(3);\n    enterprisePrize = enterprisePrize.div(10);\n    lucky7Wallet.transfer(enterprisePrize);\n  }\n\n  /** @dev _cleanMappings is a function used by the setNewGame function of this contract to clean the necessary mappings, \n   * i.e. lucky7TicketDifference, lucky7TicketOwner, lucky7TicketID, lucky7NumbersArray, ExactLucky7TicketValue, ExactLucky7TicketOwner and\n   * ExactLucky7TicketID. This, because for new games the old winners needs to been cleaned up.\n   */\n  //Should clean \n  function _cleanMappings() public {\n    for (uint i = 0; i < numberOfLucky7Numbers; i++) {\n      lucky7TicketDifference[i] = 0;\n      lucky7TicketOwner[i] = address(0x0);\n      lucky7TicketID[i] = 0;\n      lucky7TicketValue[i] = 0;\n      lucky7NumbersArray[i].mu = \"0\";\n      lucky7NumbersArray[i].i = \"0\";\n      lucky7NumbersArray[i].ticketValue = 0;\n      lucky7NumbersArray[i].gameID = gameID;\n    }\n  }\n  /** @dev withdraw is a function used for winners to claim them prices. It is updated in the _deliverPrizesFunction of this contract to\n   * state the owners of the first, second and third prize. It is used to avoid DoS with (Unexpected) revert attack.\n   */\n  function withdraw() public {\n    PrizeInfo memory prize = pendingWithdrawals[msg.sender];\n    uint amount = prize.amount;\n    require(prize.gameID == gameID && (prize.amount != 0));\n    pendingWithdrawals[msg.sender].amount = 0;\n    msg.sender.transfer(amount);\n    emit PrizeClaimed(msg.sender, gameID, amount);\n  }\n\n  /** @dev Fallback function to make this contract payable.\n   */\n  function () external payable {\n\n  }\n}\n",
  "sourcePath": "/Users/matiasbarrios/Desktop/luckyseven/contracts/Lucky7Raffle.sol",
  "compiler": {
    "name": "solc",
    "version": "0.5.8+commit.23d335f2.Emscripten.clang"
  },
  "schemaVersion": "3.0.11",
  "updatedAt": "2019-07-31T20:25:50.696Z",
  "devdoc": {
    "methods": {
      "__callback(bytes32,string)": {
        "details": "__callback is a function used for oraclize to send back the query emitted to oraclize.",
        "params": {
          "myid": "is the id of the query, same as the muID, iID or userTicketID of the _askForMuParameter, _askForIParameter and _askForTicket functions above.",
          "result": "is the result of the query. Once the query is resolved, oraclize sends back the answer, and the function check that the one calling the function is indeed a oraclize contract."
        }
      },
      "_askForIParameter(address)": {
        "details": "_askForIParameter is a function to ask for a new I parameter through an oraclize query.",
        "params": {
          "_ticketOwner": "is the address of the user which is calling this function through a generation of new parameters or by buying a new random ticket. First, it emit an event to register the query. Then it do the query and save the bytes32 value generated to the iID. Finally it associate this iID with the _ticketOwner through the iParameterID mapping, so the oraclize's callback function know it is a i petition and it belongs to the _ticketOwner user."
        }
      },
      "_askForMuParameter(address)": {
        "details": "_askForMuParameter is a function to ask for a new mu parameter through an oraclize query.",
        "params": {
          "_ticketOwner": "is the address of the user which is calling this function through a generation of new parameters or by buying a new random ticket. First, it emit an event to register the query. Then it do the query and save the bytes32 value generated to the muID. Finally it associate this muID with the _ticketOwner through the muParameterID mapping, so the oraclize's callback function know it is a mu petition and it belongs to the _ticketOwner user."
        }
      },
      "_askForTicket(address)": {
        "details": "_askForTicket is a function to ask for a new ticket through an oraclize query.",
        "params": {
          "_ticketOwner": "is the address of the user which is calling this function through by buying a new random ticket or buying the ticket generated by it parameters. First, it emit an event to register the query. Then it do the query and save the bytes32 value generated to the userTicketID. Finally it associate this userTicketID with the _ticketOwner through the newTicketID mapping, so the oraclize's callback function know it is a ticket petition and it belongs to the _ticketOwner user. Inside the oraclize_query function it calls the _setTicketQuery function, so it generate the query depending on the UserParametersValue struct of the _ticketOwner user."
        }
      },
      "_checkForLucky7Ticket(uint256)": {
        "details": "_checkForLucky7Ticket is a function that check if a ticket recently inserted in the ticketsArray is a Lucky7Ticket.",
        "params": {
          "_ticketID": "is the ticket which is going to be checked. At this point, the Lucky7Numbers are ordered by them values in ascedant order. This function uses the SafeMath library to avoid integer underflow or overflow, or to check that the difference is not 0, which is a special case."
        }
      },
      "_cleanMappings()": {
        "details": "_cleanMappings is a function used by the setNewGame function of this contract to clean the necessary mappings,  i.e. lucky7TicketDifference, lucky7TicketOwner, lucky7TicketID, lucky7NumbersArray, ExactLucky7TicketValue, ExactLucky7TicketOwner and ExactLucky7TicketID. This, because for new games the old winners needs to been cleaned up."
      },
      "_deliverPrizes()": {
        "details": "_deliverPrizes is a function designed to complete the business logic of the deliver prizes phase. First, it takes the balance of prizes of the previous winners to 0 for security reasons (explained in the paper of the project). Then it proceeds to calculate the amount of the prizes. The winners lot is 70% of the accumulated earnings,i.e. 70% of the contract balance. Of that amount, 60% is for the first prize, 30% is for the second prize and 10% for the third prize. The function then proceeds to check if, starting in the initialLucky7TicketPosition (the first Lucky7Ticket of the current game ordered by difference in ascending order) belongs to a user, i.e. it address is not 0. If it's different than 0, then sets the prize for that address to the first prize amount on the pendingWithdrawals mapping,  saves it adddress in prizeWinner1 to set it prize to 0 in the next new game setting and breaks the loop to deliver the second place prize. It is not automatically delivered to the first prize winner to avoid DoS with (Unexpected) revert attack, i.e. one or more of the winners address isn't capable of receiving ether and cut the transaction, stucking the contract function to deliver prizes to real winners. After update the pendingWithdrawals mapping for payment for the first prize winner, it proceeds the same way with the second and third winner, to finally deliver the enterprise prize automatically, because is a known address and is first setted as the owner of the contract. "
      },
      "_generateLucky7Number()": {
        "details": "_generateLucky7Number is the function that is actually used to generate the Lucky7Numbers. It have the business logic for generating the Lucky7Numbers, i.e. if  the indexForLucky7Array is different than the numberOfLucky7Numbers, then sets the muReady and iReady booleans of the UserParametersValue struct of the  Lucky7TicketFactory contract to true and calls for the _askForMuParameter and _askForIParameter function of the Lucky7TicketFactory contract. This way it can ask for both mu and i parameters to oraclize and when the oraclize respond with both, ask for a ticket which is going to be a Lucky7Number. If the indexForLucky7Array is equal to the numberOfLucky7Numbers, then proceed to order the Lucky7Numbers through the _orderLucky7Numbers function of this contract. Then it sets the indexForLucky7Array to 0 so the next time a new game is setted, this function starts storing the Lucky7Numbers from the position 0, to finally shut off the settingLucky7Numbers circuit breaker to allow users to start buying tickets."
      },
      "_generateTicket(address)": {
        "details": "_generateTicket is used by another contract. Invokes _askForMuParameter and _askForIparameter"
      },
      "_orderLucky7Numbers()": {
        "details": "_orderLucky7Numbers is a function designed to order the Lucky7Numbers. It is called from the _generateLucky7Number function of this contract (above function). First, it generates 4 auxiliary parameters; a Lucky7Number struct called smallest, and aux, j and i which are uint initiated to 0. Then it loops over the Lucky7Numbers array, comparing the i Lucky7Number value with the i+1, i+2, i+3 until reachs the numberOfLucky7Numbers-1 value.  If none of them is smaller than it, then jumps to the next Lucky7Number. It then starts comparing it (the i+1 for this case) with the subsequents number. If one of  them is smaller, changes positions and starts comparing the new one with the subsequents. "
      },
      "_orderLucky7Tickets()": {
        "details": "_orderLucky7Tickets is a function designed to store and order the Lucky7Tickets according to its difference in asceding order. First, it stores all the current Lucky7Ticket values, i.e. lucky7TicketDifference, lucky7TicketOwner and lucky7TicketID mappings from the Lucky7TicketFactory contract, the ticketValue associated to it, the Lucky7Number and Lucky7NumberID (first, second, third) associated to it, and the gameID. This is thought to be capable of verify in the future possible problems delivering prizes. Then, it order the Lucky7Tickets depending on them difference value of the Lucky7Ticket struct of the Lucky7TicketFactory contract. The order logic is the same defined in the _orderLucky7Numbers function of this contract (the above function)."
      },
      "isOwner()": {
        "details": "Returns true if the caller is the current owner."
      },
      "owner()": {
        "details": "Returns the address of the current owner."
      },
      "renounceOwnership()": {
        "details": "Leaves the contract without owner. It will not be possible to call `onlyOwner` functions anymore. Can only be called by the current owner.     * > Note: Renouncing ownership will leave the contract without an owner, thereby removing any functionality that is only available to the owner."
      },
      "setNewGame()": {
        "details": "setNewGame is a function designed to call all the functions necessary to start a new game. First, it activate the settingLucky7Numbers circuit breaker. Then it stores and order the Lucky7Tickets in ascendante order depending on them difference values through the _orderLucky7Tickets.  Then it set the prizes for the last winners to 0 (for security reasons), look up for Lucky7Tickets with owners different than 0 and update the  pendingWithdrawals for the first, second and third winnner, deliver the prize for the enterprise, clean the necessary mappings and arrays (lucky7NumbersArray),  increase the gameID parameter to differentiate the Lucky7Tickets and Tickets from each different game in the future, and update the value of the initialLucky7TicketPosition to store the Lucky7Tickets for every game correctly."
      },
      "toggleLucky7Setting()": {
        "details": "Function to toggle the settingLucky7Numbers to stop users to buy tickets."
      },
      "transferOwnership(address)": {
        "details": "Transfers ownership of the contract to a new account (`newOwner`). Can only be called by the current owner."
      },
      "withdraw()": {
        "details": "withdraw is a function used for winners to claim them prices. It is updated in the _deliverPrizesFunction of this contract to state the owners of the first, second and third prize. It is used to avoid DoS with (Unexpected) revert attack."
      }
    }
  },
  "userdoc": {
    "methods": {
      "validateDelivery()": {
        "notice": "function to determine if users are able to deliver prizes or not."
      }
    }
  }
}