{
  "contractName": "Lucky7Library",
  "abi": [
    {
      "constant": true,
      "inputs": [
        {
          "name": "_data",
          "type": "uint256"
        }
      ],
      "name": "uintToString",
      "outputs": [
        {
          "name": "",
          "type": "string"
        }
      ],
      "payable": false,
      "stateMutability": "pure",
      "type": "function"
    },
    {
      "constant": true,
      "inputs": [
        {
          "name": "nonce",
          "type": "uint256"
        }
      ],
      "name": "generateBadRandomNumber",
      "outputs": [
        {
          "name": "",
          "type": "uint256"
        }
      ],
      "payable": false,
      "stateMutability": "view",
      "type": "function"
    }
  ],
  "bytecode": "0x6101f0610026600b82828239805160001a60731461001957fe5b30600052607381538281f3fe73000000000000000000000000000000000000000030146080604052600436106100405760003560e01c806310645d8114610045578063e939567914610074575b600080fd5b6100626004803603602081101561005b57600080fd5b5035610106565b60408051918252519081900360200190f35b6100916004803603602081101561008a57600080fd5b5035610144565b6040805160208082528351818301528351919283929083019185019080838360005b838110156100cb5781810151838201526020016100b3565b50505050905090810190601f1680156100f85780820380516001836020036101000a031916815260200191505b509250505060405180910390f35b60408051426020808301919091523360601b82840152605480830194909452825180830390940184526074909101909152815191012061270f900690565b6040805160208082528183019092526060918391839160208201818038833901905050905060005b60208110156101bc576008810260020a83026001600160f81b03198116156101b3578083838151811061019b57fe5b60200101906001600160f81b031916908160001a9053505b5060010161016c565b50939250505056fea165627a7a723058201f86a4dbc97a3a0c3b44930e82c15979044ee9e4b0ab3ca858472a0aae975e680029",
  "source": "pragma solidity ^ 0.5 .0;\n\nlibrary Lucky7Library {\n  function uintToString(uint _data) public pure returns(string memory) {\n    bytes32 data = bytes32(_data);\n    bytes memory bytesString = new bytes(32);\n    for (uint j = 0; j < 32; j++) {\n      byte char = byte(bytes32(uint(data) * 2 ** (8 * j)));\n      if (char != 0) {\n        bytesString[j] = char;\n      }\n    }\n    return string(bytesString);\n  }\n\n  function generateBadRandomNumber(uint nonce) public view returns(uint) {\n    return uint(keccak256(abi.encodePacked(now, msg.sender, nonce))) % 9999;\n  }\n}\n",
  "sourcePath": "/Users/matiasbarrios/Desktop/luckyseven/contracts/Lucky7Library.sol",
  "compiler": {
    "name": "solc",
    "version": "0.5.8+commit.23d335f2.Emscripten.clang"
  },
  "schemaVersion": "3.0.11",
  "updatedAt": "2019-08-01T02:09:43.250Z",
  "devdoc": {
    "methods": {}
  },
  "userdoc": {
    "methods": {}
  }
}